{
	"Project.sol": {
		"Project": {
			"abi": [
				{
					"inputs": [
						{
							"internalType": "address",
							"name": "_creator",
							"type": "address"
						},
						{
							"internalType": "address",
							"name": "_receiver",
							"type": "address"
						},
						{
							"internalType": "string",
							"name": "_name",
							"type": "string"
						},
						{
							"internalType": "string",
							"name": "_description",
							"type": "string"
						},
						{
							"internalType": "uint256",
							"name": "_goal",
							"type": "uint256"
						},
						{
							"internalType": "uint256",
							"name": "_fundingDuration",
							"type": "uint256"
						},
						{
							"internalType": "uint256",
							"name": "_refundDuration",
							"type": "uint256"
						}
					],
					"stateMutability": "nonpayable",
					"type": "constructor"
				},
				{
					"inputs": [],
					"name": "creator",
					"outputs": [
						{
							"internalType": "address",
							"name": "",
							"type": "address"
						}
					],
					"stateMutability": "view",
					"type": "function"
				},
				{
					"inputs": [],
					"name": "description",
					"outputs": [
						{
							"internalType": "string",
							"name": "",
							"type": "string"
						}
					],
					"stateMutability": "view",
					"type": "function"
				},
				{
					"inputs": [
						{
							"internalType": "string",
							"name": "message",
							"type": "string"
						}
					],
					"name": "donateToProject",
					"outputs": [],
					"stateMutability": "payable",
					"type": "function"
				},
				{
					"inputs": [
						{
							"internalType": "address",
							"name": "",
							"type": "address"
						}
					],
					"name": "donations",
					"outputs": [
						{
							"internalType": "uint256",
							"name": "value",
							"type": "uint256"
						},
						{
							"internalType": "string",
							"name": "message",
							"type": "string"
						}
					],
					"stateMutability": "view",
					"type": "function"
				},
				{
					"inputs": [],
					"name": "fundingDeadline",
					"outputs": [
						{
							"internalType": "uint256",
							"name": "",
							"type": "uint256"
						}
					],
					"stateMutability": "view",
					"type": "function"
				},
				{
					"inputs": [],
					"name": "goal",
					"outputs": [
						{
							"internalType": "uint256",
							"name": "",
							"type": "uint256"
						}
					],
					"stateMutability": "view",
					"type": "function"
				},
				{
					"inputs": [],
					"name": "makePayment",
					"outputs": [],
					"stateMutability": "payable",
					"type": "function"
				},
				{
					"inputs": [],
					"name": "name",
					"outputs": [
						{
							"internalType": "string",
							"name": "",
							"type": "string"
						}
					],
					"stateMutability": "view",
					"type": "function"
				},
				{
					"inputs": [],
					"name": "raised",
					"outputs": [
						{
							"internalType": "uint256",
							"name": "",
							"type": "uint256"
						}
					],
					"stateMutability": "view",
					"type": "function"
				},
				{
					"inputs": [],
					"name": "receiver",
					"outputs": [
						{
							"internalType": "address",
							"name": "",
							"type": "address"
						}
					],
					"stateMutability": "view",
					"type": "function"
				},
				{
					"inputs": [
						{
							"internalType": "uint256",
							"name": "amount",
							"type": "uint256"
						}
					],
					"name": "refund",
					"outputs": [],
					"stateMutability": "payable",
					"type": "function"
				},
				{
					"inputs": [],
					"name": "refundDeadline",
					"outputs": [
						{
							"internalType": "uint256",
							"name": "",
							"type": "uint256"
						}
					],
					"stateMutability": "view",
					"type": "function"
				},
				{
					"inputs": [],
					"name": "refundPeriodOver",
					"outputs": [],
					"stateMutability": "nonpayable",
					"type": "function"
				},
				{
					"inputs": [],
					"name": "state",
					"outputs": [
						{
							"internalType": "enum Project.State",
							"name": "",
							"type": "uint8"
						}
					],
					"stateMutability": "view",
					"type": "function"
				},
				{
					"inputs": [],
					"name": "targetNotHit",
					"outputs": [],
					"stateMutability": "nonpayable",
					"type": "function"
				}
			],
			"devdoc": {
				"kind": "dev",
				"methods": {},
				"version": 1
			},
			"evm": {
				"assembly": "    /* \"Project.sol\":57:4061  contract Project {... */\n  mstore(0x40, 0x80)\n    /* \"Project.sol\":603:619  1000000 * 1 gwei */\n  0x038d7ea4c68000\n    /* \"Project.sol\":581:619  uint256 minDonation = 1000000 * 1 gwei */\n  0x0b\n  sstore\n    /* \"Project.sol\":645:661  10000000 * 1 wei */\n  0x989680\n    /* \"Project.sol\":625:661  uint256 refundFee = 10000000 * 1 wei */\n  0x0c\n  sstore\n    /* \"Project.sol\":720:1296  constructor(... */\n  callvalue\n  dup1\n  iszero\n  tag_1\n  jumpi\n  0x00\n  dup1\n  revert\ntag_1:\n  pop\n  mload(0x40)\n  sub(codesize, bytecodeSize)\n  dup1\n  bytecodeSize\n  dup4\n  codecopy\n  dup2\n  dup2\n  add\n  0x40\n  mstore\n  dup2\n  add\n  swap1\n  tag_2\n  swap2\n  swap1\n  tag_3\n  jump\t// in\ntag_2:\n    /* \"Project.sol\":966:974  _creator */\n  dup7\n    /* \"Project.sol\":956:963  creator */\n  0x00\n  dup1\n    /* \"Project.sol\":956:974  creator = _creator */\n  0x0100\n  exp\n  dup2\n  sload\n  dup2\n  0xffffffffffffffffffffffffffffffffffffffff\n  mul\n  not\n  and\n  swap1\n  dup4\n  0xffffffffffffffffffffffffffffffffffffffff\n  and\n  mul\n  or\n  swap1\n  sstore\n  pop\n    /* \"Project.sol\":995:1004  _receiver */\n  dup6\n    /* \"Project.sol\":984:992  receiver */\n  0x01\n  0x00\n    /* \"Project.sol\":984:1004  receiver = _receiver */\n  0x0100\n  exp\n  dup2\n  sload\n  dup2\n  0xffffffffffffffffffffffffffffffffffffffff\n  mul\n  not\n  and\n  swap1\n  dup4\n  0xffffffffffffffffffffffffffffffffffffffff\n  and\n  mul\n  or\n  swap1\n  sstore\n  pop\n    /* \"Project.sol\":1021:1026  _name */\n  dup5\n    /* \"Project.sol\":1014:1018  name */\n  0x02\n    /* \"Project.sol\":1014:1026  name = _name */\n  swap1\n  dup2\n  tag_6\n  swap2\n  swap1\n  tag_7\n  jump\t// in\ntag_6:\n  pop\n    /* \"Project.sol\":1050:1062  _description */\n  dup4\n    /* \"Project.sol\":1036:1047  description */\n  0x03\n    /* \"Project.sol\":1036:1062  description = _description */\n  swap1\n  dup2\n  tag_8\n  swap2\n  swap1\n  tag_7\n  jump\t// in\ntag_8:\n  pop\n    /* \"Project.sol\":1079:1084  _goal */\n  dup3\n    /* \"Project.sol\":1072:1076  goal */\n  0x04\n    /* \"Project.sol\":1072:1084  goal = _goal */\n  dup2\n  swap1\n  sstore\n  pop\n    /* \"Project.sol\":1103:1104  0 */\n  0x00\n    /* \"Project.sol\":1094:1100  raised */\n  0x05\n    /* \"Project.sol\":1094:1104  raised = 0 */\n  dup2\n  swap1\n  sstore\n  pop\n    /* \"Project.sol\":1132:1148  _fundingDuration */\n  dup2\n    /* \"Project.sol\":1114:1129  fundingDuration */\n  0x06\n    /* \"Project.sol\":1114:1148  fundingDuration = _fundingDuration */\n  dup2\n  swap1\n  sstore\n  pop\n    /* \"Project.sol\":1194:1210  _fundingDuration */\n  dup2\n    /* \"Project.sol\":1176:1191  block.timestamp */\n  timestamp\n    /* \"Project.sol\":1176:1210  block.timestamp + _fundingDuration */\n  tag_9\n  swap2\n  swap1\n  tag_10\n  jump\t// in\ntag_9:\n    /* \"Project.sol\":1158:1173  fundingDeadline */\n  0x08\n    /* \"Project.sol\":1158:1210  fundingDeadline = block.timestamp + _fundingDuration */\n  dup2\n  swap1\n  sstore\n  pop\n    /* \"Project.sol\":1237:1252  _refundDuration */\n  dup1\n    /* \"Project.sol\":1220:1234  refundDuration */\n  0x07\n    /* \"Project.sol\":1220:1252  refundDuration = _refundDuration */\n  dup2\n  swap1\n  sstore\n  pop\n    /* \"Project.sol\":1270:1289  State.fundingPeriod */\n  0x00\n    /* \"Project.sol\":1262:1267  state */\n  0x0a\n  0x00\n    /* \"Project.sol\":1262:1289  state = State.fundingPeriod */\n  0x0100\n  exp\n  dup2\n  sload\n  dup2\n  0xff\n  mul\n  not\n  and\n  swap1\n  dup4\n  0x03\n  dup2\n  gt\n  iszero\n  tag_11\n  jumpi\n  tag_12\n  tag_13\n  jump\t// in\ntag_12:\ntag_11:\n  mul\n  or\n  swap1\n  sstore\n  pop\n    /* \"Project.sol\":720:1296  constructor(... */\n  pop\n  pop\n  pop\n  pop\n  pop\n  pop\n  pop\n    /* \"Project.sol\":57:4061  contract Project {... */\n  jump(tag_14)\n    /* \"#utility.yul\":7:82   */\ntag_15:\n    /* \"#utility.yul\":40:46   */\n  0x00\n    /* \"#utility.yul\":73:75   */\n  0x40\n    /* \"#utility.yul\":67:76   */\n  mload\n    /* \"#utility.yul\":57:76   */\n  swap1\n  pop\n    /* \"#utility.yul\":7:82   */\n  swap1\n  jump\t// out\n    /* \"#utility.yul\":88:205   */\ntag_16:\n    /* \"#utility.yul\":197:198   */\n  0x00\n    /* \"#utility.yul\":194:195   */\n  dup1\n    /* \"#utility.yul\":187:199   */\n  revert\n    /* \"#utility.yul\":211:328   */\ntag_17:\n    /* \"#utility.yul\":320:321   */\n  0x00\n    /* \"#utility.yul\":317:318   */\n  dup1\n    /* \"#utility.yul\":310:322   */\n  revert\n    /* \"#utility.yul\":334:460   */\ntag_18:\n    /* \"#utility.yul\":371:378   */\n  0x00\n    /* \"#utility.yul\":411:453   */\n  0xffffffffffffffffffffffffffffffffffffffff\n    /* \"#utility.yul\":404:409   */\n  dup3\n    /* \"#utility.yul\":400:454   */\n  and\n    /* \"#utility.yul\":389:454   */\n  swap1\n  pop\n    /* \"#utility.yul\":334:460   */\n  swap2\n  swap1\n  pop\n  jump\t// out\n    /* \"#utility.yul\":466:562   */\ntag_19:\n    /* \"#utility.yul\":503:510   */\n  0x00\n    /* \"#utility.yul\":532:556   */\n  tag_60\n    /* \"#utility.yul\":550:555   */\n  dup3\n    /* \"#utility.yul\":532:556   */\n  tag_18\n  jump\t// in\ntag_60:\n    /* \"#utility.yul\":521:556   */\n  swap1\n  pop\n    /* \"#utility.yul\":466:562   */\n  swap2\n  swap1\n  pop\n  jump\t// out\n    /* \"#utility.yul\":568:690   */\ntag_20:\n    /* \"#utility.yul\":641:665   */\n  tag_62\n    /* \"#utility.yul\":659:664   */\n  dup2\n    /* \"#utility.yul\":641:665   */\n  tag_19\n  jump\t// in\ntag_62:\n    /* \"#utility.yul\":634:639   */\n  dup2\n    /* \"#utility.yul\":631:666   */\n  eq\n    /* \"#utility.yul\":621:684   */\n  tag_63\n  jumpi\n    /* \"#utility.yul\":680:681   */\n  0x00\n    /* \"#utility.yul\":677:678   */\n  dup1\n    /* \"#utility.yul\":670:682   */\n  revert\n    /* \"#utility.yul\":621:684   */\ntag_63:\n    /* \"#utility.yul\":568:690   */\n  pop\n  jump\t// out\n    /* \"#utility.yul\":696:839   */\ntag_21:\n    /* \"#utility.yul\":753:758   */\n  0x00\n    /* \"#utility.yul\":784:790   */\n  dup2\n    /* \"#utility.yul\":778:791   */\n  mload\n    /* \"#utility.yul\":769:791   */\n  swap1\n  pop\n    /* \"#utility.yul\":800:833   */\n  tag_65\n    /* \"#utility.yul\":827:832   */\n  dup2\n    /* \"#utility.yul\":800:833   */\n  tag_20\n  jump\t// in\ntag_65:\n    /* \"#utility.yul\":696:839   */\n  swap3\n  swap2\n  pop\n  pop\n  jump\t// out\n    /* \"#utility.yul\":845:962   */\ntag_22:\n    /* \"#utility.yul\":954:955   */\n  0x00\n    /* \"#utility.yul\":951:952   */\n  dup1\n    /* \"#utility.yul\":944:956   */\n  revert\n    /* \"#utility.yul\":968:1085   */\ntag_23:\n    /* \"#utility.yul\":1077:1078   */\n  0x00\n    /* \"#utility.yul\":1074:1075   */\n  dup1\n    /* \"#utility.yul\":1067:1079   */\n  revert\n    /* \"#utility.yul\":1091:1193   */\ntag_24:\n    /* \"#utility.yul\":1132:1138   */\n  0x00\n    /* \"#utility.yul\":1183:1185   */\n  0x1f\n    /* \"#utility.yul\":1179:1186   */\n  not\n    /* \"#utility.yul\":1174:1176   */\n  0x1f\n    /* \"#utility.yul\":1167:1172   */\n  dup4\n    /* \"#utility.yul\":1163:1177   */\n  add\n    /* \"#utility.yul\":1159:1187   */\n  and\n    /* \"#utility.yul\":1149:1187   */\n  swap1\n  pop\n    /* \"#utility.yul\":1091:1193   */\n  swap2\n  swap1\n  pop\n  jump\t// out\n    /* \"#utility.yul\":1199:1379   */\ntag_25:\n    /* \"#utility.yul\":1247:1324   */\n  0x4e487b7100000000000000000000000000000000000000000000000000000000\n    /* \"#utility.yul\":1244:1245   */\n  0x00\n    /* \"#utility.yul\":1237:1325   */\n  mstore\n    /* \"#utility.yul\":1344:1348   */\n  0x41\n    /* \"#utility.yul\":1341:1342   */\n  0x04\n    /* \"#utility.yul\":1334:1349   */\n  mstore\n    /* \"#utility.yul\":1368:1372   */\n  0x24\n    /* \"#utility.yul\":1365:1366   */\n  0x00\n    /* \"#utility.yul\":1358:1373   */\n  revert\n    /* \"#utility.yul\":1385:1666   */\ntag_26:\n    /* \"#utility.yul\":1468:1495   */\n  tag_71\n    /* \"#utility.yul\":1490:1494   */\n  dup3\n    /* \"#utility.yul\":1468:1495   */\n  tag_24\n  jump\t// in\ntag_71:\n    /* \"#utility.yul\":1460:1466   */\n  dup2\n    /* \"#utility.yul\":1456:1496   */\n  add\n    /* \"#utility.yul\":1598:1604   */\n  dup2\n    /* \"#utility.yul\":1586:1596   */\n  dup2\n    /* \"#utility.yul\":1583:1605   */\n  lt\n    /* \"#utility.yul\":1562:1580   */\n  0xffffffffffffffff\n    /* \"#utility.yul\":1550:1560   */\n  dup3\n    /* \"#utility.yul\":1547:1581   */\n  gt\n    /* \"#utility.yul\":1544:1606   */\n  or\n    /* \"#utility.yul\":1541:1629   */\n  iszero\n  tag_72\n  jumpi\n    /* \"#utility.yul\":1609:1627   */\n  tag_73\n  tag_25\n  jump\t// in\ntag_73:\n    /* \"#utility.yul\":1541:1629   */\ntag_72:\n    /* \"#utility.yul\":1649:1659   */\n  dup1\n    /* \"#utility.yul\":1645:1647   */\n  0x40\n    /* \"#utility.yul\":1638:1660   */\n  mstore\n    /* \"#utility.yul\":1428:1666   */\n  pop\n    /* \"#utility.yul\":1385:1666   */\n  pop\n  pop\n  jump\t// out\n    /* \"#utility.yul\":1672:1801   */\ntag_27:\n    /* \"#utility.yul\":1706:1712   */\n  0x00\n    /* \"#utility.yul\":1733:1753   */\n  tag_75\n  tag_15\n  jump\t// in\ntag_75:\n    /* \"#utility.yul\":1723:1753   */\n  swap1\n  pop\n    /* \"#utility.yul\":1762:1795   */\n  tag_76\n    /* \"#utility.yul\":1790:1794   */\n  dup3\n    /* \"#utility.yul\":1782:1788   */\n  dup3\n    /* \"#utility.yul\":1762:1795   */\n  tag_26\n  jump\t// in\ntag_76:\n    /* \"#utility.yul\":1672:1801   */\n  swap2\n  swap1\n  pop\n  jump\t// out\n    /* \"#utility.yul\":1807:2115   */\ntag_28:\n    /* \"#utility.yul\":1869:1873   */\n  0x00\n    /* \"#utility.yul\":1959:1977   */\n  0xffffffffffffffff\n    /* \"#utility.yul\":1951:1957   */\n  dup3\n    /* \"#utility.yul\":1948:1978   */\n  gt\n    /* \"#utility.yul\":1945:2001   */\n  iszero\n  tag_78\n  jumpi\n    /* \"#utility.yul\":1981:1999   */\n  tag_79\n  tag_25\n  jump\t// in\ntag_79:\n    /* \"#utility.yul\":1945:2001   */\ntag_78:\n    /* \"#utility.yul\":2019:2048   */\n  tag_80\n    /* \"#utility.yul\":2041:2047   */\n  dup3\n    /* \"#utility.yul\":2019:2048   */\n  tag_24\n  jump\t// in\ntag_80:\n    /* \"#utility.yul\":2011:2048   */\n  swap1\n  pop\n    /* \"#utility.yul\":2103:2107   */\n  0x20\n    /* \"#utility.yul\":2097:2101   */\n  dup2\n    /* \"#utility.yul\":2093:2108   */\n  add\n    /* \"#utility.yul\":2085:2108   */\n  swap1\n  pop\n    /* \"#utility.yul\":1807:2115   */\n  swap2\n  swap1\n  pop\n  jump\t// out\n    /* \"#utility.yul\":2121:2367   */\ntag_29:\n    /* \"#utility.yul\":2202:2203   */\n  0x00\n    /* \"#utility.yul\":2212:2325   */\ntag_82:\n    /* \"#utility.yul\":2226:2232   */\n  dup4\n    /* \"#utility.yul\":2223:2224   */\n  dup2\n    /* \"#utility.yul\":2220:2233   */\n  lt\n    /* \"#utility.yul\":2212:2325   */\n  iszero\n  tag_84\n  jumpi\n    /* \"#utility.yul\":2311:2312   */\n  dup1\n    /* \"#utility.yul\":2306:2309   */\n  dup3\n    /* \"#utility.yul\":2302:2313   */\n  add\n    /* \"#utility.yul\":2296:2314   */\n  mload\n    /* \"#utility.yul\":2292:2293   */\n  dup2\n    /* \"#utility.yul\":2287:2290   */\n  dup5\n    /* \"#utility.yul\":2283:2294   */\n  add\n    /* \"#utility.yul\":2276:2315   */\n  mstore\n    /* \"#utility.yul\":2248:2250   */\n  0x20\n    /* \"#utility.yul\":2245:2246   */\n  dup2\n    /* \"#utility.yul\":2241:2251   */\n  add\n    /* \"#utility.yul\":2236:2251   */\n  swap1\n  pop\n    /* \"#utility.yul\":2212:2325   */\n  jump(tag_82)\ntag_84:\n    /* \"#utility.yul\":2359:2360   */\n  0x00\n    /* \"#utility.yul\":2350:2356   */\n  dup5\n    /* \"#utility.yul\":2345:2348   */\n  dup5\n    /* \"#utility.yul\":2341:2357   */\n  add\n    /* \"#utility.yul\":2334:2361   */\n  mstore\n    /* \"#utility.yul\":2183:2367   */\n  pop\n    /* \"#utility.yul\":2121:2367   */\n  pop\n  pop\n  pop\n  jump\t// out\n    /* \"#utility.yul\":2373:2807   */\ntag_30:\n    /* \"#utility.yul\":2462:2467   */\n  0x00\n    /* \"#utility.yul\":2487:2553   */\n  tag_86\n    /* \"#utility.yul\":2503:2552   */\n  tag_87\n    /* \"#utility.yul\":2545:2551   */\n  dup5\n    /* \"#utility.yul\":2503:2552   */\n  tag_28\n  jump\t// in\ntag_87:\n    /* \"#utility.yul\":2487:2553   */\n  tag_27\n  jump\t// in\ntag_86:\n    /* \"#utility.yul\":2478:2553   */\n  swap1\n  pop\n    /* \"#utility.yul\":2576:2582   */\n  dup3\n    /* \"#utility.yul\":2569:2574   */\n  dup2\n    /* \"#utility.yul\":2562:2583   */\n  mstore\n    /* \"#utility.yul\":2614:2618   */\n  0x20\n    /* \"#utility.yul\":2607:2612   */\n  dup2\n    /* \"#utility.yul\":2603:2619   */\n  add\n    /* \"#utility.yul\":2652:2655   */\n  dup5\n    /* \"#utility.yul\":2643:2649   */\n  dup5\n    /* \"#utility.yul\":2638:2641   */\n  dup5\n    /* \"#utility.yul\":2634:2650   */\n  add\n    /* \"#utility.yul\":2631:2656   */\n  gt\n    /* \"#utility.yul\":2628:2740   */\n  iszero\n  tag_88\n  jumpi\n    /* \"#utility.yul\":2659:2738   */\n  tag_89\n  tag_23\n  jump\t// in\ntag_89:\n    /* \"#utility.yul\":2628:2740   */\ntag_88:\n    /* \"#utility.yul\":2749:2801   */\n  tag_90\n    /* \"#utility.yul\":2794:2800   */\n  dup5\n    /* \"#utility.yul\":2789:2792   */\n  dup3\n    /* \"#utility.yul\":2784:2787   */\n  dup6\n    /* \"#utility.yul\":2749:2801   */\n  tag_29\n  jump\t// in\ntag_90:\n    /* \"#utility.yul\":2468:2807   */\n  pop\n    /* \"#utility.yul\":2373:2807   */\n  swap4\n  swap3\n  pop\n  pop\n  pop\n  jump\t// out\n    /* \"#utility.yul\":2827:3182   */\ntag_31:\n    /* \"#utility.yul\":2894:2899   */\n  0x00\n    /* \"#utility.yul\":2943:2946   */\n  dup3\n    /* \"#utility.yul\":2936:2940   */\n  0x1f\n    /* \"#utility.yul\":2928:2934   */\n  dup4\n    /* \"#utility.yul\":2924:2941   */\n  add\n    /* \"#utility.yul\":2920:2947   */\n  slt\n    /* \"#utility.yul\":2910:3032   */\n  tag_92\n  jumpi\n    /* \"#utility.yul\":2951:3030   */\n  tag_93\n  tag_22\n  jump\t// in\ntag_93:\n    /* \"#utility.yul\":2910:3032   */\ntag_92:\n    /* \"#utility.yul\":3061:3067   */\n  dup2\n    /* \"#utility.yul\":3055:3068   */\n  mload\n    /* \"#utility.yul\":3086:3176   */\n  tag_94\n    /* \"#utility.yul\":3172:3175   */\n  dup5\n    /* \"#utility.yul\":3164:3170   */\n  dup3\n    /* \"#utility.yul\":3157:3161   */\n  0x20\n    /* \"#utility.yul\":3149:3155   */\n  dup7\n    /* \"#utility.yul\":3145:3162   */\n  add\n    /* \"#utility.yul\":3086:3176   */\n  tag_30\n  jump\t// in\ntag_94:\n    /* \"#utility.yul\":3077:3176   */\n  swap2\n  pop\n    /* \"#utility.yul\":2900:3182   */\n  pop\n    /* \"#utility.yul\":2827:3182   */\n  swap3\n  swap2\n  pop\n  pop\n  jump\t// out\n    /* \"#utility.yul\":3188:3265   */\ntag_32:\n    /* \"#utility.yul\":3225:3232   */\n  0x00\n    /* \"#utility.yul\":3254:3259   */\n  dup2\n    /* \"#utility.yul\":3243:3259   */\n  swap1\n  pop\n    /* \"#utility.yul\":3188:3265   */\n  swap2\n  swap1\n  pop\n  jump\t// out\n    /* \"#utility.yul\":3271:3393   */\ntag_33:\n    /* \"#utility.yul\":3344:3368   */\n  tag_97\n    /* \"#utility.yul\":3362:3367   */\n  dup2\n    /* \"#utility.yul\":3344:3368   */\n  tag_32\n  jump\t// in\ntag_97:\n    /* \"#utility.yul\":3337:3342   */\n  dup2\n    /* \"#utility.yul\":3334:3369   */\n  eq\n    /* \"#utility.yul\":3324:3387   */\n  tag_98\n  jumpi\n    /* \"#utility.yul\":3383:3384   */\n  0x00\n    /* \"#utility.yul\":3380:3381   */\n  dup1\n    /* \"#utility.yul\":3373:3385   */\n  revert\n    /* \"#utility.yul\":3324:3387   */\ntag_98:\n    /* \"#utility.yul\":3271:3393   */\n  pop\n  jump\t// out\n    /* \"#utility.yul\":3399:3542   */\ntag_34:\n    /* \"#utility.yul\":3456:3461   */\n  0x00\n    /* \"#utility.yul\":3487:3493   */\n  dup2\n    /* \"#utility.yul\":3481:3494   */\n  mload\n    /* \"#utility.yul\":3472:3494   */\n  swap1\n  pop\n    /* \"#utility.yul\":3503:3536   */\n  tag_100\n    /* \"#utility.yul\":3530:3535   */\n  dup2\n    /* \"#utility.yul\":3503:3536   */\n  tag_33\n  jump\t// in\ntag_100:\n    /* \"#utility.yul\":3399:3542   */\n  swap3\n  swap2\n  pop\n  pop\n  jump\t// out\n    /* \"#utility.yul\":3548:5185   */\ntag_3:\n    /* \"#utility.yul\":3692:3698   */\n  0x00\n    /* \"#utility.yul\":3700:3706   */\n  dup1\n    /* \"#utility.yul\":3708:3714   */\n  0x00\n    /* \"#utility.yul\":3716:3722   */\n  dup1\n    /* \"#utility.yul\":3724:3730   */\n  0x00\n    /* \"#utility.yul\":3732:3738   */\n  dup1\n    /* \"#utility.yul\":3740:3746   */\n  0x00\n    /* \"#utility.yul\":3789:3792   */\n  0xe0\n    /* \"#utility.yul\":3777:3786   */\n  dup9\n    /* \"#utility.yul\":3768:3775   */\n  dup11\n    /* \"#utility.yul\":3764:3787   */\n  sub\n    /* \"#utility.yul\":3760:3793   */\n  slt\n    /* \"#utility.yul\":3757:3877   */\n  iszero\n  tag_102\n  jumpi\n    /* \"#utility.yul\":3796:3875   */\n  tag_103\n  tag_16\n  jump\t// in\ntag_103:\n    /* \"#utility.yul\":3757:3877   */\ntag_102:\n    /* \"#utility.yul\":3916:3917   */\n  0x00\n    /* \"#utility.yul\":3941:4005   */\n  tag_104\n    /* \"#utility.yul\":3997:4004   */\n  dup11\n    /* \"#utility.yul\":3988:3994   */\n  dup3\n    /* \"#utility.yul\":3977:3986   */\n  dup12\n    /* \"#utility.yul\":3973:3995   */\n  add\n    /* \"#utility.yul\":3941:4005   */\n  tag_21\n  jump\t// in\ntag_104:\n    /* \"#utility.yul\":3931:4005   */\n  swap8\n  pop\n    /* \"#utility.yul\":3887:4015   */\n  pop\n    /* \"#utility.yul\":4054:4056   */\n  0x20\n    /* \"#utility.yul\":4080:4144   */\n  tag_105\n    /* \"#utility.yul\":4136:4143   */\n  dup11\n    /* \"#utility.yul\":4127:4133   */\n  dup3\n    /* \"#utility.yul\":4116:4125   */\n  dup12\n    /* \"#utility.yul\":4112:4134   */\n  add\n    /* \"#utility.yul\":4080:4144   */\n  tag_21\n  jump\t// in\ntag_105:\n    /* \"#utility.yul\":4070:4144   */\n  swap7\n  pop\n    /* \"#utility.yul\":4025:4154   */\n  pop\n    /* \"#utility.yul\":4214:4216   */\n  0x40\n    /* \"#utility.yul\":4203:4212   */\n  dup9\n    /* \"#utility.yul\":4199:4217   */\n  add\n    /* \"#utility.yul\":4193:4218   */\n  mload\n    /* \"#utility.yul\":4245:4263   */\n  0xffffffffffffffff\n    /* \"#utility.yul\":4237:4243   */\n  dup2\n    /* \"#utility.yul\":4234:4264   */\n  gt\n    /* \"#utility.yul\":4231:4348   */\n  iszero\n  tag_106\n  jumpi\n    /* \"#utility.yul\":4267:4346   */\n  tag_107\n  tag_17\n  jump\t// in\ntag_107:\n    /* \"#utility.yul\":4231:4348   */\ntag_106:\n    /* \"#utility.yul\":4372:4446   */\n  tag_108\n    /* \"#utility.yul\":4438:4445   */\n  dup11\n    /* \"#utility.yul\":4429:4435   */\n  dup3\n    /* \"#utility.yul\":4418:4427   */\n  dup12\n    /* \"#utility.yul\":4414:4436   */\n  add\n    /* \"#utility.yul\":4372:4446   */\n  tag_31\n  jump\t// in\ntag_108:\n    /* \"#utility.yul\":4362:4446   */\n  swap6\n  pop\n    /* \"#utility.yul\":4164:4456   */\n  pop\n    /* \"#utility.yul\":4516:4518   */\n  0x60\n    /* \"#utility.yul\":4505:4514   */\n  dup9\n    /* \"#utility.yul\":4501:4519   */\n  add\n    /* \"#utility.yul\":4495:4520   */\n  mload\n    /* \"#utility.yul\":4547:4565   */\n  0xffffffffffffffff\n    /* \"#utility.yul\":4539:4545   */\n  dup2\n    /* \"#utility.yul\":4536:4566   */\n  gt\n    /* \"#utility.yul\":4533:4650   */\n  iszero\n  tag_109\n  jumpi\n    /* \"#utility.yul\":4569:4648   */\n  tag_110\n  tag_17\n  jump\t// in\ntag_110:\n    /* \"#utility.yul\":4533:4650   */\ntag_109:\n    /* \"#utility.yul\":4674:4748   */\n  tag_111\n    /* \"#utility.yul\":4740:4747   */\n  dup11\n    /* \"#utility.yul\":4731:4737   */\n  dup3\n    /* \"#utility.yul\":4720:4729   */\n  dup12\n    /* \"#utility.yul\":4716:4738   */\n  add\n    /* \"#utility.yul\":4674:4748   */\n  tag_31\n  jump\t// in\ntag_111:\n    /* \"#utility.yul\":4664:4748   */\n  swap5\n  pop\n    /* \"#utility.yul\":4466:4758   */\n  pop\n    /* \"#utility.yul\":4797:4800   */\n  0x80\n    /* \"#utility.yul\":4824:4888   */\n  tag_112\n    /* \"#utility.yul\":4880:4887   */\n  dup11\n    /* \"#utility.yul\":4871:4877   */\n  dup3\n    /* \"#utility.yul\":4860:4869   */\n  dup12\n    /* \"#utility.yul\":4856:4878   */\n  add\n    /* \"#utility.yul\":4824:4888   */\n  tag_34\n  jump\t// in\ntag_112:\n    /* \"#utility.yul\":4814:4888   */\n  swap4\n  pop\n    /* \"#utility.yul\":4768:4898   */\n  pop\n    /* \"#utility.yul\":4937:4940   */\n  0xa0\n    /* \"#utility.yul\":4964:5028   */\n  tag_113\n    /* \"#utility.yul\":5020:5027   */\n  dup11\n    /* \"#utility.yul\":5011:5017   */\n  dup3\n    /* \"#utility.yul\":5000:5009   */\n  dup12\n    /* \"#utility.yul\":4996:5018   */\n  add\n    /* \"#utility.yul\":4964:5028   */\n  tag_34\n  jump\t// in\ntag_113:\n    /* \"#utility.yul\":4954:5028   */\n  swap3\n  pop\n    /* \"#utility.yul\":4908:5038   */\n  pop\n    /* \"#utility.yul\":5077:5080   */\n  0xc0\n    /* \"#utility.yul\":5104:5168   */\n  tag_114\n    /* \"#utility.yul\":5160:5167   */\n  dup11\n    /* \"#utility.yul\":5151:5157   */\n  dup3\n    /* \"#utility.yul\":5140:5149   */\n  dup12\n    /* \"#utility.yul\":5136:5158   */\n  add\n    /* \"#utility.yul\":5104:5168   */\n  tag_34\n  jump\t// in\ntag_114:\n    /* \"#utility.yul\":5094:5168   */\n  swap2\n  pop\n    /* \"#utility.yul\":5048:5178   */\n  pop\n    /* \"#utility.yul\":3548:5185   */\n  swap3\n  swap6\n  swap9\n  swap2\n  swap5\n  swap8\n  pop\n  swap3\n  swap6\n  pop\n  jump\t// out\n    /* \"#utility.yul\":5191:5290   */\ntag_35:\n    /* \"#utility.yul\":5243:5249   */\n  0x00\n    /* \"#utility.yul\":5277:5282   */\n  dup2\n    /* \"#utility.yul\":5271:5283   */\n  mload\n    /* \"#utility.yul\":5261:5283   */\n  swap1\n  pop\n    /* \"#utility.yul\":5191:5290   */\n  swap2\n  swap1\n  pop\n  jump\t// out\n    /* \"#utility.yul\":5296:5476   */\ntag_36:\n    /* \"#utility.yul\":5344:5421   */\n  0x4e487b7100000000000000000000000000000000000000000000000000000000\n    /* \"#utility.yul\":5341:5342   */\n  0x00\n    /* \"#utility.yul\":5334:5422   */\n  mstore\n    /* \"#utility.yul\":5441:5445   */\n  0x22\n    /* \"#utility.yul\":5438:5439   */\n  0x04\n    /* \"#utility.yul\":5431:5446   */\n  mstore\n    /* \"#utility.yul\":5465:5469   */\n  0x24\n    /* \"#utility.yul\":5462:5463   */\n  0x00\n    /* \"#utility.yul\":5455:5470   */\n  revert\n    /* \"#utility.yul\":5482:5802   */\ntag_37:\n    /* \"#utility.yul\":5526:5532   */\n  0x00\n    /* \"#utility.yul\":5563:5564   */\n  0x02\n    /* \"#utility.yul\":5557:5561   */\n  dup3\n    /* \"#utility.yul\":5553:5565   */\n  div\n    /* \"#utility.yul\":5543:5565   */\n  swap1\n  pop\n    /* \"#utility.yul\":5610:5611   */\n  0x01\n    /* \"#utility.yul\":5604:5608   */\n  dup3\n    /* \"#utility.yul\":5600:5612   */\n  and\n    /* \"#utility.yul\":5631:5649   */\n  dup1\n    /* \"#utility.yul\":5621:5702   */\n  tag_118\n  jumpi\n    /* \"#utility.yul\":5687:5691   */\n  0x7f\n    /* \"#utility.yul\":5679:5685   */\n  dup3\n    /* \"#utility.yul\":5675:5692   */\n  and\n    /* \"#utility.yul\":5665:5692   */\n  swap2\n  pop\n    /* \"#utility.yul\":5621:5702   */\ntag_118:\n    /* \"#utility.yul\":5749:5751   */\n  0x20\n    /* \"#utility.yul\":5741:5747   */\n  dup3\n    /* \"#utility.yul\":5738:5752   */\n  lt\n    /* \"#utility.yul\":5718:5736   */\n  dup2\n    /* \"#utility.yul\":5715:5753   */\n  sub\n    /* \"#utility.yul\":5712:5796   */\n  tag_119\n  jumpi\n    /* \"#utility.yul\":5768:5786   */\n  tag_120\n  tag_36\n  jump\t// in\ntag_120:\n    /* \"#utility.yul\":5712:5796   */\ntag_119:\n    /* \"#utility.yul\":5533:5802   */\n  pop\n    /* \"#utility.yul\":5482:5802   */\n  swap2\n  swap1\n  pop\n  jump\t// out\n    /* \"#utility.yul\":5808:5949   */\ntag_38:\n    /* \"#utility.yul\":5857:5861   */\n  0x00\n    /* \"#utility.yul\":5880:5883   */\n  dup2\n    /* \"#utility.yul\":5872:5883   */\n  swap1\n  pop\n    /* \"#utility.yul\":5903:5906   */\n  dup2\n    /* \"#utility.yul\":5900:5901   */\n  0x00\n    /* \"#utility.yul\":5893:5907   */\n  mstore\n    /* \"#utility.yul\":5937:5941   */\n  0x20\n    /* \"#utility.yul\":5934:5935   */\n  0x00\n    /* \"#utility.yul\":5924:5942   */\n  keccak256\n    /* \"#utility.yul\":5916:5942   */\n  swap1\n  pop\n    /* \"#utility.yul\":5808:5949   */\n  swap2\n  swap1\n  pop\n  jump\t// out\n    /* \"#utility.yul\":5955:6048   */\ntag_39:\n    /* \"#utility.yul\":5992:5998   */\n  0x00\n    /* \"#utility.yul\":6039:6041   */\n  0x20\n    /* \"#utility.yul\":6034:6036   */\n  0x1f\n    /* \"#utility.yul\":6027:6032   */\n  dup4\n    /* \"#utility.yul\":6023:6037   */\n  add\n    /* \"#utility.yul\":6019:6042   */\n  div\n    /* \"#utility.yul\":6009:6042   */\n  swap1\n  pop\n    /* \"#utility.yul\":5955:6048   */\n  swap2\n  swap1\n  pop\n  jump\t// out\n    /* \"#utility.yul\":6054:6161   */\ntag_40:\n    /* \"#utility.yul\":6098:6106   */\n  0x00\n    /* \"#utility.yul\":6148:6153   */\n  dup3\n    /* \"#utility.yul\":6142:6146   */\n  dup3\n    /* \"#utility.yul\":6138:6154   */\n  shl\n    /* \"#utility.yul\":6117:6154   */\n  swap1\n  pop\n    /* \"#utility.yul\":6054:6161   */\n  swap3\n  swap2\n  pop\n  pop\n  jump\t// out\n    /* \"#utility.yul\":6167:6560   */\ntag_41:\n    /* \"#utility.yul\":6236:6242   */\n  0x00\n    /* \"#utility.yul\":6286:6287   */\n  0x08\n    /* \"#utility.yul\":6274:6284   */\n  dup4\n    /* \"#utility.yul\":6270:6288   */\n  mul\n    /* \"#utility.yul\":6309:6406   */\n  tag_125\n    /* \"#utility.yul\":6339:6405   */\n  0xffffffffffffffffffffffffffffffffffffffffffffffffffffffffffffffff\n    /* \"#utility.yul\":6328:6337   */\n  dup3\n    /* \"#utility.yul\":6309:6406   */\n  tag_40\n  jump\t// in\ntag_125:\n    /* \"#utility.yul\":6427:6466   */\n  tag_126\n    /* \"#utility.yul\":6457:6465   */\n  dup7\n    /* \"#utility.yul\":6446:6455   */\n  dup4\n    /* \"#utility.yul\":6427:6466   */\n  tag_40\n  jump\t// in\ntag_126:\n    /* \"#utility.yul\":6415:6466   */\n  swap6\n  pop\n    /* \"#utility.yul\":6499:6503   */\n  dup1\n    /* \"#utility.yul\":6495:6504   */\n  not\n    /* \"#utility.yul\":6488:6493   */\n  dup5\n    /* \"#utility.yul\":6484:6505   */\n  and\n    /* \"#utility.yul\":6475:6505   */\n  swap4\n  pop\n    /* \"#utility.yul\":6548:6552   */\n  dup1\n    /* \"#utility.yul\":6538:6546   */\n  dup7\n    /* \"#utility.yul\":6534:6553   */\n  and\n    /* \"#utility.yul\":6527:6532   */\n  dup5\n    /* \"#utility.yul\":6524:6554   */\n  or\n    /* \"#utility.yul\":6514:6554   */\n  swap3\n  pop\n    /* \"#utility.yul\":6243:6560   */\n  pop\n  pop\n    /* \"#utility.yul\":6167:6560   */\n  swap4\n  swap3\n  pop\n  pop\n  pop\n  jump\t// out\n    /* \"#utility.yul\":6566:6626   */\ntag_42:\n    /* \"#utility.yul\":6594:6597   */\n  0x00\n    /* \"#utility.yul\":6615:6620   */\n  dup2\n    /* \"#utility.yul\":6608:6620   */\n  swap1\n  pop\n    /* \"#utility.yul\":6566:6626   */\n  swap2\n  swap1\n  pop\n  jump\t// out\n    /* \"#utility.yul\":6632:6774   */\ntag_43:\n    /* \"#utility.yul\":6682:6691   */\n  0x00\n    /* \"#utility.yul\":6715:6768   */\n  tag_129\n    /* \"#utility.yul\":6733:6767   */\n  tag_130\n    /* \"#utility.yul\":6742:6766   */\n  tag_131\n    /* \"#utility.yul\":6760:6765   */\n  dup5\n    /* \"#utility.yul\":6742:6766   */\n  tag_32\n  jump\t// in\ntag_131:\n    /* \"#utility.yul\":6733:6767   */\n  tag_42\n  jump\t// in\ntag_130:\n    /* \"#utility.yul\":6715:6768   */\n  tag_32\n  jump\t// in\ntag_129:\n    /* \"#utility.yul\":6702:6768   */\n  swap1\n  pop\n    /* \"#utility.yul\":6632:6774   */\n  swap2\n  swap1\n  pop\n  jump\t// out\n    /* \"#utility.yul\":6780:6855   */\ntag_44:\n    /* \"#utility.yul\":6823:6826   */\n  0x00\n    /* \"#utility.yul\":6844:6849   */\n  dup2\n    /* \"#utility.yul\":6837:6849   */\n  swap1\n  pop\n    /* \"#utility.yul\":6780:6855   */\n  swap2\n  swap1\n  pop\n  jump\t// out\n    /* \"#utility.yul\":6861:7130   */\ntag_45:\n    /* \"#utility.yul\":6971:7010   */\n  tag_134\n    /* \"#utility.yul\":7002:7009   */\n  dup4\n    /* \"#utility.yul\":6971:7010   */\n  tag_43\n  jump\t// in\ntag_134:\n    /* \"#utility.yul\":7032:7123   */\n  tag_135\n    /* \"#utility.yul\":7081:7122   */\n  tag_136\n    /* \"#utility.yul\":7105:7121   */\n  dup3\n    /* \"#utility.yul\":7081:7122   */\n  tag_44\n  jump\t// in\ntag_136:\n    /* \"#utility.yul\":7073:7079   */\n  dup5\n    /* \"#utility.yul\":7066:7070   */\n  dup5\n    /* \"#utility.yul\":7060:7071   */\n  sload\n    /* \"#utility.yul\":7032:7123   */\n  tag_41\n  jump\t// in\ntag_135:\n    /* \"#utility.yul\":7026:7030   */\n  dup3\n    /* \"#utility.yul\":7019:7124   */\n  sstore\n    /* \"#utility.yul\":6937:7130   */\n  pop\n    /* \"#utility.yul\":6861:7130   */\n  pop\n  pop\n  pop\n  jump\t// out\n    /* \"#utility.yul\":7136:7209   */\ntag_46:\n    /* \"#utility.yul\":7181:7184   */\n  0x00\n    /* \"#utility.yul\":7136:7209   */\n  swap1\n  jump\t// out\n    /* \"#utility.yul\":7215:7404   */\ntag_47:\n    /* \"#utility.yul\":7292:7324   */\n  tag_139\n  tag_46\n  jump\t// in\ntag_139:\n    /* \"#utility.yul\":7333:7398   */\n  tag_140\n    /* \"#utility.yul\":7391:7397   */\n  dup2\n    /* \"#utility.yul\":7383:7389   */\n  dup5\n    /* \"#utility.yul\":7377:7381   */\n  dup5\n    /* \"#utility.yul\":7333:7398   */\n  tag_45\n  jump\t// in\ntag_140:\n    /* \"#utility.yul\":7268:7404   */\n  pop\n    /* \"#utility.yul\":7215:7404   */\n  pop\n  pop\n  jump\t// out\n    /* \"#utility.yul\":7410:7596   */\ntag_48:\n    /* \"#utility.yul\":7470:7590   */\ntag_142:\n    /* \"#utility.yul\":7487:7490   */\n  dup2\n    /* \"#utility.yul\":7480:7485   */\n  dup2\n    /* \"#utility.yul\":7477:7491   */\n  lt\n    /* \"#utility.yul\":7470:7590   */\n  iszero\n  tag_144\n  jumpi\n    /* \"#utility.yul\":7541:7580   */\n  tag_145\n    /* \"#utility.yul\":7578:7579   */\n  0x00\n    /* \"#utility.yul\":7571:7576   */\n  dup3\n    /* \"#utility.yul\":7541:7580   */\n  tag_47\n  jump\t// in\ntag_145:\n    /* \"#utility.yul\":7514:7515   */\n  0x01\n    /* \"#utility.yul\":7507:7512   */\n  dup2\n    /* \"#utility.yul\":7503:7516   */\n  add\n    /* \"#utility.yul\":7494:7516   */\n  swap1\n  pop\n    /* \"#utility.yul\":7470:7590   */\n  jump(tag_142)\ntag_144:\n    /* \"#utility.yul\":7410:7596   */\n  pop\n  pop\n  jump\t// out\n    /* \"#utility.yul\":7602:8145   */\ntag_49:\n    /* \"#utility.yul\":7703:7705   */\n  0x1f\n    /* \"#utility.yul\":7698:7701   */\n  dup3\n    /* \"#utility.yul\":7695:7706   */\n  gt\n    /* \"#utility.yul\":7692:8138   */\n  iszero\n  tag_147\n  jumpi\n    /* \"#utility.yul\":7737:7775   */\n  tag_148\n    /* \"#utility.yul\":7769:7774   */\n  dup2\n    /* \"#utility.yul\":7737:7775   */\n  tag_38\n  jump\t// in\ntag_148:\n    /* \"#utility.yul\":7821:7850   */\n  tag_149\n    /* \"#utility.yul\":7839:7849   */\n  dup5\n    /* \"#utility.yul\":7821:7850   */\n  tag_39\n  jump\t// in\ntag_149:\n    /* \"#utility.yul\":7811:7819   */\n  dup2\n    /* \"#utility.yul\":7807:7851   */\n  add\n    /* \"#utility.yul\":8004:8006   */\n  0x20\n    /* \"#utility.yul\":7992:8002   */\n  dup6\n    /* \"#utility.yul\":7989:8007   */\n  lt\n    /* \"#utility.yul\":7986:8035   */\n  iszero\n  tag_150\n  jumpi\n    /* \"#utility.yul\":8025:8033   */\n  dup2\n    /* \"#utility.yul\":8010:8033   */\n  swap1\n  pop\n    /* \"#utility.yul\":7986:8035   */\ntag_150:\n    /* \"#utility.yul\":8048:8128   */\n  tag_151\n    /* \"#utility.yul\":8104:8126   */\n  tag_152\n    /* \"#utility.yul\":8122:8125   */\n  dup6\n    /* \"#utility.yul\":8104:8126   */\n  tag_39\n  jump\t// in\ntag_152:\n    /* \"#utility.yul\":8094:8102   */\n  dup4\n    /* \"#utility.yul\":8090:8127   */\n  add\n    /* \"#utility.yul\":8077:8088   */\n  dup3\n    /* \"#utility.yul\":8048:8128   */\n  tag_48\n  jump\t// in\ntag_151:\n    /* \"#utility.yul\":7707:8138   */\n  pop\n  pop\n    /* \"#utility.yul\":7692:8138   */\ntag_147:\n    /* \"#utility.yul\":7602:8145   */\n  pop\n  pop\n  pop\n  jump\t// out\n    /* \"#utility.yul\":8151:8268   */\ntag_50:\n    /* \"#utility.yul\":8205:8213   */\n  0x00\n    /* \"#utility.yul\":8255:8260   */\n  dup3\n    /* \"#utility.yul\":8249:8253   */\n  dup3\n    /* \"#utility.yul\":8245:8261   */\n  shr\n    /* \"#utility.yul\":8224:8261   */\n  swap1\n  pop\n    /* \"#utility.yul\":8151:8268   */\n  swap3\n  swap2\n  pop\n  pop\n  jump\t// out\n    /* \"#utility.yul\":8274:8443   */\ntag_51:\n    /* \"#utility.yul\":8318:8324   */\n  0x00\n    /* \"#utility.yul\":8351:8402   */\n  tag_155\n    /* \"#utility.yul\":8399:8400   */\n  0x00\n    /* \"#utility.yul\":8395:8401   */\n  not\n    /* \"#utility.yul\":8387:8392   */\n  dup5\n    /* \"#utility.yul\":8384:8385   */\n  0x08\n    /* \"#utility.yul\":8380:8393   */\n  mul\n    /* \"#utility.yul\":8351:8402   */\n  tag_50\n  jump\t// in\ntag_155:\n    /* \"#utility.yul\":8347:8403   */\n  not\n    /* \"#utility.yul\":8432:8436   */\n  dup1\n    /* \"#utility.yul\":8426:8430   */\n  dup4\n    /* \"#utility.yul\":8422:8437   */\n  and\n    /* \"#utility.yul\":8412:8437   */\n  swap2\n  pop\n    /* \"#utility.yul\":8325:8443   */\n  pop\n    /* \"#utility.yul\":8274:8443   */\n  swap3\n  swap2\n  pop\n  pop\n  jump\t// out\n    /* \"#utility.yul\":8448:8743   */\ntag_52:\n    /* \"#utility.yul\":8524:8528   */\n  0x00\n    /* \"#utility.yul\":8670:8699   */\n  tag_157\n    /* \"#utility.yul\":8695:8698   */\n  dup4\n    /* \"#utility.yul\":8689:8693   */\n  dup4\n    /* \"#utility.yul\":8670:8699   */\n  tag_51\n  jump\t// in\ntag_157:\n    /* \"#utility.yul\":8662:8699   */\n  swap2\n  pop\n    /* \"#utility.yul\":8732:8735   */\n  dup3\n    /* \"#utility.yul\":8729:8730   */\n  0x02\n    /* \"#utility.yul\":8725:8736   */\n  mul\n    /* \"#utility.yul\":8719:8723   */\n  dup3\n    /* \"#utility.yul\":8716:8737   */\n  or\n    /* \"#utility.yul\":8708:8737   */\n  swap1\n  pop\n    /* \"#utility.yul\":8448:8743   */\n  swap3\n  swap2\n  pop\n  pop\n  jump\t// out\n    /* \"#utility.yul\":8748:10143   */\ntag_7:\n    /* \"#utility.yul\":8865:8902   */\n  tag_159\n    /* \"#utility.yul\":8898:8901   */\n  dup3\n    /* \"#utility.yul\":8865:8902   */\n  tag_35\n  jump\t// in\ntag_159:\n    /* \"#utility.yul\":8967:8985   */\n  0xffffffffffffffff\n    /* \"#utility.yul\":8959:8965   */\n  dup2\n    /* \"#utility.yul\":8956:8986   */\n  gt\n    /* \"#utility.yul\":8953:9009   */\n  iszero\n  tag_160\n  jumpi\n    /* \"#utility.yul\":8989:9007   */\n  tag_161\n  tag_25\n  jump\t// in\ntag_161:\n    /* \"#utility.yul\":8953:9009   */\ntag_160:\n    /* \"#utility.yul\":9033:9071   */\n  tag_162\n    /* \"#utility.yul\":9065:9069   */\n  dup3\n    /* \"#utility.yul\":9059:9070   */\n  sload\n    /* \"#utility.yul\":9033:9071   */\n  tag_37\n  jump\t// in\ntag_162:\n    /* \"#utility.yul\":9118:9185   */\n  tag_163\n    /* \"#utility.yul\":9178:9184   */\n  dup3\n    /* \"#utility.yul\":9170:9176   */\n  dup3\n    /* \"#utility.yul\":9164:9168   */\n  dup6\n    /* \"#utility.yul\":9118:9185   */\n  tag_49\n  jump\t// in\ntag_163:\n    /* \"#utility.yul\":9212:9213   */\n  0x00\n    /* \"#utility.yul\":9236:9240   */\n  0x20\n    /* \"#utility.yul\":9223:9240   */\n  swap1\n  pop\n    /* \"#utility.yul\":9268:9270   */\n  0x1f\n    /* \"#utility.yul\":9260:9266   */\n  dup4\n    /* \"#utility.yul\":9257:9271   */\n  gt\n    /* \"#utility.yul\":9285:9286   */\n  0x01\n    /* \"#utility.yul\":9280:9898   */\n  dup2\n  eq\n  tag_165\n  jumpi\n    /* \"#utility.yul\":9942:9943   */\n  0x00\n    /* \"#utility.yul\":9959:9965   */\n  dup5\n    /* \"#utility.yul\":9956:10033   */\n  iszero\n  tag_166\n  jumpi\n    /* \"#utility.yul\":10008:10017   */\n  dup3\n    /* \"#utility.yul\":10003:10006   */\n  dup8\n    /* \"#utility.yul\":9999:10018   */\n  add\n    /* \"#utility.yul\":9993:10019   */\n  mload\n    /* \"#utility.yul\":9984:10019   */\n  swap1\n  pop\n    /* \"#utility.yul\":9956:10033   */\ntag_166:\n    /* \"#utility.yul\":10059:10126   */\n  tag_167\n    /* \"#utility.yul\":10119:10125   */\n  dup6\n    /* \"#utility.yul\":10112:10117   */\n  dup3\n    /* \"#utility.yul\":10059:10126   */\n  tag_52\n  jump\t// in\ntag_167:\n    /* \"#utility.yul\":10053:10057   */\n  dup7\n    /* \"#utility.yul\":10046:10127   */\n  sstore\n    /* \"#utility.yul\":9915:10137   */\n  pop\n    /* \"#utility.yul\":9250:10137   */\n  jump(tag_164)\n    /* \"#utility.yul\":9280:9898   */\ntag_165:\n    /* \"#utility.yul\":9332:9336   */\n  0x1f\n    /* \"#utility.yul\":9328:9337   */\n  not\n    /* \"#utility.yul\":9320:9326   */\n  dup5\n    /* \"#utility.yul\":9316:9338   */\n  and\n    /* \"#utility.yul\":9366:9403   */\n  tag_168\n    /* \"#utility.yul\":9398:9402   */\n  dup7\n    /* \"#utility.yul\":9366:9403   */\n  tag_38\n  jump\t// in\ntag_168:\n    /* \"#utility.yul\":9425:9426   */\n  0x00\n    /* \"#utility.yul\":9439:9647   */\ntag_169:\n    /* \"#utility.yul\":9453:9460   */\n  dup3\n    /* \"#utility.yul\":9450:9451   */\n  dup2\n    /* \"#utility.yul\":9447:9461   */\n  lt\n    /* \"#utility.yul\":9439:9647   */\n  iszero\n  tag_171\n  jumpi\n    /* \"#utility.yul\":9532:9541   */\n  dup5\n    /* \"#utility.yul\":9527:9530   */\n  dup10\n    /* \"#utility.yul\":9523:9542   */\n  add\n    /* \"#utility.yul\":9517:9543   */\n  mload\n    /* \"#utility.yul\":9509:9515   */\n  dup3\n    /* \"#utility.yul\":9502:9544   */\n  sstore\n    /* \"#utility.yul\":9583:9584   */\n  0x01\n    /* \"#utility.yul\":9575:9581   */\n  dup3\n    /* \"#utility.yul\":9571:9585   */\n  add\n    /* \"#utility.yul\":9561:9585   */\n  swap2\n  pop\n    /* \"#utility.yul\":9630:9632   */\n  0x20\n    /* \"#utility.yul\":9619:9628   */\n  dup6\n    /* \"#utility.yul\":9615:9633   */\n  add\n    /* \"#utility.yul\":9602:9633   */\n  swap5\n  pop\n    /* \"#utility.yul\":9476:9480   */\n  0x20\n    /* \"#utility.yul\":9473:9474   */\n  dup2\n    /* \"#utility.yul\":9469:9481   */\n  add\n    /* \"#utility.yul\":9464:9481   */\n  swap1\n  pop\n    /* \"#utility.yul\":9439:9647   */\n  jump(tag_169)\ntag_171:\n    /* \"#utility.yul\":9675:9681   */\n  dup7\n    /* \"#utility.yul\":9666:9673   */\n  dup4\n    /* \"#utility.yul\":9663:9682   */\n  lt\n    /* \"#utility.yul\":9660:9839   */\n  iszero\n  tag_172\n  jumpi\n    /* \"#utility.yul\":9733:9742   */\n  dup5\n    /* \"#utility.yul\":9728:9731   */\n  dup10\n    /* \"#utility.yul\":9724:9743   */\n  add\n    /* \"#utility.yul\":9718:9744   */\n  mload\n    /* \"#utility.yul\":9776:9824   */\n  tag_173\n    /* \"#utility.yul\":9818:9822   */\n  0x1f\n    /* \"#utility.yul\":9810:9816   */\n  dup10\n    /* \"#utility.yul\":9806:9823   */\n  and\n    /* \"#utility.yul\":9795:9804   */\n  dup3\n    /* \"#utility.yul\":9776:9824   */\n  tag_51\n  jump\t// in\ntag_173:\n    /* \"#utility.yul\":9768:9774   */\n  dup4\n    /* \"#utility.yul\":9761:9825   */\n  sstore\n    /* \"#utility.yul\":9683:9839   */\n  pop\n    /* \"#utility.yul\":9660:9839   */\ntag_172:\n    /* \"#utility.yul\":9885:9886   */\n  0x01\n    /* \"#utility.yul\":9881:9882   */\n  0x02\n    /* \"#utility.yul\":9873:9879   */\n  dup9\n    /* \"#utility.yul\":9869:9883   */\n  mul\n    /* \"#utility.yul\":9865:9887   */\n  add\n    /* \"#utility.yul\":9859:9863   */\n  dup9\n    /* \"#utility.yul\":9852:9888   */\n  sstore\n    /* \"#utility.yul\":9287:9898   */\n  pop\n  pop\n  pop\n    /* \"#utility.yul\":9250:10137   */\ntag_164:\n  pop\n    /* \"#utility.yul\":8840:10143   */\n  pop\n  pop\n  pop\n    /* \"#utility.yul\":8748:10143   */\n  pop\n  pop\n  jump\t// out\n    /* \"#utility.yul\":10149:10329   */\ntag_53:\n    /* \"#utility.yul\":10197:10274   */\n  0x4e487b7100000000000000000000000000000000000000000000000000000000\n    /* \"#utility.yul\":10194:10195   */\n  0x00\n    /* \"#utility.yul\":10187:10275   */\n  mstore\n    /* \"#utility.yul\":10294:10298   */\n  0x11\n    /* \"#utility.yul\":10291:10292   */\n  0x04\n    /* \"#utility.yul\":10284:10299   */\n  mstore\n    /* \"#utility.yul\":10318:10322   */\n  0x24\n    /* \"#utility.yul\":10315:10316   */\n  0x00\n    /* \"#utility.yul\":10308:10323   */\n  revert\n    /* \"#utility.yul\":10335:10526   */\ntag_10:\n    /* \"#utility.yul\":10375:10378   */\n  0x00\n    /* \"#utility.yul\":10394:10414   */\n  tag_176\n    /* \"#utility.yul\":10412:10413   */\n  dup3\n    /* \"#utility.yul\":10394:10414   */\n  tag_32\n  jump\t// in\ntag_176:\n    /* \"#utility.yul\":10389:10414   */\n  swap2\n  pop\n    /* \"#utility.yul\":10428:10448   */\n  tag_177\n    /* \"#utility.yul\":10446:10447   */\n  dup4\n    /* \"#utility.yul\":10428:10448   */\n  tag_32\n  jump\t// in\ntag_177:\n    /* \"#utility.yul\":10423:10448   */\n  swap3\n  pop\n    /* \"#utility.yul\":10471:10472   */\n  dup3\n    /* \"#utility.yul\":10468:10469   */\n  dup3\n    /* \"#utility.yul\":10464:10473   */\n  add\n    /* \"#utility.yul\":10457:10473   */\n  swap1\n  pop\n    /* \"#utility.yul\":10492:10495   */\n  dup1\n    /* \"#utility.yul\":10489:10490   */\n  dup3\n    /* \"#utility.yul\":10486:10496   */\n  gt\n    /* \"#utility.yul\":10483:10519   */\n  iszero\n  tag_178\n  jumpi\n    /* \"#utility.yul\":10499:10517   */\n  tag_179\n  tag_53\n  jump\t// in\ntag_179:\n    /* \"#utility.yul\":10483:10519   */\ntag_178:\n    /* \"#utility.yul\":10335:10526   */\n  swap3\n  swap2\n  pop\n  pop\n  jump\t// out\n    /* \"#utility.yul\":10532:10712   */\ntag_13:\n    /* \"#utility.yul\":10580:10657   */\n  0x4e487b7100000000000000000000000000000000000000000000000000000000\n    /* \"#utility.yul\":10577:10578   */\n  0x00\n    /* \"#utility.yul\":10570:10658   */\n  mstore\n    /* \"#utility.yul\":10677:10681   */\n  0x21\n    /* \"#utility.yul\":10674:10675   */\n  0x04\n    /* \"#utility.yul\":10667:10682   */\n  mstore\n    /* \"#utility.yul\":10701:10705   */\n  0x24\n    /* \"#utility.yul\":10698:10699   */\n  0x00\n    /* \"#utility.yul\":10691:10706   */\n  revert\n    /* \"Project.sol\":57:4061  contract Project {... */\ntag_14:\n  dataSize(sub_0)\n  dup1\n  dataOffset(sub_0)\n  0x00\n  codecopy\n  0x00\n  return\nstop\n\nsub_0: assembly {\n        /* \"Project.sol\":57:4061  contract Project {... */\n      mstore(0x40, 0x80)\n      jumpi(tag_1, lt(calldatasize, 0x04))\n      shr(0xe0, calldataload(0x00))\n      dup1\n      0xc19d93fb\n      gt\n      tag_17\n      jumpi\n      dup1\n      0xe1aa1bcc\n      gt\n      tag_18\n      jumpi\n      dup1\n      0xe1aa1bcc\n      eq\n      tag_13\n      jumpi\n      dup1\n      0xf0ea4bfc\n      eq\n      tag_14\n      jumpi\n      dup1\n      0xf6b58310\n      eq\n      tag_15\n      jumpi\n      dup1\n      0xf7260d3e\n      eq\n      tag_16\n      jumpi\n      jump(tag_1)\n    tag_18:\n      dup1\n      0xc19d93fb\n      eq\n      tag_9\n      jumpi\n      dup1\n      0xcc6cb19a\n      eq\n      tag_10\n      jumpi\n      dup1\n      0xd886cab9\n      eq\n      tag_11\n      jumpi\n      dup1\n      0xd8d79700\n      eq\n      tag_12\n      jumpi\n      jump(tag_1)\n    tag_17:\n      dup1\n      0x40193883\n      gt\n      tag_19\n      jumpi\n      dup1\n      0x40193883\n      eq\n      tag_5\n      jumpi\n      dup1\n      0x7284e416\n      eq\n      tag_6\n      jumpi\n      dup1\n      0x796b23bb\n      eq\n      tag_7\n      jumpi\n      dup1\n      0xad3bf1f1\n      eq\n      tag_8\n      jumpi\n      jump(tag_1)\n    tag_19:\n      dup1\n      0x02d05d3f\n      eq\n      tag_2\n      jumpi\n      dup1\n      0x06fdde03\n      eq\n      tag_3\n      jumpi\n      dup1\n      0x278ecde1\n      eq\n      tag_4\n      jumpi\n    tag_1:\n      0x00\n      dup1\n      revert\n        /* \"Project.sol\":264:286  address public creator */\n    tag_2:\n      callvalue\n      dup1\n      iszero\n      tag_20\n      jumpi\n      0x00\n      dup1\n      revert\n    tag_20:\n      pop\n      tag_21\n      tag_22\n      jump\t// in\n    tag_21:\n      mload(0x40)\n      tag_23\n      swap2\n      swap1\n      tag_24\n      jump\t// in\n    tag_23:\n      mload(0x40)\n      dup1\n      swap2\n      sub\n      swap1\n      return\n        /* \"Project.sol\":321:339  string public name */\n    tag_3:\n      callvalue\n      dup1\n      iszero\n      tag_25\n      jumpi\n      0x00\n      dup1\n      revert\n    tag_25:\n      pop\n      tag_26\n      tag_27\n      jump\t// in\n    tag_26:\n      mload(0x40)\n      tag_28\n      swap2\n      swap1\n      tag_29\n      jump\t// in\n    tag_28:\n      mload(0x40)\n      dup1\n      swap2\n      sub\n      swap1\n      return\n        /* \"Project.sol\":2618:3232  function refund(uint256 amount) external payable {... */\n    tag_4:\n      tag_30\n      0x04\n      dup1\n      calldatasize\n      sub\n      dup2\n      add\n      swap1\n      tag_31\n      swap2\n      swap1\n      tag_32\n      jump\t// in\n    tag_31:\n      tag_33\n      jump\t// in\n    tag_30:\n      stop\n        /* \"Project.sol\":376:395  uint256 public goal */\n    tag_5:\n      callvalue\n      dup1\n      iszero\n      tag_34\n      jumpi\n      0x00\n      dup1\n      revert\n    tag_34:\n      pop\n      tag_35\n      tag_36\n      jump\t// in\n    tag_35:\n      mload(0x40)\n      tag_37\n      swap2\n      swap1\n      tag_38\n      jump\t// in\n    tag_37:\n      mload(0x40)\n      dup1\n      swap2\n      sub\n      swap1\n      return\n        /* \"Project.sol\":345:370  string public description */\n    tag_6:\n      callvalue\n      dup1\n      iszero\n      tag_39\n      jumpi\n      0x00\n      dup1\n      revert\n    tag_39:\n      pop\n      tag_40\n      tag_41\n      jump\t// in\n    tag_40:\n      mload(0x40)\n      tag_42\n      swap2\n      swap1\n      tag_29\n      jump\t// in\n    tag_42:\n      mload(0x40)\n      dup1\n      swap2\n      sub\n      swap1\n      return\n        /* \"Project.sol\":485:515  uint256 public fundingDeadline */\n    tag_7:\n      callvalue\n      dup1\n      iszero\n      tag_43\n      jumpi\n      0x00\n      dup1\n      revert\n    tag_43:\n      pop\n      tag_44\n      tag_45\n      jump\t// in\n    tag_44:\n      mload(0x40)\n      tag_46\n      swap2\n      swap1\n      tag_38\n      jump\t// in\n    tag_46:\n      mload(0x40)\n      dup1\n      swap2\n      sub\n      swap1\n      return\n        /* \"Project.sol\":3238:3682  function refundPeriodOver() external {... */\n    tag_8:\n      callvalue\n      dup1\n      iszero\n      tag_47\n      jumpi\n      0x00\n      dup1\n      revert\n    tag_47:\n      pop\n      tag_48\n      tag_49\n      jump\t// in\n    tag_48:\n      stop\n        /* \"Project.sol\":556:574  State public state */\n    tag_9:\n      callvalue\n      dup1\n      iszero\n      tag_50\n      jumpi\n      0x00\n      dup1\n      revert\n    tag_50:\n      pop\n      tag_51\n      tag_52\n      jump\t// in\n    tag_51:\n      mload(0x40)\n      tag_53\n      swap2\n      swap1\n      tag_54\n      jump\t// in\n    tag_53:\n      mload(0x40)\n      dup1\n      swap2\n      sub\n      swap1\n      return\n        /* \"Project.sol\":668:713  mapping(address => Donation) public donations */\n    tag_10:\n      callvalue\n      dup1\n      iszero\n      tag_55\n      jumpi\n      0x00\n      dup1\n      revert\n    tag_55:\n      pop\n      tag_56\n      0x04\n      dup1\n      calldatasize\n      sub\n      dup2\n      add\n      swap1\n      tag_57\n      swap2\n      swap1\n      tag_58\n      jump\t// in\n    tag_57:\n      tag_59\n      jump\t// in\n    tag_56:\n      mload(0x40)\n      tag_60\n      swap3\n      swap2\n      swap1\n      tag_61\n      jump\t// in\n    tag_60:\n      mload(0x40)\n      dup1\n      swap2\n      sub\n      swap1\n      return\n        /* \"Project.sol\":2124:2612  function targetNotHit() external {... */\n    tag_11:\n      callvalue\n      dup1\n      iszero\n      tag_62\n      jumpi\n      0x00\n      dup1\n      revert\n    tag_62:\n      pop\n      tag_63\n      tag_64\n      jump\t// in\n    tag_63:\n      stop\n        /* \"Project.sol\":3688:4059  function makePayment() external payable {... */\n    tag_12:\n      tag_65\n      tag_66\n      jump\t// in\n    tag_65:\n      stop\n        /* \"Project.sol\":521:550  uint256 public refundDeadline */\n    tag_13:\n      callvalue\n      dup1\n      iszero\n      tag_67\n      jumpi\n      0x00\n      dup1\n      revert\n    tag_67:\n      pop\n      tag_68\n      tag_69\n      jump\t// in\n    tag_68:\n      mload(0x40)\n      tag_70\n      swap2\n      swap1\n      tag_38\n      jump\t// in\n    tag_70:\n      mload(0x40)\n      dup1\n      swap2\n      sub\n      swap1\n      return\n        /* \"Project.sol\":401:422  uint256 public raised */\n    tag_14:\n      callvalue\n      dup1\n      iszero\n      tag_71\n      jumpi\n      0x00\n      dup1\n      revert\n    tag_71:\n      pop\n      tag_72\n      tag_73\n      jump\t// in\n    tag_72:\n      mload(0x40)\n      tag_74\n      swap2\n      swap1\n      tag_38\n      jump\t// in\n    tag_74:\n      mload(0x40)\n      dup1\n      swap2\n      sub\n      swap1\n      return\n        /* \"Project.sol\":1302:2118  function donateToProject(string memory message) external payable {... */\n    tag_15:\n      tag_75\n      0x04\n      dup1\n      calldatasize\n      sub\n      dup2\n      add\n      swap1\n      tag_76\n      swap2\n      swap1\n      tag_77\n      jump\t// in\n    tag_76:\n      tag_78\n      jump\t// in\n    tag_75:\n      stop\n        /* \"Project.sol\":292:315  address public receiver */\n    tag_16:\n      callvalue\n      dup1\n      iszero\n      tag_79\n      jumpi\n      0x00\n      dup1\n      revert\n    tag_79:\n      pop\n      tag_80\n      tag_81\n      jump\t// in\n    tag_80:\n      mload(0x40)\n      tag_82\n      swap2\n      swap1\n      tag_24\n      jump\t// in\n    tag_82:\n      mload(0x40)\n      dup1\n      swap2\n      sub\n      swap1\n      return\n        /* \"Project.sol\":264:286  address public creator */\n    tag_22:\n      0x00\n      dup1\n      sload\n      swap1\n      0x0100\n      exp\n      swap1\n      div\n      0xffffffffffffffffffffffffffffffffffffffff\n      and\n      dup2\n      jump\t// out\n        /* \"Project.sol\":321:339  string public name */\n    tag_27:\n      0x02\n      dup1\n      sload\n      tag_83\n      swap1\n      tag_84\n      jump\t// in\n    tag_83:\n      dup1\n      0x1f\n      add\n      0x20\n      dup1\n      swap2\n      div\n      mul\n      0x20\n      add\n      mload(0x40)\n      swap1\n      dup2\n      add\n      0x40\n      mstore\n      dup1\n      swap3\n      swap2\n      swap1\n      dup2\n      dup2\n      mstore\n      0x20\n      add\n      dup3\n      dup1\n      sload\n      tag_85\n      swap1\n      tag_84\n      jump\t// in\n    tag_85:\n      dup1\n      iszero\n      tag_86\n      jumpi\n      dup1\n      0x1f\n      lt\n      tag_87\n      jumpi\n      0x0100\n      dup1\n      dup4\n      sload\n      div\n      mul\n      dup4\n      mstore\n      swap2\n      0x20\n      add\n      swap2\n      jump(tag_86)\n    tag_87:\n      dup3\n      add\n      swap2\n      swap1\n      0x00\n      mstore\n      keccak256(0x00, 0x20)\n      swap1\n    tag_88:\n      dup2\n      sload\n      dup2\n      mstore\n      swap1\n      0x01\n      add\n      swap1\n      0x20\n      add\n      dup1\n      dup4\n      gt\n      tag_88\n      jumpi\n      dup3\n      swap1\n      sub\n      0x1f\n      and\n      dup3\n      add\n      swap2\n    tag_86:\n      pop\n      pop\n      pop\n      pop\n      pop\n      dup2\n      jump\t// out\n        /* \"Project.sol\":2618:3232  function refund(uint256 amount) external payable {... */\n    tag_33:\n        /* \"Project.sol\":2677:2690  uint256 toPay */\n      0x00\n        /* \"Project.sol\":2702:2708  1 gwei */\n      0x3b9aca00\n        /* \"Project.sol\":2693:2699  amount */\n      dup3\n        /* \"Project.sol\":2693:2708  amount * 1 gwei */\n      tag_90\n      swap2\n      swap1\n      tag_91\n      jump\t// in\n    tag_90:\n        /* \"Project.sol\":2677:2708  uint256 toPay = amount * 1 gwei */\n      swap1\n      pop\n        /* \"Project.sol\":2718:2743  Donation storage donation */\n      0x00\n        /* \"Project.sol\":2746:2755  donations */\n      0x0d\n        /* \"Project.sol\":2746:2767  donations[msg.sender] */\n      0x00\n        /* \"Project.sol\":2756:2766  msg.sender */\n      caller\n        /* \"Project.sol\":2746:2767  donations[msg.sender] */\n      0xffffffffffffffffffffffffffffffffffffffff\n      and\n      0xffffffffffffffffffffffffffffffffffffffff\n      and\n      dup2\n      mstore\n      0x20\n      add\n      swap1\n      dup2\n      mstore\n      0x20\n      add\n      0x00\n      keccak256\n        /* \"Project.sol\":2718:2767  Donation storage donation = donations[msg.sender] */\n      swap1\n      pop\n        /* \"Project.sol\":2807:2825  State.refundPeriod */\n      0x01\n        /* \"Project.sol\":2798:2825  state == State.refundPeriod */\n      0x03\n      dup2\n      gt\n      iszero\n      tag_92\n      jumpi\n      tag_93\n      tag_94\n      jump\t// in\n    tag_93:\n    tag_92:\n        /* \"Project.sol\":2798:2803  state */\n      0x0a\n      0x00\n      swap1\n      sload\n      swap1\n      0x0100\n      exp\n      swap1\n      div\n      0xff\n      and\n        /* \"Project.sol\":2798:2825  state == State.refundPeriod */\n      0x03\n      dup2\n      gt\n      iszero\n      tag_95\n      jumpi\n      tag_96\n      tag_94\n      jump\t// in\n    tag_96:\n    tag_95:\n      eq\n        /* \"Project.sol\":2777:2883  require(... */\n      tag_97\n      jumpi\n      mload(0x40)\n      0x08c379a000000000000000000000000000000000000000000000000000000000\n      dup2\n      mstore\n      0x04\n      add\n      tag_98\n      swap1\n      tag_99\n      jump\t// in\n    tag_98:\n      mload(0x40)\n      dup1\n      swap2\n      sub\n      swap1\n      revert\n    tag_97:\n        /* \"Project.sol\":2932:2947  block.timestamp */\n      timestamp\n        /* \"Project.sol\":2914:2928  refundDeadline */\n      sload(0x09)\n        /* \"Project.sol\":2914:2947  refundDeadline >= block.timestamp */\n      lt\n      iszero\n        /* \"Project.sol\":2893:2992  require(... */\n      tag_100\n      jumpi\n      mload(0x40)\n      0x08c379a000000000000000000000000000000000000000000000000000000000\n      dup2\n      mstore\n      0x04\n      add\n      tag_101\n      swap1\n      tag_102\n      jump\t// in\n    tag_101:\n      mload(0x40)\n      dup1\n      swap2\n      sub\n      swap1\n      revert\n    tag_100:\n        /* \"Project.sol\":3041:3046  toPay */\n      dup2\n        /* \"Project.sol\":3023:3031  donation */\n      dup2\n        /* \"Project.sol\":3023:3037  donation.value */\n      0x00\n      add\n      sload\n        /* \"Project.sol\":3023:3046  donation.value >= toPay */\n      lt\n      iszero\n        /* \"Project.sol\":3002:3110  require(... */\n      tag_103\n      jumpi\n      mload(0x40)\n      0x08c379a000000000000000000000000000000000000000000000000000000000\n      dup2\n      mstore\n      0x04\n      add\n      tag_104\n      swap1\n      tag_105\n      jump\t// in\n    tag_104:\n      mload(0x40)\n      dup1\n      swap2\n      sub\n      swap1\n      revert\n    tag_103:\n        /* \"Project.sol\":3128:3138  msg.sender */\n      caller\n        /* \"Project.sol\":3120:3148  payable(msg.sender).transfer */\n      0xffffffffffffffffffffffffffffffffffffffff\n      and\n        /* \"Project.sol\":3120:3167  payable(msg.sender).transfer(toPay - refundFee) */\n      0x08fc\n        /* \"Project.sol\":3157:3166  refundFee */\n      sload(0x0c)\n        /* \"Project.sol\":3149:3154  toPay */\n      dup5\n        /* \"Project.sol\":3149:3166  toPay - refundFee */\n      tag_106\n      swap2\n      swap1\n      tag_107\n      jump\t// in\n    tag_106:\n        /* \"Project.sol\":3120:3167  payable(msg.sender).transfer(toPay - refundFee) */\n      swap1\n      dup2\n      iszero\n      mul\n      swap1\n      mload(0x40)\n      0x00\n      mload(0x40)\n      dup1\n      dup4\n      sub\n      dup2\n      dup6\n      dup9\n      dup9\n      call\n      swap4\n      pop\n      pop\n      pop\n      pop\n      iszero\n      dup1\n      iszero\n      tag_109\n      jumpi\n      returndatasize\n      0x00\n      dup1\n      returndatacopy\n      revert(0x00, returndatasize)\n    tag_109:\n      pop\n        /* \"Project.sol\":3195:3200  toPay */\n      dup2\n        /* \"Project.sol\":3177:3185  donation */\n      dup2\n        /* \"Project.sol\":3177:3191  donation.value */\n      0x00\n      add\n      0x00\n        /* \"Project.sol\":3177:3200  donation.value -= toPay */\n      dup3\n      dup3\n      sload\n      tag_110\n      swap2\n      swap1\n      tag_107\n      jump\t// in\n    tag_110:\n      swap3\n      pop\n      pop\n      dup2\n      swap1\n      sstore\n      pop\n        /* \"Project.sol\":3220:3225  toPay */\n      dup2\n        /* \"Project.sol\":3210:3216  raised */\n      0x05\n      0x00\n        /* \"Project.sol\":3210:3225  raised -= toPay */\n      dup3\n      dup3\n      sload\n      tag_111\n      swap2\n      swap1\n      tag_107\n      jump\t// in\n    tag_111:\n      swap3\n      pop\n      pop\n      dup2\n      swap1\n      sstore\n      pop\n        /* \"Project.sol\":2667:3232  {... */\n      pop\n      pop\n        /* \"Project.sol\":2618:3232  function refund(uint256 amount) external payable {... */\n      pop\n      jump\t// out\n        /* \"Project.sol\":376:395  uint256 public goal */\n    tag_36:\n      sload(0x04)\n      dup2\n      jump\t// out\n        /* \"Project.sol\":345:370  string public description */\n    tag_41:\n      0x03\n      dup1\n      sload\n      tag_112\n      swap1\n      tag_84\n      jump\t// in\n    tag_112:\n      dup1\n      0x1f\n      add\n      0x20\n      dup1\n      swap2\n      div\n      mul\n      0x20\n      add\n      mload(0x40)\n      swap1\n      dup2\n      add\n      0x40\n      mstore\n      dup1\n      swap3\n      swap2\n      swap1\n      dup2\n      dup2\n      mstore\n      0x20\n      add\n      dup3\n      dup1\n      sload\n      tag_113\n      swap1\n      tag_84\n      jump\t// in\n    tag_113:\n      dup1\n      iszero\n      tag_114\n      jumpi\n      dup1\n      0x1f\n      lt\n      tag_115\n      jumpi\n      0x0100\n      dup1\n      dup4\n      sload\n      div\n      mul\n      dup4\n      mstore\n      swap2\n      0x20\n      add\n      swap2\n      jump(tag_114)\n    tag_115:\n      dup3\n      add\n      swap2\n      swap1\n      0x00\n      mstore\n      keccak256(0x00, 0x20)\n      swap1\n    tag_116:\n      dup2\n      sload\n      dup2\n      mstore\n      swap1\n      0x01\n      add\n      swap1\n      0x20\n      add\n      dup1\n      dup4\n      gt\n      tag_116\n      jumpi\n      dup3\n      swap1\n      sub\n      0x1f\n      and\n      dup3\n      add\n      swap2\n    tag_114:\n      pop\n      pop\n      pop\n      pop\n      pop\n      dup2\n      jump\t// out\n        /* \"Project.sol\":485:515  uint256 public fundingDeadline */\n    tag_45:\n      sload(0x08)\n      dup2\n      jump\t// out\n        /* \"Project.sol\":3238:3682  function refundPeriodOver() external {... */\n    tag_49:\n        /* \"Project.sol\":3320:3327  creator */\n      0x00\n      dup1\n      sload\n      swap1\n      0x0100\n      exp\n      swap1\n      div\n      0xffffffffffffffffffffffffffffffffffffffff\n      and\n        /* \"Project.sol\":3306:3327  msg.sender == creator */\n      0xffffffffffffffffffffffffffffffffffffffff\n      and\n        /* \"Project.sol\":3306:3316  msg.sender */\n      caller\n        /* \"Project.sol\":3306:3327  msg.sender == creator */\n      0xffffffffffffffffffffffffffffffffffffffff\n      and\n      eq\n        /* \"Project.sol\":3285:3407  require(... */\n      tag_118\n      jumpi\n      mload(0x40)\n      0x08c379a000000000000000000000000000000000000000000000000000000000\n      dup2\n      mstore\n      0x04\n      add\n      tag_119\n      swap1\n      tag_120\n      jump\t// in\n    tag_119:\n      mload(0x40)\n      dup1\n      swap2\n      sub\n      swap1\n      revert\n    tag_118:\n        /* \"Project.sol\":3447:3465  State.refundPeriod */\n      0x01\n        /* \"Project.sol\":3438:3465  state == State.refundPeriod */\n      0x03\n      dup2\n      gt\n      iszero\n      tag_121\n      jumpi\n      tag_122\n      tag_94\n      jump\t// in\n    tag_122:\n    tag_121:\n        /* \"Project.sol\":3438:3443  state */\n      0x0a\n      0x00\n      swap1\n      sload\n      swap1\n      0x0100\n      exp\n      swap1\n      div\n      0xff\n      and\n        /* \"Project.sol\":3438:3465  state == State.refundPeriod */\n      0x03\n      dup2\n      gt\n      iszero\n      tag_123\n      jumpi\n      tag_124\n      tag_94\n      jump\t// in\n    tag_124:\n    tag_123:\n      eq\n        /* \"Project.sol\":3417:3521  require(... */\n      tag_125\n      jumpi\n      mload(0x40)\n      0x08c379a000000000000000000000000000000000000000000000000000000000\n      dup2\n      mstore\n      0x04\n      add\n      tag_126\n      swap1\n      tag_127\n      jump\t// in\n    tag_126:\n      mload(0x40)\n      dup1\n      swap2\n      sub\n      swap1\n      revert\n    tag_125:\n        /* \"Project.sol\":3570:3585  block.timestamp */\n      timestamp\n        /* \"Project.sol\":3552:3566  refundDeadline */\n      sload(0x09)\n        /* \"Project.sol\":3552:3585  refundDeadline <= block.timestamp */\n      gt\n      iszero\n        /* \"Project.sol\":3531:3637  require(... */\n      tag_128\n      jumpi\n      mload(0x40)\n      0x08c379a000000000000000000000000000000000000000000000000000000000\n      dup2\n      mstore\n      0x04\n      add\n      tag_129\n      swap1\n      tag_130\n      jump\t// in\n    tag_129:\n      mload(0x40)\n      dup1\n      swap2\n      sub\n      swap1\n      revert\n    tag_128:\n        /* \"Project.sol\":3655:3675  State.paymentPending */\n      0x02\n        /* \"Project.sol\":3647:3652  state */\n      0x0a\n      0x00\n        /* \"Project.sol\":3647:3675  state = State.paymentPending */\n      0x0100\n      exp\n      dup2\n      sload\n      dup2\n      0xff\n      mul\n      not\n      and\n      swap1\n      dup4\n      0x03\n      dup2\n      gt\n      iszero\n      tag_131\n      jumpi\n      tag_132\n      tag_94\n      jump\t// in\n    tag_132:\n    tag_131:\n      mul\n      or\n      swap1\n      sstore\n      pop\n        /* \"Project.sol\":3238:3682  function refundPeriodOver() external {... */\n      jump\t// out\n        /* \"Project.sol\":556:574  State public state */\n    tag_52:\n      0x0a\n      0x00\n      swap1\n      sload\n      swap1\n      0x0100\n      exp\n      swap1\n      div\n      0xff\n      and\n      dup2\n      jump\t// out\n        /* \"Project.sol\":668:713  mapping(address => Donation) public donations */\n    tag_59:\n      mstore(0x20, 0x0d)\n      dup1\n      0x00\n      mstore\n      keccak256(0x00, 0x40)\n      0x00\n      swap2\n      pop\n      swap1\n      pop\n      dup1\n      0x00\n      add\n      sload\n      swap1\n      dup1\n      0x01\n      add\n      dup1\n      sload\n      tag_133\n      swap1\n      tag_84\n      jump\t// in\n    tag_133:\n      dup1\n      0x1f\n      add\n      0x20\n      dup1\n      swap2\n      div\n      mul\n      0x20\n      add\n      mload(0x40)\n      swap1\n      dup2\n      add\n      0x40\n      mstore\n      dup1\n      swap3\n      swap2\n      swap1\n      dup2\n      dup2\n      mstore\n      0x20\n      add\n      dup3\n      dup1\n      sload\n      tag_134\n      swap1\n      tag_84\n      jump\t// in\n    tag_134:\n      dup1\n      iszero\n      tag_135\n      jumpi\n      dup1\n      0x1f\n      lt\n      tag_136\n      jumpi\n      0x0100\n      dup1\n      dup4\n      sload\n      div\n      mul\n      dup4\n      mstore\n      swap2\n      0x20\n      add\n      swap2\n      jump(tag_135)\n    tag_136:\n      dup3\n      add\n      swap2\n      swap1\n      0x00\n      mstore\n      keccak256(0x00, 0x20)\n      swap1\n    tag_137:\n      dup2\n      sload\n      dup2\n      mstore\n      swap1\n      0x01\n      add\n      swap1\n      0x20\n      add\n      dup1\n      dup4\n      gt\n      tag_137\n      jumpi\n      dup3\n      swap1\n      sub\n      0x1f\n      and\n      dup3\n      add\n      swap2\n    tag_135:\n      pop\n      pop\n      pop\n      pop\n      pop\n      swap1\n      pop\n      dup3\n      jump\t// out\n        /* \"Project.sol\":2124:2612  function targetNotHit() external {... */\n    tag_64:\n        /* \"Project.sol\":2202:2209  creator */\n      0x00\n      dup1\n      sload\n      swap1\n      0x0100\n      exp\n      swap1\n      div\n      0xffffffffffffffffffffffffffffffffffffffff\n      and\n        /* \"Project.sol\":2188:2209  msg.sender == creator */\n      0xffffffffffffffffffffffffffffffffffffffff\n      and\n        /* \"Project.sol\":2188:2198  msg.sender */\n      caller\n        /* \"Project.sol\":2188:2209  msg.sender == creator */\n      0xffffffffffffffffffffffffffffffffffffffff\n      and\n      eq\n        /* \"Project.sol\":2167:2278  require(... */\n      tag_139\n      jumpi\n      mload(0x40)\n      0x08c379a000000000000000000000000000000000000000000000000000000000\n      dup2\n      mstore\n      0x04\n      add\n      tag_140\n      swap1\n      tag_141\n      jump\t// in\n    tag_140:\n      mload(0x40)\n      dup1\n      swap2\n      sub\n      swap1\n      revert\n    tag_139:\n        /* \"Project.sol\":2305:2324  State.fundingPeriod */\n      0x00\n        /* \"Project.sol\":2296:2324  state == State.fundingPeriod */\n      0x03\n      dup2\n      gt\n      iszero\n      tag_142\n      jumpi\n      tag_143\n      tag_94\n      jump\t// in\n    tag_143:\n    tag_142:\n        /* \"Project.sol\":2296:2301  state */\n      0x0a\n      0x00\n      swap1\n      sload\n      swap1\n      0x0100\n      exp\n      swap1\n      div\n      0xff\n      and\n        /* \"Project.sol\":2296:2324  state == State.fundingPeriod */\n      0x03\n      dup2\n      gt\n      iszero\n      tag_144\n      jumpi\n      tag_145\n      tag_94\n      jump\t// in\n    tag_145:\n    tag_144:\n      eq\n        /* \"Project.sol\":2288:2366  require(state == State.fundingPeriod, \"Project has completed funding period.\") */\n      tag_146\n      jumpi\n      mload(0x40)\n      0x08c379a000000000000000000000000000000000000000000000000000000000\n      dup2\n      mstore\n      0x04\n      add\n      tag_147\n      swap1\n      tag_148\n      jump\t// in\n    tag_147:\n      mload(0x40)\n      dup1\n      swap2\n      sub\n      swap1\n      revert\n    tag_146:\n        /* \"Project.sol\":2394:2398  goal */\n      sload(0x04)\n        /* \"Project.sol\":2384:2390  raised */\n      sload(0x05)\n        /* \"Project.sol\":2384:2398  raised <= goal */\n      gt\n      iszero\n        /* \"Project.sol\":2376:2423  require(raised <= goal, \"Target has been hit.\") */\n      tag_149\n      jumpi\n      mload(0x40)\n      0x08c379a000000000000000000000000000000000000000000000000000000000\n      dup2\n      mstore\n      0x04\n      add\n      tag_150\n      swap1\n      tag_151\n      jump\t// in\n    tag_150:\n      mload(0x40)\n      dup1\n      swap2\n      sub\n      swap1\n      revert\n    tag_149:\n        /* \"Project.sol\":2460:2475  fundingDeadline */\n      sload(0x08)\n        /* \"Project.sol\":2441:2456  block.timestamp */\n      timestamp\n        /* \"Project.sol\":2441:2475  block.timestamp >= fundingDeadline */\n      lt\n      iszero\n        /* \"Project.sol\":2433:2509  require(block.timestamp >= fundingDeadline, \"Funding Deadline not Reached.\") */\n      tag_152\n      jumpi\n      mload(0x40)\n      0x08c379a000000000000000000000000000000000000000000000000000000000\n      dup2\n      mstore\n      0x04\n      add\n      tag_153\n      swap1\n      tag_154\n      jump\t// in\n    tag_153:\n      mload(0x40)\n      dup1\n      swap2\n      sub\n      swap1\n      revert\n    tag_152:\n        /* \"Project.sol\":2528:2546  State.refundPeriod */\n      0x01\n        /* \"Project.sol\":2520:2525  state */\n      0x0a\n      0x00\n        /* \"Project.sol\":2520:2546  state = State.refundPeriod */\n      0x0100\n      exp\n      dup2\n      sload\n      dup2\n      0xff\n      mul\n      not\n      and\n      swap1\n      dup4\n      0x03\n      dup2\n      gt\n      iszero\n      tag_155\n      jumpi\n      tag_156\n      tag_94\n      jump\t// in\n    tag_156:\n    tag_155:\n      mul\n      or\n      swap1\n      sstore\n      pop\n        /* \"Project.sol\":2591:2605  refundDuration */\n      sload(0x07)\n        /* \"Project.sol\":2573:2588  block.timestamp */\n      timestamp\n        /* \"Project.sol\":2573:2605  block.timestamp + refundDuration */\n      tag_157\n      swap2\n      swap1\n      tag_158\n      jump\t// in\n    tag_157:\n        /* \"Project.sol\":2556:2570  refundDeadline */\n      0x09\n        /* \"Project.sol\":2556:2605  refundDeadline = block.timestamp + refundDuration */\n      dup2\n      swap1\n      sstore\n      pop\n        /* \"Project.sol\":2124:2612  function targetNotHit() external {... */\n      jump\t// out\n        /* \"Project.sol\":3688:4059  function makePayment() external payable {... */\n    tag_66:\n        /* \"Project.sol\":3768:3788  State.paymentPending */\n      0x02\n        /* \"Project.sol\":3759:3788  state == State.paymentPending */\n      0x03\n      dup2\n      gt\n      iszero\n      tag_160\n      jumpi\n      tag_161\n      tag_94\n      jump\t// in\n    tag_161:\n    tag_160:\n        /* \"Project.sol\":3759:3764  state */\n      0x0a\n      0x00\n      swap1\n      sload\n      swap1\n      0x0100\n      exp\n      swap1\n      div\n      0xff\n      and\n        /* \"Project.sol\":3759:3788  state == State.paymentPending */\n      0x03\n      dup2\n      gt\n      iszero\n      tag_162\n      jumpi\n      tag_163\n      tag_94\n      jump\t// in\n    tag_163:\n    tag_162:\n      eq\n        /* \"Project.sol\":3738:3839  require(... */\n      tag_164\n      jumpi\n      mload(0x40)\n      0x08c379a000000000000000000000000000000000000000000000000000000000\n      dup2\n      mstore\n      0x04\n      add\n      tag_165\n      swap1\n      tag_166\n      jump\t// in\n    tag_165:\n      mload(0x40)\n      dup1\n      swap2\n      sub\n      swap1\n      revert\n    tag_164:\n        /* \"Project.sol\":3884:3891  creator */\n      0x00\n      dup1\n      sload\n      swap1\n      0x0100\n      exp\n      swap1\n      div\n      0xffffffffffffffffffffffffffffffffffffffff\n      and\n        /* \"Project.sol\":3870:3891  msg.sender == creator */\n      0xffffffffffffffffffffffffffffffffffffffff\n      and\n        /* \"Project.sol\":3870:3880  msg.sender */\n      caller\n        /* \"Project.sol\":3870:3891  msg.sender == creator */\n      0xffffffffffffffffffffffffffffffffffffffff\n      and\n      eq\n        /* \"Project.sol\":3849:3963  require(... */\n      tag_167\n      jumpi\n      mload(0x40)\n      0x08c379a000000000000000000000000000000000000000000000000000000000\n      dup2\n      mstore\n      0x04\n      add\n      tag_168\n      swap1\n      tag_169\n      jump\t// in\n    tag_168:\n      mload(0x40)\n      dup1\n      swap2\n      sub\n      swap1\n      revert\n    tag_167:\n        /* \"Project.sol\":3981:3989  receiver */\n      0x01\n      0x00\n      swap1\n      sload\n      swap1\n      0x0100\n      exp\n      swap1\n      div\n      0xffffffffffffffffffffffffffffffffffffffff\n      and\n        /* \"Project.sol\":3973:3999  payable(receiver).transfer */\n      0xffffffffffffffffffffffffffffffffffffffff\n      and\n        /* \"Project.sol\":3973:4022  payable(receiver).transfer(address(this).balance) */\n      0x08fc\n        /* \"Project.sol\":4000:4021  address(this).balance */\n      selfbalance\n        /* \"Project.sol\":3973:4022  payable(receiver).transfer(address(this).balance) */\n      swap1\n      dup2\n      iszero\n      mul\n      swap1\n      mload(0x40)\n      0x00\n      mload(0x40)\n      dup1\n      dup4\n      sub\n      dup2\n      dup6\n      dup9\n      dup9\n      call\n      swap4\n      pop\n      pop\n      pop\n      pop\n      iszero\n      dup1\n      iszero\n      tag_171\n      jumpi\n      returndatasize\n      0x00\n      dup1\n      returndatacopy\n      revert(0x00, returndatasize)\n    tag_171:\n      pop\n        /* \"Project.sol\":4040:4052  State.closed */\n      0x03\n        /* \"Project.sol\":4032:4037  state */\n      0x0a\n      0x00\n        /* \"Project.sol\":4032:4052  state = State.closed */\n      0x0100\n      exp\n      dup2\n      sload\n      dup2\n      0xff\n      mul\n      not\n      and\n      swap1\n      dup4\n      0x03\n      dup2\n      gt\n      iszero\n      tag_172\n      jumpi\n      tag_173\n      tag_94\n      jump\t// in\n    tag_173:\n    tag_172:\n      mul\n      or\n      swap1\n      sstore\n      pop\n        /* \"Project.sol\":3688:4059  function makePayment() external payable {... */\n      jump\t// out\n        /* \"Project.sol\":521:550  uint256 public refundDeadline */\n    tag_69:\n      sload(0x09)\n      dup2\n      jump\t// out\n        /* \"Project.sol\":401:422  uint256 public raised */\n    tag_73:\n      sload(0x05)\n      dup2\n      jump\t// out\n        /* \"Project.sol\":1302:2118  function donateToProject(string memory message) external payable {... */\n    tag_78:\n        /* \"Project.sol\":1407:1426  State.fundingPeriod */\n      0x00\n        /* \"Project.sol\":1398:1426  state == State.fundingPeriod */\n      0x03\n      dup2\n      gt\n      iszero\n      tag_175\n      jumpi\n      tag_176\n      tag_94\n      jump\t// in\n    tag_176:\n    tag_175:\n        /* \"Project.sol\":1398:1403  state */\n      0x0a\n      0x00\n      swap1\n      sload\n      swap1\n      0x0100\n      exp\n      swap1\n      div\n      0xff\n      and\n        /* \"Project.sol\":1398:1426  state == State.fundingPeriod */\n      0x03\n      dup2\n      gt\n      iszero\n      tag_177\n      jumpi\n      tag_178\n      tag_94\n      jump\t// in\n    tag_178:\n    tag_177:\n      eq\n        /* \"Project.sol\":1377:1475  require(... */\n      tag_179\n      jumpi\n      mload(0x40)\n      0x08c379a000000000000000000000000000000000000000000000000000000000\n      dup2\n      mstore\n      0x04\n      add\n      tag_180\n      swap1\n      tag_181\n      jump\t// in\n    tag_180:\n      mload(0x40)\n      dup1\n      swap2\n      sub\n      swap1\n      revert\n    tag_179:\n        /* \"Project.sol\":1512:1527  fundingDeadline */\n      sload(0x08)\n        /* \"Project.sol\":1493:1508  block.timestamp */\n      timestamp\n        /* \"Project.sol\":1493:1527  block.timestamp <= fundingDeadline */\n      gt\n      iszero\n        /* \"Project.sol\":1485:1554  require(block.timestamp <= fundingDeadline, \"Fundng Period is over.\") */\n      tag_182\n      jumpi\n      mload(0x40)\n      0x08c379a000000000000000000000000000000000000000000000000000000000\n      dup2\n      mstore\n      0x04\n      add\n      tag_183\n      swap1\n      tag_184\n      jump\t// in\n    tag_183:\n      mload(0x40)\n      dup1\n      swap2\n      sub\n      swap1\n      revert\n    tag_182:\n        /* \"Project.sol\":1585:1596  minDonation */\n      sload(0x0b)\n        /* \"Project.sol\":1572:1581  msg.value */\n      callvalue\n        /* \"Project.sol\":1572:1596  msg.value >= minDonation */\n      lt\n      iszero\n        /* \"Project.sol\":1564:1635  require(msg.value >= minDonation, \"Amount less than minimum donation.\") */\n      tag_185\n      jumpi\n      mload(0x40)\n      0x08c379a000000000000000000000000000000000000000000000000000000000\n      dup2\n      mstore\n      0x04\n      add\n      tag_186\n      swap1\n      tag_187\n      jump\t// in\n    tag_186:\n      mload(0x40)\n      dup1\n      swap2\n      sub\n      swap1\n      revert\n    tag_185:\n        /* \"Project.sol\":1646:1671  Donation storage donation */\n      0x00\n        /* \"Project.sol\":1674:1683  donations */\n      0x0d\n        /* \"Project.sol\":1674:1695  donations[msg.sender] */\n      0x00\n        /* \"Project.sol\":1684:1694  msg.sender */\n      caller\n        /* \"Project.sol\":1674:1695  donations[msg.sender] */\n      0xffffffffffffffffffffffffffffffffffffffff\n      and\n      0xffffffffffffffffffffffffffffffffffffffff\n      and\n      dup2\n      mstore\n      0x20\n      add\n      swap1\n      dup2\n      mstore\n      0x20\n      add\n      0x00\n      keccak256\n        /* \"Project.sol\":1646:1695  Donation storage donation = donations[msg.sender] */\n      swap1\n      pop\n        /* \"Project.sol\":1723:1732  msg.value */\n      callvalue\n        /* \"Project.sol\":1705:1713  donation */\n      dup2\n        /* \"Project.sol\":1705:1719  donation.value */\n      0x00\n      add\n      0x00\n        /* \"Project.sol\":1705:1732  donation.value += msg.value */\n      dup3\n      dup3\n      sload\n      tag_188\n      swap2\n      swap1\n      tag_158\n      jump\t// in\n    tag_188:\n      swap3\n      pop\n      pop\n      dup2\n      swap1\n      sstore\n      pop\n        /* \"Project.sol\":1761:1768  message */\n      dup2\n        /* \"Project.sol\":1742:1750  donation */\n      dup2\n        /* \"Project.sol\":1742:1758  donation.message */\n      0x01\n      add\n        /* \"Project.sol\":1742:1768  donation.message = message */\n      swap1\n      dup2\n      tag_189\n      swap2\n      swap1\n      tag_190\n      jump\t// in\n    tag_189:\n      pop\n        /* \"Project.sol\":1789:1798  msg.value */\n      callvalue\n        /* \"Project.sol\":1779:1785  raised */\n      0x05\n      0x00\n        /* \"Project.sol\":1779:1798  raised += msg.value */\n      dup3\n      dup3\n      sload\n      tag_191\n      swap2\n      swap1\n      tag_158\n      jump\t// in\n    tag_191:\n      swap3\n      pop\n      pop\n      dup2\n      swap1\n      sstore\n      pop\n        /* \"Project.sol\":1822:1826  goal */\n      sload(0x04)\n        /* \"Project.sol\":1812:1818  raised */\n      sload(0x05)\n        /* \"Project.sol\":1812:1826  raised >= goal */\n      lt\n        /* \"Project.sol\":1808:2112  if (raised >= goal) {... */\n      tag_192\n      jumpi\n        /* \"Project.sol\":1842:1856  uint256 excess */\n      0x00\n        /* \"Project.sol\":1868:1872  goal */\n      sload(0x04)\n        /* \"Project.sol\":1859:1865  raised */\n      sload(0x05)\n        /* \"Project.sol\":1859:1872  raised - goal */\n      tag_193\n      swap2\n      swap1\n      tag_107\n      jump\t// in\n    tag_193:\n        /* \"Project.sol\":1842:1872  uint256 excess = raised - goal */\n      swap1\n      pop\n        /* \"Project.sol\":1899:1908  refundFee */\n      sload(0x0c)\n        /* \"Project.sol\":1890:1896  excess */\n      dup2\n        /* \"Project.sol\":1890:1908  excess > refundFee */\n      gt\n        /* \"Project.sol\":1886:2033  if (excess > refundFee) {... */\n      iszero\n      tag_194\n      jumpi\n        /* \"Project.sol\":1936:1946  msg.sender */\n      caller\n        /* \"Project.sol\":1928:1956  payable(msg.sender).transfer */\n      0xffffffffffffffffffffffffffffffffffffffff\n      and\n        /* \"Project.sol\":1928:1976  payable(msg.sender).transfer(excess - refundFee) */\n      0x08fc\n        /* \"Project.sol\":1966:1975  refundFee */\n      sload(0x0c)\n        /* \"Project.sol\":1957:1963  excess */\n      dup4\n        /* \"Project.sol\":1957:1975  excess - refundFee */\n      tag_195\n      swap2\n      swap1\n      tag_107\n      jump\t// in\n    tag_195:\n        /* \"Project.sol\":1928:1976  payable(msg.sender).transfer(excess - refundFee) */\n      swap1\n      dup2\n      iszero\n      mul\n      swap1\n      mload(0x40)\n      0x00\n      mload(0x40)\n      dup1\n      dup4\n      sub\n      dup2\n      dup6\n      dup9\n      dup9\n      call\n      swap4\n      pop\n      pop\n      pop\n      pop\n      iszero\n      dup1\n      iszero\n      tag_197\n      jumpi\n      returndatasize\n      0x00\n      dup1\n      returndatacopy\n      revert(0x00, returndatasize)\n    tag_197:\n      pop\n        /* \"Project.sol\":2012:2018  excess */\n      dup1\n        /* \"Project.sol\":1994:2002  donation */\n      dup3\n        /* \"Project.sol\":1994:2008  donation.value */\n      0x00\n      add\n      0x00\n        /* \"Project.sol\":1994:2018  donation.value -= excess */\n      dup3\n      dup3\n      sload\n      tag_198\n      swap2\n      swap1\n      tag_107\n      jump\t// in\n    tag_198:\n      swap3\n      pop\n      pop\n      dup2\n      swap1\n      sstore\n      pop\n        /* \"Project.sol\":1886:2033  if (excess > refundFee) {... */\n    tag_194:\n        /* \"Project.sol\":2055:2059  goal */\n      sload(0x04)\n        /* \"Project.sol\":2046:2052  raised */\n      0x05\n        /* \"Project.sol\":2046:2059  raised = goal */\n      dup2\n      swap1\n      sstore\n      pop\n        /* \"Project.sol\":2081:2101  State.paymentPending */\n      0x02\n        /* \"Project.sol\":2073:2078  state */\n      0x0a\n      0x00\n        /* \"Project.sol\":2073:2101  state = State.paymentPending */\n      0x0100\n      exp\n      dup2\n      sload\n      dup2\n      0xff\n      mul\n      not\n      and\n      swap1\n      dup4\n      0x03\n      dup2\n      gt\n      iszero\n      tag_199\n      jumpi\n      tag_200\n      tag_94\n      jump\t// in\n    tag_200:\n    tag_199:\n      mul\n      or\n      swap1\n      sstore\n      pop\n        /* \"Project.sol\":1828:2112  {... */\n      pop\n        /* \"Project.sol\":1808:2112  if (raised >= goal) {... */\n    tag_192:\n        /* \"Project.sol\":1367:2118  {... */\n      pop\n        /* \"Project.sol\":1302:2118  function donateToProject(string memory message) external payable {... */\n      pop\n      jump\t// out\n        /* \"Project.sol\":292:315  address public receiver */\n    tag_81:\n      0x01\n      0x00\n      swap1\n      sload\n      swap1\n      0x0100\n      exp\n      swap1\n      div\n      0xffffffffffffffffffffffffffffffffffffffff\n      and\n      dup2\n      jump\t// out\n        /* \"#utility.yul\":7:133   */\n    tag_201:\n        /* \"#utility.yul\":44:51   */\n      0x00\n        /* \"#utility.yul\":84:126   */\n      0xffffffffffffffffffffffffffffffffffffffff\n        /* \"#utility.yul\":77:82   */\n      dup3\n        /* \"#utility.yul\":73:127   */\n      and\n        /* \"#utility.yul\":62:127   */\n      swap1\n      pop\n        /* \"#utility.yul\":7:133   */\n      swap2\n      swap1\n      pop\n      jump\t// out\n        /* \"#utility.yul\":139:235   */\n    tag_202:\n        /* \"#utility.yul\":176:183   */\n      0x00\n        /* \"#utility.yul\":205:229   */\n      tag_281\n        /* \"#utility.yul\":223:228   */\n      dup3\n        /* \"#utility.yul\":205:229   */\n      tag_201\n      jump\t// in\n    tag_281:\n        /* \"#utility.yul\":194:229   */\n      swap1\n      pop\n        /* \"#utility.yul\":139:235   */\n      swap2\n      swap1\n      pop\n      jump\t// out\n        /* \"#utility.yul\":241:359   */\n    tag_203:\n        /* \"#utility.yul\":328:352   */\n      tag_283\n        /* \"#utility.yul\":346:351   */\n      dup2\n        /* \"#utility.yul\":328:352   */\n      tag_202\n      jump\t// in\n    tag_283:\n        /* \"#utility.yul\":323:326   */\n      dup3\n        /* \"#utility.yul\":316:353   */\n      mstore\n        /* \"#utility.yul\":241:359   */\n      pop\n      pop\n      jump\t// out\n        /* \"#utility.yul\":365:587   */\n    tag_24:\n        /* \"#utility.yul\":458:462   */\n      0x00\n        /* \"#utility.yul\":496:498   */\n      0x20\n        /* \"#utility.yul\":485:494   */\n      dup3\n        /* \"#utility.yul\":481:499   */\n      add\n        /* \"#utility.yul\":473:499   */\n      swap1\n      pop\n        /* \"#utility.yul\":509:580   */\n      tag_285\n        /* \"#utility.yul\":577:578   */\n      0x00\n        /* \"#utility.yul\":566:575   */\n      dup4\n        /* \"#utility.yul\":562:579   */\n      add\n        /* \"#utility.yul\":553:559   */\n      dup5\n        /* \"#utility.yul\":509:580   */\n      tag_203\n      jump\t// in\n    tag_285:\n        /* \"#utility.yul\":365:587   */\n      swap3\n      swap2\n      pop\n      pop\n      jump\t// out\n        /* \"#utility.yul\":593:692   */\n    tag_204:\n        /* \"#utility.yul\":645:651   */\n      0x00\n        /* \"#utility.yul\":679:684   */\n      dup2\n        /* \"#utility.yul\":673:685   */\n      mload\n        /* \"#utility.yul\":663:685   */\n      swap1\n      pop\n        /* \"#utility.yul\":593:692   */\n      swap2\n      swap1\n      pop\n      jump\t// out\n        /* \"#utility.yul\":698:867   */\n    tag_205:\n        /* \"#utility.yul\":782:793   */\n      0x00\n        /* \"#utility.yul\":816:822   */\n      dup3\n        /* \"#utility.yul\":811:814   */\n      dup3\n        /* \"#utility.yul\":804:823   */\n      mstore\n        /* \"#utility.yul\":856:860   */\n      0x20\n        /* \"#utility.yul\":851:854   */\n      dup3\n        /* \"#utility.yul\":847:861   */\n      add\n        /* \"#utility.yul\":832:861   */\n      swap1\n      pop\n        /* \"#utility.yul\":698:867   */\n      swap3\n      swap2\n      pop\n      pop\n      jump\t// out\n        /* \"#utility.yul\":873:1119   */\n    tag_206:\n        /* \"#utility.yul\":954:955   */\n      0x00\n        /* \"#utility.yul\":964:1077   */\n    tag_289:\n        /* \"#utility.yul\":978:984   */\n      dup4\n        /* \"#utility.yul\":975:976   */\n      dup2\n        /* \"#utility.yul\":972:985   */\n      lt\n        /* \"#utility.yul\":964:1077   */\n      iszero\n      tag_291\n      jumpi\n        /* \"#utility.yul\":1063:1064   */\n      dup1\n        /* \"#utility.yul\":1058:1061   */\n      dup3\n        /* \"#utility.yul\":1054:1065   */\n      add\n        /* \"#utility.yul\":1048:1066   */\n      mload\n        /* \"#utility.yul\":1044:1045   */\n      dup2\n        /* \"#utility.yul\":1039:1042   */\n      dup5\n        /* \"#utility.yul\":1035:1046   */\n      add\n        /* \"#utility.yul\":1028:1067   */\n      mstore\n        /* \"#utility.yul\":1000:1002   */\n      0x20\n        /* \"#utility.yul\":997:998   */\n      dup2\n        /* \"#utility.yul\":993:1003   */\n      add\n        /* \"#utility.yul\":988:1003   */\n      swap1\n      pop\n        /* \"#utility.yul\":964:1077   */\n      jump(tag_289)\n    tag_291:\n        /* \"#utility.yul\":1111:1112   */\n      0x00\n        /* \"#utility.yul\":1102:1108   */\n      dup5\n        /* \"#utility.yul\":1097:1100   */\n      dup5\n        /* \"#utility.yul\":1093:1109   */\n      add\n        /* \"#utility.yul\":1086:1113   */\n      mstore\n        /* \"#utility.yul\":935:1119   */\n      pop\n        /* \"#utility.yul\":873:1119   */\n      pop\n      pop\n      pop\n      jump\t// out\n        /* \"#utility.yul\":1125:1227   */\n    tag_207:\n        /* \"#utility.yul\":1166:1172   */\n      0x00\n        /* \"#utility.yul\":1217:1219   */\n      0x1f\n        /* \"#utility.yul\":1213:1220   */\n      not\n        /* \"#utility.yul\":1208:1210   */\n      0x1f\n        /* \"#utility.yul\":1201:1206   */\n      dup4\n        /* \"#utility.yul\":1197:1211   */\n      add\n        /* \"#utility.yul\":1193:1221   */\n      and\n        /* \"#utility.yul\":1183:1221   */\n      swap1\n      pop\n        /* \"#utility.yul\":1125:1227   */\n      swap2\n      swap1\n      pop\n      jump\t// out\n        /* \"#utility.yul\":1233:1610   */\n    tag_208:\n        /* \"#utility.yul\":1321:1324   */\n      0x00\n        /* \"#utility.yul\":1349:1388   */\n      tag_294\n        /* \"#utility.yul\":1382:1387   */\n      dup3\n        /* \"#utility.yul\":1349:1388   */\n      tag_204\n      jump\t// in\n    tag_294:\n        /* \"#utility.yul\":1404:1475   */\n      tag_295\n        /* \"#utility.yul\":1468:1474   */\n      dup2\n        /* \"#utility.yul\":1463:1466   */\n      dup6\n        /* \"#utility.yul\":1404:1475   */\n      tag_205\n      jump\t// in\n    tag_295:\n        /* \"#utility.yul\":1397:1475   */\n      swap4\n      pop\n        /* \"#utility.yul\":1484:1549   */\n      tag_296\n        /* \"#utility.yul\":1542:1548   */\n      dup2\n        /* \"#utility.yul\":1537:1540   */\n      dup6\n        /* \"#utility.yul\":1530:1534   */\n      0x20\n        /* \"#utility.yul\":1523:1528   */\n      dup7\n        /* \"#utility.yul\":1519:1535   */\n      add\n        /* \"#utility.yul\":1484:1549   */\n      tag_206\n      jump\t// in\n    tag_296:\n        /* \"#utility.yul\":1574:1603   */\n      tag_297\n        /* \"#utility.yul\":1596:1602   */\n      dup2\n        /* \"#utility.yul\":1574:1603   */\n      tag_207\n      jump\t// in\n    tag_297:\n        /* \"#utility.yul\":1569:1572   */\n      dup5\n        /* \"#utility.yul\":1565:1604   */\n      add\n        /* \"#utility.yul\":1558:1604   */\n      swap2\n      pop\n        /* \"#utility.yul\":1325:1610   */\n      pop\n        /* \"#utility.yul\":1233:1610   */\n      swap3\n      swap2\n      pop\n      pop\n      jump\t// out\n        /* \"#utility.yul\":1616:1929   */\n    tag_29:\n        /* \"#utility.yul\":1729:1733   */\n      0x00\n        /* \"#utility.yul\":1767:1769   */\n      0x20\n        /* \"#utility.yul\":1756:1765   */\n      dup3\n        /* \"#utility.yul\":1752:1770   */\n      add\n        /* \"#utility.yul\":1744:1770   */\n      swap1\n      pop\n        /* \"#utility.yul\":1816:1825   */\n      dup2\n        /* \"#utility.yul\":1810:1814   */\n      dup2\n        /* \"#utility.yul\":1806:1826   */\n      sub\n        /* \"#utility.yul\":1802:1803   */\n      0x00\n        /* \"#utility.yul\":1791:1800   */\n      dup4\n        /* \"#utility.yul\":1787:1804   */\n      add\n        /* \"#utility.yul\":1780:1827   */\n      mstore\n        /* \"#utility.yul\":1844:1922   */\n      tag_299\n        /* \"#utility.yul\":1917:1921   */\n      dup2\n        /* \"#utility.yul\":1908:1914   */\n      dup5\n        /* \"#utility.yul\":1844:1922   */\n      tag_208\n      jump\t// in\n    tag_299:\n        /* \"#utility.yul\":1836:1922   */\n      swap1\n      pop\n        /* \"#utility.yul\":1616:1929   */\n      swap3\n      swap2\n      pop\n      pop\n      jump\t// out\n        /* \"#utility.yul\":1935:2010   */\n    tag_209:\n        /* \"#utility.yul\":1968:1974   */\n      0x00\n        /* \"#utility.yul\":2001:2003   */\n      0x40\n        /* \"#utility.yul\":1995:2004   */\n      mload\n        /* \"#utility.yul\":1985:2004   */\n      swap1\n      pop\n        /* \"#utility.yul\":1935:2010   */\n      swap1\n      jump\t// out\n        /* \"#utility.yul\":2016:2133   */\n    tag_210:\n        /* \"#utility.yul\":2125:2126   */\n      0x00\n        /* \"#utility.yul\":2122:2123   */\n      dup1\n        /* \"#utility.yul\":2115:2127   */\n      revert\n        /* \"#utility.yul\":2139:2256   */\n    tag_211:\n        /* \"#utility.yul\":2248:2249   */\n      0x00\n        /* \"#utility.yul\":2245:2246   */\n      dup1\n        /* \"#utility.yul\":2238:2250   */\n      revert\n        /* \"#utility.yul\":2262:2339   */\n    tag_212:\n        /* \"#utility.yul\":2299:2306   */\n      0x00\n        /* \"#utility.yul\":2328:2333   */\n      dup2\n        /* \"#utility.yul\":2317:2333   */\n      swap1\n      pop\n        /* \"#utility.yul\":2262:2339   */\n      swap2\n      swap1\n      pop\n      jump\t// out\n        /* \"#utility.yul\":2345:2467   */\n    tag_213:\n        /* \"#utility.yul\":2418:2442   */\n      tag_305\n        /* \"#utility.yul\":2436:2441   */\n      dup2\n        /* \"#utility.yul\":2418:2442   */\n      tag_212\n      jump\t// in\n    tag_305:\n        /* \"#utility.yul\":2411:2416   */\n      dup2\n        /* \"#utility.yul\":2408:2443   */\n      eq\n        /* \"#utility.yul\":2398:2461   */\n      tag_306\n      jumpi\n        /* \"#utility.yul\":2457:2458   */\n      0x00\n        /* \"#utility.yul\":2454:2455   */\n      dup1\n        /* \"#utility.yul\":2447:2459   */\n      revert\n        /* \"#utility.yul\":2398:2461   */\n    tag_306:\n        /* \"#utility.yul\":2345:2467   */\n      pop\n      jump\t// out\n        /* \"#utility.yul\":2473:2612   */\n    tag_214:\n        /* \"#utility.yul\":2519:2524   */\n      0x00\n        /* \"#utility.yul\":2557:2563   */\n      dup2\n        /* \"#utility.yul\":2544:2564   */\n      calldataload\n        /* \"#utility.yul\":2535:2564   */\n      swap1\n      pop\n        /* \"#utility.yul\":2573:2606   */\n      tag_308\n        /* \"#utility.yul\":2600:2605   */\n      dup2\n        /* \"#utility.yul\":2573:2606   */\n      tag_213\n      jump\t// in\n    tag_308:\n        /* \"#utility.yul\":2473:2612   */\n      swap3\n      swap2\n      pop\n      pop\n      jump\t// out\n        /* \"#utility.yul\":2618:2947   */\n    tag_32:\n        /* \"#utility.yul\":2677:2683   */\n      0x00\n        /* \"#utility.yul\":2726:2728   */\n      0x20\n        /* \"#utility.yul\":2714:2723   */\n      dup3\n        /* \"#utility.yul\":2705:2712   */\n      dup5\n        /* \"#utility.yul\":2701:2724   */\n      sub\n        /* \"#utility.yul\":2697:2729   */\n      slt\n        /* \"#utility.yul\":2694:2813   */\n      iszero\n      tag_310\n      jumpi\n        /* \"#utility.yul\":2732:2811   */\n      tag_311\n      tag_210\n      jump\t// in\n    tag_311:\n        /* \"#utility.yul\":2694:2813   */\n    tag_310:\n        /* \"#utility.yul\":2852:2853   */\n      0x00\n        /* \"#utility.yul\":2877:2930   */\n      tag_312\n        /* \"#utility.yul\":2922:2929   */\n      dup5\n        /* \"#utility.yul\":2913:2919   */\n      dup3\n        /* \"#utility.yul\":2902:2911   */\n      dup6\n        /* \"#utility.yul\":2898:2920   */\n      add\n        /* \"#utility.yul\":2877:2930   */\n      tag_214\n      jump\t// in\n    tag_312:\n        /* \"#utility.yul\":2867:2930   */\n      swap2\n      pop\n        /* \"#utility.yul\":2823:2940   */\n      pop\n        /* \"#utility.yul\":2618:2947   */\n      swap3\n      swap2\n      pop\n      pop\n      jump\t// out\n        /* \"#utility.yul\":2953:3071   */\n    tag_215:\n        /* \"#utility.yul\":3040:3064   */\n      tag_314\n        /* \"#utility.yul\":3058:3063   */\n      dup2\n        /* \"#utility.yul\":3040:3064   */\n      tag_212\n      jump\t// in\n    tag_314:\n        /* \"#utility.yul\":3035:3038   */\n      dup3\n        /* \"#utility.yul\":3028:3065   */\n      mstore\n        /* \"#utility.yul\":2953:3071   */\n      pop\n      pop\n      jump\t// out\n        /* \"#utility.yul\":3077:3299   */\n    tag_38:\n        /* \"#utility.yul\":3170:3174   */\n      0x00\n        /* \"#utility.yul\":3208:3210   */\n      0x20\n        /* \"#utility.yul\":3197:3206   */\n      dup3\n        /* \"#utility.yul\":3193:3211   */\n      add\n        /* \"#utility.yul\":3185:3211   */\n      swap1\n      pop\n        /* \"#utility.yul\":3221:3292   */\n      tag_316\n        /* \"#utility.yul\":3289:3290   */\n      0x00\n        /* \"#utility.yul\":3278:3287   */\n      dup4\n        /* \"#utility.yul\":3274:3291   */\n      add\n        /* \"#utility.yul\":3265:3271   */\n      dup5\n        /* \"#utility.yul\":3221:3292   */\n      tag_215\n      jump\t// in\n    tag_316:\n        /* \"#utility.yul\":3077:3299   */\n      swap3\n      swap2\n      pop\n      pop\n      jump\t// out\n        /* \"#utility.yul\":3305:3485   */\n    tag_94:\n        /* \"#utility.yul\":3353:3430   */\n      0x4e487b7100000000000000000000000000000000000000000000000000000000\n        /* \"#utility.yul\":3350:3351   */\n      0x00\n        /* \"#utility.yul\":3343:3431   */\n      mstore\n        /* \"#utility.yul\":3450:3454   */\n      0x21\n        /* \"#utility.yul\":3447:3448   */\n      0x04\n        /* \"#utility.yul\":3440:3455   */\n      mstore\n        /* \"#utility.yul\":3474:3478   */\n      0x24\n        /* \"#utility.yul\":3471:3472   */\n      0x00\n        /* \"#utility.yul\":3464:3479   */\n      revert\n        /* \"#utility.yul\":3491:3603   */\n    tag_216:\n        /* \"#utility.yul\":3571:3572   */\n      0x04\n        /* \"#utility.yul\":3564:3569   */\n      dup2\n        /* \"#utility.yul\":3561:3573   */\n      lt\n        /* \"#utility.yul\":3551:3597   */\n      tag_319\n      jumpi\n        /* \"#utility.yul\":3577:3595   */\n      tag_320\n      tag_94\n      jump\t// in\n    tag_320:\n        /* \"#utility.yul\":3551:3597   */\n    tag_319:\n        /* \"#utility.yul\":3491:3603   */\n      pop\n      jump\t// out\n        /* \"#utility.yul\":3609:3734   */\n    tag_217:\n        /* \"#utility.yul\":3653:3660   */\n      0x00\n        /* \"#utility.yul\":3682:3687   */\n      dup2\n        /* \"#utility.yul\":3671:3687   */\n      swap1\n      pop\n        /* \"#utility.yul\":3688:3728   */\n      tag_322\n        /* \"#utility.yul\":3722:3727   */\n      dup3\n        /* \"#utility.yul\":3688:3728   */\n      tag_216\n      jump\t// in\n    tag_322:\n        /* \"#utility.yul\":3609:3734   */\n      swap2\n      swap1\n      pop\n      jump\t// out\n        /* \"#utility.yul\":3740:3865   */\n    tag_218:\n        /* \"#utility.yul\":3795:3804   */\n      0x00\n        /* \"#utility.yul\":3828:3859   */\n      tag_324\n        /* \"#utility.yul\":3853:3858   */\n      dup3\n        /* \"#utility.yul\":3828:3859   */\n      tag_217\n      jump\t// in\n    tag_324:\n        /* \"#utility.yul\":3815:3859   */\n      swap1\n      pop\n        /* \"#utility.yul\":3740:3865   */\n      swap2\n      swap1\n      pop\n      jump\t// out\n        /* \"#utility.yul\":3871:4012   */\n    tag_219:\n        /* \"#utility.yul\":3963:4005   */\n      tag_326\n        /* \"#utility.yul\":3999:4004   */\n      dup2\n        /* \"#utility.yul\":3963:4005   */\n      tag_218\n      jump\t// in\n    tag_326:\n        /* \"#utility.yul\":3958:3961   */\n      dup3\n        /* \"#utility.yul\":3951:4006   */\n      mstore\n        /* \"#utility.yul\":3871:4012   */\n      pop\n      pop\n      jump\t// out\n        /* \"#utility.yul\":4018:4250   */\n    tag_54:\n        /* \"#utility.yul\":4116:4120   */\n      0x00\n        /* \"#utility.yul\":4154:4156   */\n      0x20\n        /* \"#utility.yul\":4143:4152   */\n      dup3\n        /* \"#utility.yul\":4139:4157   */\n      add\n        /* \"#utility.yul\":4131:4157   */\n      swap1\n      pop\n        /* \"#utility.yul\":4167:4243   */\n      tag_328\n        /* \"#utility.yul\":4240:4241   */\n      0x00\n        /* \"#utility.yul\":4229:4238   */\n      dup4\n        /* \"#utility.yul\":4225:4242   */\n      add\n        /* \"#utility.yul\":4216:4222   */\n      dup5\n        /* \"#utility.yul\":4167:4243   */\n      tag_219\n      jump\t// in\n    tag_328:\n        /* \"#utility.yul\":4018:4250   */\n      swap3\n      swap2\n      pop\n      pop\n      jump\t// out\n        /* \"#utility.yul\":4256:4378   */\n    tag_220:\n        /* \"#utility.yul\":4329:4353   */\n      tag_330\n        /* \"#utility.yul\":4347:4352   */\n      dup2\n        /* \"#utility.yul\":4329:4353   */\n      tag_202\n      jump\t// in\n    tag_330:\n        /* \"#utility.yul\":4322:4327   */\n      dup2\n        /* \"#utility.yul\":4319:4354   */\n      eq\n        /* \"#utility.yul\":4309:4372   */\n      tag_331\n      jumpi\n        /* \"#utility.yul\":4368:4369   */\n      0x00\n        /* \"#utility.yul\":4365:4366   */\n      dup1\n        /* \"#utility.yul\":4358:4370   */\n      revert\n        /* \"#utility.yul\":4309:4372   */\n    tag_331:\n        /* \"#utility.yul\":4256:4378   */\n      pop\n      jump\t// out\n        /* \"#utility.yul\":4384:4523   */\n    tag_221:\n        /* \"#utility.yul\":4430:4435   */\n      0x00\n        /* \"#utility.yul\":4468:4474   */\n      dup2\n        /* \"#utility.yul\":4455:4475   */\n      calldataload\n        /* \"#utility.yul\":4446:4475   */\n      swap1\n      pop\n        /* \"#utility.yul\":4484:4517   */\n      tag_333\n        /* \"#utility.yul\":4511:4516   */\n      dup2\n        /* \"#utility.yul\":4484:4517   */\n      tag_220\n      jump\t// in\n    tag_333:\n        /* \"#utility.yul\":4384:4523   */\n      swap3\n      swap2\n      pop\n      pop\n      jump\t// out\n        /* \"#utility.yul\":4529:4858   */\n    tag_58:\n        /* \"#utility.yul\":4588:4594   */\n      0x00\n        /* \"#utility.yul\":4637:4639   */\n      0x20\n        /* \"#utility.yul\":4625:4634   */\n      dup3\n        /* \"#utility.yul\":4616:4623   */\n      dup5\n        /* \"#utility.yul\":4612:4635   */\n      sub\n        /* \"#utility.yul\":4608:4640   */\n      slt\n        /* \"#utility.yul\":4605:4724   */\n      iszero\n      tag_335\n      jumpi\n        /* \"#utility.yul\":4643:4722   */\n      tag_336\n      tag_210\n      jump\t// in\n    tag_336:\n        /* \"#utility.yul\":4605:4724   */\n    tag_335:\n        /* \"#utility.yul\":4763:4764   */\n      0x00\n        /* \"#utility.yul\":4788:4841   */\n      tag_337\n        /* \"#utility.yul\":4833:4840   */\n      dup5\n        /* \"#utility.yul\":4824:4830   */\n      dup3\n        /* \"#utility.yul\":4813:4822   */\n      dup6\n        /* \"#utility.yul\":4809:4831   */\n      add\n        /* \"#utility.yul\":4788:4841   */\n      tag_221\n      jump\t// in\n    tag_337:\n        /* \"#utility.yul\":4778:4841   */\n      swap2\n      pop\n        /* \"#utility.yul\":4734:4851   */\n      pop\n        /* \"#utility.yul\":4529:4858   */\n      swap3\n      swap2\n      pop\n      pop\n      jump\t// out\n        /* \"#utility.yul\":4864:5287   */\n    tag_61:\n        /* \"#utility.yul\":5005:5009   */\n      0x00\n        /* \"#utility.yul\":5043:5045   */\n      0x40\n        /* \"#utility.yul\":5032:5041   */\n      dup3\n        /* \"#utility.yul\":5028:5046   */\n      add\n        /* \"#utility.yul\":5020:5046   */\n      swap1\n      pop\n        /* \"#utility.yul\":5056:5127   */\n      tag_339\n        /* \"#utility.yul\":5124:5125   */\n      0x00\n        /* \"#utility.yul\":5113:5122   */\n      dup4\n        /* \"#utility.yul\":5109:5126   */\n      add\n        /* \"#utility.yul\":5100:5106   */\n      dup6\n        /* \"#utility.yul\":5056:5127   */\n      tag_215\n      jump\t// in\n    tag_339:\n        /* \"#utility.yul\":5174:5183   */\n      dup2\n        /* \"#utility.yul\":5168:5172   */\n      dup2\n        /* \"#utility.yul\":5164:5184   */\n      sub\n        /* \"#utility.yul\":5159:5161   */\n      0x20\n        /* \"#utility.yul\":5148:5157   */\n      dup4\n        /* \"#utility.yul\":5144:5162   */\n      add\n        /* \"#utility.yul\":5137:5185   */\n      mstore\n        /* \"#utility.yul\":5202:5280   */\n      tag_340\n        /* \"#utility.yul\":5275:5279   */\n      dup2\n        /* \"#utility.yul\":5266:5272   */\n      dup5\n        /* \"#utility.yul\":5202:5280   */\n      tag_208\n      jump\t// in\n    tag_340:\n        /* \"#utility.yul\":5194:5280   */\n      swap1\n      pop\n        /* \"#utility.yul\":4864:5287   */\n      swap4\n      swap3\n      pop\n      pop\n      pop\n      jump\t// out\n        /* \"#utility.yul\":5293:5410   */\n    tag_222:\n        /* \"#utility.yul\":5402:5403   */\n      0x00\n        /* \"#utility.yul\":5399:5400   */\n      dup1\n        /* \"#utility.yul\":5392:5404   */\n      revert\n        /* \"#utility.yul\":5416:5533   */\n    tag_223:\n        /* \"#utility.yul\":5525:5526   */\n      0x00\n        /* \"#utility.yul\":5522:5523   */\n      dup1\n        /* \"#utility.yul\":5515:5527   */\n      revert\n        /* \"#utility.yul\":5539:5719   */\n    tag_224:\n        /* \"#utility.yul\":5587:5664   */\n      0x4e487b7100000000000000000000000000000000000000000000000000000000\n        /* \"#utility.yul\":5584:5585   */\n      0x00\n        /* \"#utility.yul\":5577:5665   */\n      mstore\n        /* \"#utility.yul\":5684:5688   */\n      0x41\n        /* \"#utility.yul\":5681:5682   */\n      0x04\n        /* \"#utility.yul\":5674:5689   */\n      mstore\n        /* \"#utility.yul\":5708:5712   */\n      0x24\n        /* \"#utility.yul\":5705:5706   */\n      0x00\n        /* \"#utility.yul\":5698:5713   */\n      revert\n        /* \"#utility.yul\":5725:6006   */\n    tag_225:\n        /* \"#utility.yul\":5808:5835   */\n      tag_345\n        /* \"#utility.yul\":5830:5834   */\n      dup3\n        /* \"#utility.yul\":5808:5835   */\n      tag_207\n      jump\t// in\n    tag_345:\n        /* \"#utility.yul\":5800:5806   */\n      dup2\n        /* \"#utility.yul\":5796:5836   */\n      add\n        /* \"#utility.yul\":5938:5944   */\n      dup2\n        /* \"#utility.yul\":5926:5936   */\n      dup2\n        /* \"#utility.yul\":5923:5945   */\n      lt\n        /* \"#utility.yul\":5902:5920   */\n      0xffffffffffffffff\n        /* \"#utility.yul\":5890:5900   */\n      dup3\n        /* \"#utility.yul\":5887:5921   */\n      gt\n        /* \"#utility.yul\":5884:5946   */\n      or\n        /* \"#utility.yul\":5881:5969   */\n      iszero\n      tag_346\n      jumpi\n        /* \"#utility.yul\":5949:5967   */\n      tag_347\n      tag_224\n      jump\t// in\n    tag_347:\n        /* \"#utility.yul\":5881:5969   */\n    tag_346:\n        /* \"#utility.yul\":5989:5999   */\n      dup1\n        /* \"#utility.yul\":5985:5987   */\n      0x40\n        /* \"#utility.yul\":5978:6000   */\n      mstore\n        /* \"#utility.yul\":5768:6006   */\n      pop\n        /* \"#utility.yul\":5725:6006   */\n      pop\n      pop\n      jump\t// out\n        /* \"#utility.yul\":6012:6141   */\n    tag_226:\n        /* \"#utility.yul\":6046:6052   */\n      0x00\n        /* \"#utility.yul\":6073:6093   */\n      tag_349\n      tag_209\n      jump\t// in\n    tag_349:\n        /* \"#utility.yul\":6063:6093   */\n      swap1\n      pop\n        /* \"#utility.yul\":6102:6135   */\n      tag_350\n        /* \"#utility.yul\":6130:6134   */\n      dup3\n        /* \"#utility.yul\":6122:6128   */\n      dup3\n        /* \"#utility.yul\":6102:6135   */\n      tag_225\n      jump\t// in\n    tag_350:\n        /* \"#utility.yul\":6012:6141   */\n      swap2\n      swap1\n      pop\n      jump\t// out\n        /* \"#utility.yul\":6147:6455   */\n    tag_227:\n        /* \"#utility.yul\":6209:6213   */\n      0x00\n        /* \"#utility.yul\":6299:6317   */\n      0xffffffffffffffff\n        /* \"#utility.yul\":6291:6297   */\n      dup3\n        /* \"#utility.yul\":6288:6318   */\n      gt\n        /* \"#utility.yul\":6285:6341   */\n      iszero\n      tag_352\n      jumpi\n        /* \"#utility.yul\":6321:6339   */\n      tag_353\n      tag_224\n      jump\t// in\n    tag_353:\n        /* \"#utility.yul\":6285:6341   */\n    tag_352:\n        /* \"#utility.yul\":6359:6388   */\n      tag_354\n        /* \"#utility.yul\":6381:6387   */\n      dup3\n        /* \"#utility.yul\":6359:6388   */\n      tag_207\n      jump\t// in\n    tag_354:\n        /* \"#utility.yul\":6351:6388   */\n      swap1\n      pop\n        /* \"#utility.yul\":6443:6447   */\n      0x20\n        /* \"#utility.yul\":6437:6441   */\n      dup2\n        /* \"#utility.yul\":6433:6448   */\n      add\n        /* \"#utility.yul\":6425:6448   */\n      swap1\n      pop\n        /* \"#utility.yul\":6147:6455   */\n      swap2\n      swap1\n      pop\n      jump\t// out\n        /* \"#utility.yul\":6461:6607   */\n    tag_228:\n        /* \"#utility.yul\":6558:6564   */\n      dup3\n        /* \"#utility.yul\":6553:6556   */\n      dup2\n        /* \"#utility.yul\":6548:6551   */\n      dup4\n        /* \"#utility.yul\":6535:6565   */\n      calldatacopy\n        /* \"#utility.yul\":6599:6600   */\n      0x00\n        /* \"#utility.yul\":6590:6596   */\n      dup4\n        /* \"#utility.yul\":6585:6588   */\n      dup4\n        /* \"#utility.yul\":6581:6597   */\n      add\n        /* \"#utility.yul\":6574:6601   */\n      mstore\n        /* \"#utility.yul\":6461:6607   */\n      pop\n      pop\n      pop\n      jump\t// out\n        /* \"#utility.yul\":6613:7038   */\n    tag_229:\n        /* \"#utility.yul\":6691:6696   */\n      0x00\n        /* \"#utility.yul\":6716:6782   */\n      tag_357\n        /* \"#utility.yul\":6732:6781   */\n      tag_358\n        /* \"#utility.yul\":6774:6780   */\n      dup5\n        /* \"#utility.yul\":6732:6781   */\n      tag_227\n      jump\t// in\n    tag_358:\n        /* \"#utility.yul\":6716:6782   */\n      tag_226\n      jump\t// in\n    tag_357:\n        /* \"#utility.yul\":6707:6782   */\n      swap1\n      pop\n        /* \"#utility.yul\":6805:6811   */\n      dup3\n        /* \"#utility.yul\":6798:6803   */\n      dup2\n        /* \"#utility.yul\":6791:6812   */\n      mstore\n        /* \"#utility.yul\":6843:6847   */\n      0x20\n        /* \"#utility.yul\":6836:6841   */\n      dup2\n        /* \"#utility.yul\":6832:6848   */\n      add\n        /* \"#utility.yul\":6881:6884   */\n      dup5\n        /* \"#utility.yul\":6872:6878   */\n      dup5\n        /* \"#utility.yul\":6867:6870   */\n      dup5\n        /* \"#utility.yul\":6863:6879   */\n      add\n        /* \"#utility.yul\":6860:6885   */\n      gt\n        /* \"#utility.yul\":6857:6969   */\n      iszero\n      tag_359\n      jumpi\n        /* \"#utility.yul\":6888:6967   */\n      tag_360\n      tag_223\n      jump\t// in\n    tag_360:\n        /* \"#utility.yul\":6857:6969   */\n    tag_359:\n        /* \"#utility.yul\":6978:7032   */\n      tag_361\n        /* \"#utility.yul\":7025:7031   */\n      dup5\n        /* \"#utility.yul\":7020:7023   */\n      dup3\n        /* \"#utility.yul\":7015:7018   */\n      dup6\n        /* \"#utility.yul\":6978:7032   */\n      tag_228\n      jump\t// in\n    tag_361:\n        /* \"#utility.yul\":6697:7038   */\n      pop\n        /* \"#utility.yul\":6613:7038   */\n      swap4\n      swap3\n      pop\n      pop\n      pop\n      jump\t// out\n        /* \"#utility.yul\":7058:7398   */\n    tag_230:\n        /* \"#utility.yul\":7114:7119   */\n      0x00\n        /* \"#utility.yul\":7163:7166   */\n      dup3\n        /* \"#utility.yul\":7156:7160   */\n      0x1f\n        /* \"#utility.yul\":7148:7154   */\n      dup4\n        /* \"#utility.yul\":7144:7161   */\n      add\n        /* \"#utility.yul\":7140:7167   */\n      slt\n        /* \"#utility.yul\":7130:7252   */\n      tag_363\n      jumpi\n        /* \"#utility.yul\":7171:7250   */\n      tag_364\n      tag_222\n      jump\t// in\n    tag_364:\n        /* \"#utility.yul\":7130:7252   */\n    tag_363:\n        /* \"#utility.yul\":7288:7294   */\n      dup2\n        /* \"#utility.yul\":7275:7295   */\n      calldataload\n        /* \"#utility.yul\":7313:7392   */\n      tag_365\n        /* \"#utility.yul\":7388:7391   */\n      dup5\n        /* \"#utility.yul\":7380:7386   */\n      dup3\n        /* \"#utility.yul\":7373:7377   */\n      0x20\n        /* \"#utility.yul\":7365:7371   */\n      dup7\n        /* \"#utility.yul\":7361:7378   */\n      add\n        /* \"#utility.yul\":7313:7392   */\n      tag_229\n      jump\t// in\n    tag_365:\n        /* \"#utility.yul\":7304:7392   */\n      swap2\n      pop\n        /* \"#utility.yul\":7120:7398   */\n      pop\n        /* \"#utility.yul\":7058:7398   */\n      swap3\n      swap2\n      pop\n      pop\n      jump\t// out\n        /* \"#utility.yul\":7404:7913   */\n    tag_77:\n        /* \"#utility.yul\":7473:7479   */\n      0x00\n        /* \"#utility.yul\":7522:7524   */\n      0x20\n        /* \"#utility.yul\":7510:7519   */\n      dup3\n        /* \"#utility.yul\":7501:7508   */\n      dup5\n        /* \"#utility.yul\":7497:7520   */\n      sub\n        /* \"#utility.yul\":7493:7525   */\n      slt\n        /* \"#utility.yul\":7490:7609   */\n      iszero\n      tag_367\n      jumpi\n        /* \"#utility.yul\":7528:7607   */\n      tag_368\n      tag_210\n      jump\t// in\n    tag_368:\n        /* \"#utility.yul\":7490:7609   */\n    tag_367:\n        /* \"#utility.yul\":7676:7677   */\n      0x00\n        /* \"#utility.yul\":7665:7674   */\n      dup3\n        /* \"#utility.yul\":7661:7678   */\n      add\n        /* \"#utility.yul\":7648:7679   */\n      calldataload\n        /* \"#utility.yul\":7706:7724   */\n      0xffffffffffffffff\n        /* \"#utility.yul\":7698:7704   */\n      dup2\n        /* \"#utility.yul\":7695:7725   */\n      gt\n        /* \"#utility.yul\":7692:7809   */\n      iszero\n      tag_369\n      jumpi\n        /* \"#utility.yul\":7728:7807   */\n      tag_370\n      tag_211\n      jump\t// in\n    tag_370:\n        /* \"#utility.yul\":7692:7809   */\n    tag_369:\n        /* \"#utility.yul\":7833:7896   */\n      tag_371\n        /* \"#utility.yul\":7888:7895   */\n      dup5\n        /* \"#utility.yul\":7879:7885   */\n      dup3\n        /* \"#utility.yul\":7868:7877   */\n      dup6\n        /* \"#utility.yul\":7864:7886   */\n      add\n        /* \"#utility.yul\":7833:7896   */\n      tag_230\n      jump\t// in\n    tag_371:\n        /* \"#utility.yul\":7823:7896   */\n      swap2\n      pop\n        /* \"#utility.yul\":7619:7906   */\n      pop\n        /* \"#utility.yul\":7404:7913   */\n      swap3\n      swap2\n      pop\n      pop\n      jump\t// out\n        /* \"#utility.yul\":7919:8099   */\n    tag_231:\n        /* \"#utility.yul\":7967:8044   */\n      0x4e487b7100000000000000000000000000000000000000000000000000000000\n        /* \"#utility.yul\":7964:7965   */\n      0x00\n        /* \"#utility.yul\":7957:8045   */\n      mstore\n        /* \"#utility.yul\":8064:8068   */\n      0x22\n        /* \"#utility.yul\":8061:8062   */\n      0x04\n        /* \"#utility.yul\":8054:8069   */\n      mstore\n        /* \"#utility.yul\":8088:8092   */\n      0x24\n        /* \"#utility.yul\":8085:8086   */\n      0x00\n        /* \"#utility.yul\":8078:8093   */\n      revert\n        /* \"#utility.yul\":8105:8425   */\n    tag_84:\n        /* \"#utility.yul\":8149:8155   */\n      0x00\n        /* \"#utility.yul\":8186:8187   */\n      0x02\n        /* \"#utility.yul\":8180:8184   */\n      dup3\n        /* \"#utility.yul\":8176:8188   */\n      div\n        /* \"#utility.yul\":8166:8188   */\n      swap1\n      pop\n        /* \"#utility.yul\":8233:8234   */\n      0x01\n        /* \"#utility.yul\":8227:8231   */\n      dup3\n        /* \"#utility.yul\":8223:8235   */\n      and\n        /* \"#utility.yul\":8254:8272   */\n      dup1\n        /* \"#utility.yul\":8244:8325   */\n      tag_374\n      jumpi\n        /* \"#utility.yul\":8310:8314   */\n      0x7f\n        /* \"#utility.yul\":8302:8308   */\n      dup3\n        /* \"#utility.yul\":8298:8315   */\n      and\n        /* \"#utility.yul\":8288:8315   */\n      swap2\n      pop\n        /* \"#utility.yul\":8244:8325   */\n    tag_374:\n        /* \"#utility.yul\":8372:8374   */\n      0x20\n        /* \"#utility.yul\":8364:8370   */\n      dup3\n        /* \"#utility.yul\":8361:8375   */\n      lt\n        /* \"#utility.yul\":8341:8359   */\n      dup2\n        /* \"#utility.yul\":8338:8376   */\n      sub\n        /* \"#utility.yul\":8335:8419   */\n      tag_375\n      jumpi\n        /* \"#utility.yul\":8391:8409   */\n      tag_376\n      tag_231\n      jump\t// in\n    tag_376:\n        /* \"#utility.yul\":8335:8419   */\n    tag_375:\n        /* \"#utility.yul\":8156:8425   */\n      pop\n        /* \"#utility.yul\":8105:8425   */\n      swap2\n      swap1\n      pop\n      jump\t// out\n        /* \"#utility.yul\":8431:8611   */\n    tag_232:\n        /* \"#utility.yul\":8479:8556   */\n      0x4e487b7100000000000000000000000000000000000000000000000000000000\n        /* \"#utility.yul\":8476:8477   */\n      0x00\n        /* \"#utility.yul\":8469:8557   */\n      mstore\n        /* \"#utility.yul\":8576:8580   */\n      0x11\n        /* \"#utility.yul\":8573:8574   */\n      0x04\n        /* \"#utility.yul\":8566:8581   */\n      mstore\n        /* \"#utility.yul\":8600:8604   */\n      0x24\n        /* \"#utility.yul\":8597:8598   */\n      0x00\n        /* \"#utility.yul\":8590:8605   */\n      revert\n        /* \"#utility.yul\":8617:9027   */\n    tag_91:\n        /* \"#utility.yul\":8657:8664   */\n      0x00\n        /* \"#utility.yul\":8680:8700   */\n      tag_379\n        /* \"#utility.yul\":8698:8699   */\n      dup3\n        /* \"#utility.yul\":8680:8700   */\n      tag_212\n      jump\t// in\n    tag_379:\n        /* \"#utility.yul\":8675:8700   */\n      swap2\n      pop\n        /* \"#utility.yul\":8714:8734   */\n      tag_380\n        /* \"#utility.yul\":8732:8733   */\n      dup4\n        /* \"#utility.yul\":8714:8734   */\n      tag_212\n      jump\t// in\n    tag_380:\n        /* \"#utility.yul\":8709:8734   */\n      swap3\n      pop\n        /* \"#utility.yul\":8769:8770   */\n      dup3\n        /* \"#utility.yul\":8766:8767   */\n      dup3\n        /* \"#utility.yul\":8762:8771   */\n      mul\n        /* \"#utility.yul\":8791:8821   */\n      tag_381\n        /* \"#utility.yul\":8809:8820   */\n      dup2\n        /* \"#utility.yul\":8791:8821   */\n      tag_212\n      jump\t// in\n    tag_381:\n        /* \"#utility.yul\":8780:8821   */\n      swap2\n      pop\n        /* \"#utility.yul\":8970:8971   */\n      dup3\n        /* \"#utility.yul\":8961:8968   */\n      dup3\n        /* \"#utility.yul\":8957:8972   */\n      div\n        /* \"#utility.yul\":8954:8955   */\n      dup5\n        /* \"#utility.yul\":8951:8973   */\n      eq\n        /* \"#utility.yul\":8931:8932   */\n      dup4\n        /* \"#utility.yul\":8924:8933   */\n      iszero\n        /* \"#utility.yul\":8904:8987   */\n      or\n        /* \"#utility.yul\":8881:9020   */\n      tag_382\n      jumpi\n        /* \"#utility.yul\":9000:9018   */\n      tag_383\n      tag_232\n      jump\t// in\n    tag_383:\n        /* \"#utility.yul\":8881:9020   */\n    tag_382:\n        /* \"#utility.yul\":8665:9027   */\n      pop\n        /* \"#utility.yul\":8617:9027   */\n      swap3\n      swap2\n      pop\n      pop\n      jump\t// out\n        /* \"#utility.yul\":9033:9215   */\n    tag_233:\n        /* \"#utility.yul\":9173:9207   */\n      0x50726f6a656374206973206e6f7420696e20726566756e6420706572696f642e\n        /* \"#utility.yul\":9169:9170   */\n      0x00\n        /* \"#utility.yul\":9161:9167   */\n      dup3\n        /* \"#utility.yul\":9157:9171   */\n      add\n        /* \"#utility.yul\":9150:9208   */\n      mstore\n        /* \"#utility.yul\":9033:9215   */\n      pop\n      jump\t// out\n        /* \"#utility.yul\":9221:9587   */\n    tag_234:\n        /* \"#utility.yul\":9363:9366   */\n      0x00\n        /* \"#utility.yul\":9384:9451   */\n      tag_386\n        /* \"#utility.yul\":9448:9450   */\n      0x20\n        /* \"#utility.yul\":9443:9446   */\n      dup4\n        /* \"#utility.yul\":9384:9451   */\n      tag_205\n      jump\t// in\n    tag_386:\n        /* \"#utility.yul\":9377:9451   */\n      swap2\n      pop\n        /* \"#utility.yul\":9460:9553   */\n      tag_387\n        /* \"#utility.yul\":9549:9552   */\n      dup3\n        /* \"#utility.yul\":9460:9553   */\n      tag_233\n      jump\t// in\n    tag_387:\n        /* \"#utility.yul\":9578:9580   */\n      0x20\n        /* \"#utility.yul\":9573:9576   */\n      dup3\n        /* \"#utility.yul\":9569:9581   */\n      add\n        /* \"#utility.yul\":9562:9581   */\n      swap1\n      pop\n        /* \"#utility.yul\":9221:9587   */\n      swap2\n      swap1\n      pop\n      jump\t// out\n        /* \"#utility.yul\":9593:10012   */\n    tag_99:\n        /* \"#utility.yul\":9759:9763   */\n      0x00\n        /* \"#utility.yul\":9797:9799   */\n      0x20\n        /* \"#utility.yul\":9786:9795   */\n      dup3\n        /* \"#utility.yul\":9782:9800   */\n      add\n        /* \"#utility.yul\":9774:9800   */\n      swap1\n      pop\n        /* \"#utility.yul\":9846:9855   */\n      dup2\n        /* \"#utility.yul\":9840:9844   */\n      dup2\n        /* \"#utility.yul\":9836:9856   */\n      sub\n        /* \"#utility.yul\":9832:9833   */\n      0x00\n        /* \"#utility.yul\":9821:9830   */\n      dup4\n        /* \"#utility.yul\":9817:9834   */\n      add\n        /* \"#utility.yul\":9810:9857   */\n      mstore\n        /* \"#utility.yul\":9874:10005   */\n      tag_389\n        /* \"#utility.yul\":10000:10004   */\n      dup2\n        /* \"#utility.yul\":9874:10005   */\n      tag_234\n      jump\t// in\n    tag_389:\n        /* \"#utility.yul\":9866:10005   */\n      swap1\n      pop\n        /* \"#utility.yul\":9593:10012   */\n      swap2\n      swap1\n      pop\n      jump\t// out\n        /* \"#utility.yul\":10018:10187   */\n    tag_235:\n        /* \"#utility.yul\":10158:10179   */\n      0x526566756e6420706572696f64206f7665722e00000000000000000000000000\n        /* \"#utility.yul\":10154:10155   */\n      0x00\n        /* \"#utility.yul\":10146:10152   */\n      dup3\n        /* \"#utility.yul\":10142:10156   */\n      add\n        /* \"#utility.yul\":10135:10180   */\n      mstore\n        /* \"#utility.yul\":10018:10187   */\n      pop\n      jump\t// out\n        /* \"#utility.yul\":10193:10559   */\n    tag_236:\n        /* \"#utility.yul\":10335:10338   */\n      0x00\n        /* \"#utility.yul\":10356:10423   */\n      tag_392\n        /* \"#utility.yul\":10420:10422   */\n      0x13\n        /* \"#utility.yul\":10415:10418   */\n      dup4\n        /* \"#utility.yul\":10356:10423   */\n      tag_205\n      jump\t// in\n    tag_392:\n        /* \"#utility.yul\":10349:10423   */\n      swap2\n      pop\n        /* \"#utility.yul\":10432:10525   */\n      tag_393\n        /* \"#utility.yul\":10521:10524   */\n      dup3\n        /* \"#utility.yul\":10432:10525   */\n      tag_235\n      jump\t// in\n    tag_393:\n        /* \"#utility.yul\":10550:10552   */\n      0x20\n        /* \"#utility.yul\":10545:10548   */\n      dup3\n        /* \"#utility.yul\":10541:10553   */\n      add\n        /* \"#utility.yul\":10534:10553   */\n      swap1\n      pop\n        /* \"#utility.yul\":10193:10559   */\n      swap2\n      swap1\n      pop\n      jump\t// out\n        /* \"#utility.yul\":10565:10984   */\n    tag_102:\n        /* \"#utility.yul\":10731:10735   */\n      0x00\n        /* \"#utility.yul\":10769:10771   */\n      0x20\n        /* \"#utility.yul\":10758:10767   */\n      dup3\n        /* \"#utility.yul\":10754:10772   */\n      add\n        /* \"#utility.yul\":10746:10772   */\n      swap1\n      pop\n        /* \"#utility.yul\":10818:10827   */\n      dup2\n        /* \"#utility.yul\":10812:10816   */\n      dup2\n        /* \"#utility.yul\":10808:10828   */\n      sub\n        /* \"#utility.yul\":10804:10805   */\n      0x00\n        /* \"#utility.yul\":10793:10802   */\n      dup4\n        /* \"#utility.yul\":10789:10806   */\n      add\n        /* \"#utility.yul\":10782:10829   */\n      mstore\n        /* \"#utility.yul\":10846:10977   */\n      tag_395\n        /* \"#utility.yul\":10972:10976   */\n      dup2\n        /* \"#utility.yul\":10846:10977   */\n      tag_236\n      jump\t// in\n    tag_395:\n        /* \"#utility.yul\":10838:10977   */\n      swap1\n      pop\n        /* \"#utility.yul\":10565:10984   */\n      swap2\n      swap1\n      pop\n      jump\t// out\n        /* \"#utility.yul\":10990:11215   */\n    tag_237:\n        /* \"#utility.yul\":11130:11164   */\n      0x41736b696e6720616d6f756e742069732067726561746572207468616e20646f\n        /* \"#utility.yul\":11126:11127   */\n      0x00\n        /* \"#utility.yul\":11118:11124   */\n      dup3\n        /* \"#utility.yul\":11114:11128   */\n      add\n        /* \"#utility.yul\":11107:11165   */\n      mstore\n        /* \"#utility.yul\":11199:11207   */\n      0x6e617465642e0000000000000000000000000000000000000000000000000000\n        /* \"#utility.yul\":11194:11196   */\n      0x20\n        /* \"#utility.yul\":11186:11192   */\n      dup3\n        /* \"#utility.yul\":11182:11197   */\n      add\n        /* \"#utility.yul\":11175:11208   */\n      mstore\n        /* \"#utility.yul\":10990:11215   */\n      pop\n      jump\t// out\n        /* \"#utility.yul\":11221:11587   */\n    tag_238:\n        /* \"#utility.yul\":11363:11366   */\n      0x00\n        /* \"#utility.yul\":11384:11451   */\n      tag_398\n        /* \"#utility.yul\":11448:11450   */\n      0x26\n        /* \"#utility.yul\":11443:11446   */\n      dup4\n        /* \"#utility.yul\":11384:11451   */\n      tag_205\n      jump\t// in\n    tag_398:\n        /* \"#utility.yul\":11377:11451   */\n      swap2\n      pop\n        /* \"#utility.yul\":11460:11553   */\n      tag_399\n        /* \"#utility.yul\":11549:11552   */\n      dup3\n        /* \"#utility.yul\":11460:11553   */\n      tag_237\n      jump\t// in\n    tag_399:\n        /* \"#utility.yul\":11578:11580   */\n      0x40\n        /* \"#utility.yul\":11573:11576   */\n      dup3\n        /* \"#utility.yul\":11569:11581   */\n      add\n        /* \"#utility.yul\":11562:11581   */\n      swap1\n      pop\n        /* \"#utility.yul\":11221:11587   */\n      swap2\n      swap1\n      pop\n      jump\t// out\n        /* \"#utility.yul\":11593:12012   */\n    tag_105:\n        /* \"#utility.yul\":11759:11763   */\n      0x00\n        /* \"#utility.yul\":11797:11799   */\n      0x20\n        /* \"#utility.yul\":11786:11795   */\n      dup3\n        /* \"#utility.yul\":11782:11800   */\n      add\n        /* \"#utility.yul\":11774:11800   */\n      swap1\n      pop\n        /* \"#utility.yul\":11846:11855   */\n      dup2\n        /* \"#utility.yul\":11840:11844   */\n      dup2\n        /* \"#utility.yul\":11836:11856   */\n      sub\n        /* \"#utility.yul\":11832:11833   */\n      0x00\n        /* \"#utility.yul\":11821:11830   */\n      dup4\n        /* \"#utility.yul\":11817:11834   */\n      add\n        /* \"#utility.yul\":11810:11857   */\n      mstore\n        /* \"#utility.yul\":11874:12005   */\n      tag_401\n        /* \"#utility.yul\":12000:12004   */\n      dup2\n        /* \"#utility.yul\":11874:12005   */\n      tag_238\n      jump\t// in\n    tag_401:\n        /* \"#utility.yul\":11866:12005   */\n      swap1\n      pop\n        /* \"#utility.yul\":11593:12012   */\n      swap2\n      swap1\n      pop\n      jump\t// out\n        /* \"#utility.yul\":12018:12212   */\n    tag_107:\n        /* \"#utility.yul\":12058:12062   */\n      0x00\n        /* \"#utility.yul\":12078:12098   */\n      tag_403\n        /* \"#utility.yul\":12096:12097   */\n      dup3\n        /* \"#utility.yul\":12078:12098   */\n      tag_212\n      jump\t// in\n    tag_403:\n        /* \"#utility.yul\":12073:12098   */\n      swap2\n      pop\n        /* \"#utility.yul\":12112:12132   */\n      tag_404\n        /* \"#utility.yul\":12130:12131   */\n      dup4\n        /* \"#utility.yul\":12112:12132   */\n      tag_212\n      jump\t// in\n    tag_404:\n        /* \"#utility.yul\":12107:12132   */\n      swap3\n      pop\n        /* \"#utility.yul\":12156:12157   */\n      dup3\n        /* \"#utility.yul\":12153:12154   */\n      dup3\n        /* \"#utility.yul\":12149:12158   */\n      sub\n        /* \"#utility.yul\":12141:12158   */\n      swap1\n      pop\n        /* \"#utility.yul\":12180:12181   */\n      dup2\n        /* \"#utility.yul\":12174:12178   */\n      dup2\n        /* \"#utility.yul\":12171:12182   */\n      gt\n        /* \"#utility.yul\":12168:12205   */\n      iszero\n      tag_405\n      jumpi\n        /* \"#utility.yul\":12185:12203   */\n      tag_406\n      tag_232\n      jump\t// in\n    tag_406:\n        /* \"#utility.yul\":12168:12205   */\n    tag_405:\n        /* \"#utility.yul\":12018:12212   */\n      swap3\n      swap2\n      pop\n      pop\n      jump\t// out\n        /* \"#utility.yul\":12218:12459   */\n    tag_239:\n        /* \"#utility.yul\":12358:12392   */\n      0x596f7520646f206e6f7420686176652074686520617574686f7269747920746f\n        /* \"#utility.yul\":12354:12355   */\n      0x00\n        /* \"#utility.yul\":12346:12352   */\n      dup3\n        /* \"#utility.yul\":12342:12356   */\n      add\n        /* \"#utility.yul\":12335:12393   */\n      mstore\n        /* \"#utility.yul\":12427:12451   */\n      0x2066696e69736820726566756e6420706572696f642e00000000000000000000\n        /* \"#utility.yul\":12422:12424   */\n      0x20\n        /* \"#utility.yul\":12414:12420   */\n      dup3\n        /* \"#utility.yul\":12410:12425   */\n      add\n        /* \"#utility.yul\":12403:12452   */\n      mstore\n        /* \"#utility.yul\":12218:12459   */\n      pop\n      jump\t// out\n        /* \"#utility.yul\":12465:12831   */\n    tag_240:\n        /* \"#utility.yul\":12607:12610   */\n      0x00\n        /* \"#utility.yul\":12628:12695   */\n      tag_409\n        /* \"#utility.yul\":12692:12694   */\n      0x36\n        /* \"#utility.yul\":12687:12690   */\n      dup4\n        /* \"#utility.yul\":12628:12695   */\n      tag_205\n      jump\t// in\n    tag_409:\n        /* \"#utility.yul\":12621:12695   */\n      swap2\n      pop\n        /* \"#utility.yul\":12704:12797   */\n      tag_410\n        /* \"#utility.yul\":12793:12796   */\n      dup3\n        /* \"#utility.yul\":12704:12797   */\n      tag_239\n      jump\t// in\n    tag_410:\n        /* \"#utility.yul\":12822:12824   */\n      0x40\n        /* \"#utility.yul\":12817:12820   */\n      dup3\n        /* \"#utility.yul\":12813:12825   */\n      add\n        /* \"#utility.yul\":12806:12825   */\n      swap1\n      pop\n        /* \"#utility.yul\":12465:12831   */\n      swap2\n      swap1\n      pop\n      jump\t// out\n        /* \"#utility.yul\":12837:13256   */\n    tag_120:\n        /* \"#utility.yul\":13003:13007   */\n      0x00\n        /* \"#utility.yul\":13041:13043   */\n      0x20\n        /* \"#utility.yul\":13030:13039   */\n      dup3\n        /* \"#utility.yul\":13026:13044   */\n      add\n        /* \"#utility.yul\":13018:13044   */\n      swap1\n      pop\n        /* \"#utility.yul\":13090:13099   */\n      dup2\n        /* \"#utility.yul\":13084:13088   */\n      dup2\n        /* \"#utility.yul\":13080:13100   */\n      sub\n        /* \"#utility.yul\":13076:13077   */\n      0x00\n        /* \"#utility.yul\":13065:13074   */\n      dup4\n        /* \"#utility.yul\":13061:13078   */\n      add\n        /* \"#utility.yul\":13054:13101   */\n      mstore\n        /* \"#utility.yul\":13118:13249   */\n      tag_412\n        /* \"#utility.yul\":13244:13248   */\n      dup2\n        /* \"#utility.yul\":13118:13249   */\n      tag_240\n      jump\t// in\n    tag_412:\n        /* \"#utility.yul\":13110:13249   */\n      swap1\n      pop\n        /* \"#utility.yul\":12837:13256   */\n      swap2\n      swap1\n      pop\n      jump\t// out\n        /* \"#utility.yul\":13262:13442   */\n    tag_241:\n        /* \"#utility.yul\":13402:13434   */\n      0x526566756e6420706572696f64206973206e6f7420676f696e67206f6e2e0000\n        /* \"#utility.yul\":13398:13399   */\n      0x00\n        /* \"#utility.yul\":13390:13396   */\n      dup3\n        /* \"#utility.yul\":13386:13400   */\n      add\n        /* \"#utility.yul\":13379:13435   */\n      mstore\n        /* \"#utility.yul\":13262:13442   */\n      pop\n      jump\t// out\n        /* \"#utility.yul\":13448:13814   */\n    tag_242:\n        /* \"#utility.yul\":13590:13593   */\n      0x00\n        /* \"#utility.yul\":13611:13678   */\n      tag_415\n        /* \"#utility.yul\":13675:13677   */\n      0x1e\n        /* \"#utility.yul\":13670:13673   */\n      dup4\n        /* \"#utility.yul\":13611:13678   */\n      tag_205\n      jump\t// in\n    tag_415:\n        /* \"#utility.yul\":13604:13678   */\n      swap2\n      pop\n        /* \"#utility.yul\":13687:13780   */\n      tag_416\n        /* \"#utility.yul\":13776:13779   */\n      dup3\n        /* \"#utility.yul\":13687:13780   */\n      tag_241\n      jump\t// in\n    tag_416:\n        /* \"#utility.yul\":13805:13807   */\n      0x20\n        /* \"#utility.yul\":13800:13803   */\n      dup3\n        /* \"#utility.yul\":13796:13808   */\n      add\n        /* \"#utility.yul\":13789:13808   */\n      swap1\n      pop\n        /* \"#utility.yul\":13448:13814   */\n      swap2\n      swap1\n      pop\n      jump\t// out\n        /* \"#utility.yul\":13820:14239   */\n    tag_127:\n        /* \"#utility.yul\":13986:13990   */\n      0x00\n        /* \"#utility.yul\":14024:14026   */\n      0x20\n        /* \"#utility.yul\":14013:14022   */\n      dup3\n        /* \"#utility.yul\":14009:14027   */\n      add\n        /* \"#utility.yul\":14001:14027   */\n      swap1\n      pop\n        /* \"#utility.yul\":14073:14082   */\n      dup2\n        /* \"#utility.yul\":14067:14071   */\n      dup2\n        /* \"#utility.yul\":14063:14083   */\n      sub\n        /* \"#utility.yul\":14059:14060   */\n      0x00\n        /* \"#utility.yul\":14048:14057   */\n      dup4\n        /* \"#utility.yul\":14044:14061   */\n      add\n        /* \"#utility.yul\":14037:14084   */\n      mstore\n        /* \"#utility.yul\":14101:14232   */\n      tag_418\n        /* \"#utility.yul\":14227:14231   */\n      dup2\n        /* \"#utility.yul\":14101:14232   */\n      tag_242\n      jump\t// in\n    tag_418:\n        /* \"#utility.yul\":14093:14232   */\n      swap1\n      pop\n        /* \"#utility.yul\":13820:14239   */\n      swap2\n      swap1\n      pop\n      jump\t// out\n        /* \"#utility.yul\":14245:14421   */\n    tag_243:\n        /* \"#utility.yul\":14385:14413   */\n      0x526566756e6420706572696f64206973206e6f74206f7665722e000000000000\n        /* \"#utility.yul\":14381:14382   */\n      0x00\n        /* \"#utility.yul\":14373:14379   */\n      dup3\n        /* \"#utility.yul\":14369:14383   */\n      add\n        /* \"#utility.yul\":14362:14414   */\n      mstore\n        /* \"#utility.yul\":14245:14421   */\n      pop\n      jump\t// out\n        /* \"#utility.yul\":14427:14793   */\n    tag_244:\n        /* \"#utility.yul\":14569:14572   */\n      0x00\n        /* \"#utility.yul\":14590:14657   */\n      tag_421\n        /* \"#utility.yul\":14654:14656   */\n      0x1a\n        /* \"#utility.yul\":14649:14652   */\n      dup4\n        /* \"#utility.yul\":14590:14657   */\n      tag_205\n      jump\t// in\n    tag_421:\n        /* \"#utility.yul\":14583:14657   */\n      swap2\n      pop\n        /* \"#utility.yul\":14666:14759   */\n      tag_422\n        /* \"#utility.yul\":14755:14758   */\n      dup3\n        /* \"#utility.yul\":14666:14759   */\n      tag_243\n      jump\t// in\n    tag_422:\n        /* \"#utility.yul\":14784:14786   */\n      0x20\n        /* \"#utility.yul\":14779:14782   */\n      dup3\n        /* \"#utility.yul\":14775:14787   */\n      add\n        /* \"#utility.yul\":14768:14787   */\n      swap1\n      pop\n        /* \"#utility.yul\":14427:14793   */\n      swap2\n      swap1\n      pop\n      jump\t// out\n        /* \"#utility.yul\":14799:15218   */\n    tag_130:\n        /* \"#utility.yul\":14965:14969   */\n      0x00\n        /* \"#utility.yul\":15003:15005   */\n      0x20\n        /* \"#utility.yul\":14992:15001   */\n      dup3\n        /* \"#utility.yul\":14988:15006   */\n      add\n        /* \"#utility.yul\":14980:15006   */\n      swap1\n      pop\n        /* \"#utility.yul\":15052:15061   */\n      dup2\n        /* \"#utility.yul\":15046:15050   */\n      dup2\n        /* \"#utility.yul\":15042:15062   */\n      sub\n        /* \"#utility.yul\":15038:15039   */\n      0x00\n        /* \"#utility.yul\":15027:15036   */\n      dup4\n        /* \"#utility.yul\":15023:15040   */\n      add\n        /* \"#utility.yul\":15016:15063   */\n      mstore\n        /* \"#utility.yul\":15080:15211   */\n      tag_424\n        /* \"#utility.yul\":15206:15210   */\n      dup2\n        /* \"#utility.yul\":15080:15211   */\n      tag_244\n      jump\t// in\n    tag_424:\n        /* \"#utility.yul\":15072:15211   */\n      swap1\n      pop\n        /* \"#utility.yul\":14799:15218   */\n      swap2\n      swap1\n      pop\n      jump\t// out\n        /* \"#utility.yul\":15224:15454   */\n    tag_245:\n        /* \"#utility.yul\":15364:15398   */\n      0x596f7520646f206e6f74206861766520617574686f7269747920746f20636c6f\n        /* \"#utility.yul\":15360:15361   */\n      0x00\n        /* \"#utility.yul\":15352:15358   */\n      dup3\n        /* \"#utility.yul\":15348:15362   */\n      add\n        /* \"#utility.yul\":15341:15399   */\n      mstore\n        /* \"#utility.yul\":15433:15446   */\n      0x73652066756e64696e672e000000000000000000000000000000000000000000\n        /* \"#utility.yul\":15428:15430   */\n      0x20\n        /* \"#utility.yul\":15420:15426   */\n      dup3\n        /* \"#utility.yul\":15416:15431   */\n      add\n        /* \"#utility.yul\":15409:15447   */\n      mstore\n        /* \"#utility.yul\":15224:15454   */\n      pop\n      jump\t// out\n        /* \"#utility.yul\":15460:15826   */\n    tag_246:\n        /* \"#utility.yul\":15602:15605   */\n      0x00\n        /* \"#utility.yul\":15623:15690   */\n      tag_427\n        /* \"#utility.yul\":15687:15689   */\n      0x2b\n        /* \"#utility.yul\":15682:15685   */\n      dup4\n        /* \"#utility.yul\":15623:15690   */\n      tag_205\n      jump\t// in\n    tag_427:\n        /* \"#utility.yul\":15616:15690   */\n      swap2\n      pop\n        /* \"#utility.yul\":15699:15792   */\n      tag_428\n        /* \"#utility.yul\":15788:15791   */\n      dup3\n        /* \"#utility.yul\":15699:15792   */\n      tag_245\n      jump\t// in\n    tag_428:\n        /* \"#utility.yul\":15817:15819   */\n      0x40\n        /* \"#utility.yul\":15812:15815   */\n      dup3\n        /* \"#utility.yul\":15808:15820   */\n      add\n        /* \"#utility.yul\":15801:15820   */\n      swap1\n      pop\n        /* \"#utility.yul\":15460:15826   */\n      swap2\n      swap1\n      pop\n      jump\t// out\n        /* \"#utility.yul\":15832:16251   */\n    tag_141:\n        /* \"#utility.yul\":15998:16002   */\n      0x00\n        /* \"#utility.yul\":16036:16038   */\n      0x20\n        /* \"#utility.yul\":16025:16034   */\n      dup3\n        /* \"#utility.yul\":16021:16039   */\n      add\n        /* \"#utility.yul\":16013:16039   */\n      swap1\n      pop\n        /* \"#utility.yul\":16085:16094   */\n      dup2\n        /* \"#utility.yul\":16079:16083   */\n      dup2\n        /* \"#utility.yul\":16075:16095   */\n      sub\n        /* \"#utility.yul\":16071:16072   */\n      0x00\n        /* \"#utility.yul\":16060:16069   */\n      dup4\n        /* \"#utility.yul\":16056:16073   */\n      add\n        /* \"#utility.yul\":16049:16096   */\n      mstore\n        /* \"#utility.yul\":16113:16244   */\n      tag_430\n        /* \"#utility.yul\":16239:16243   */\n      dup2\n        /* \"#utility.yul\":16113:16244   */\n      tag_246\n      jump\t// in\n    tag_430:\n        /* \"#utility.yul\":16105:16244   */\n      swap1\n      pop\n        /* \"#utility.yul\":15832:16251   */\n      swap2\n      swap1\n      pop\n      jump\t// out\n        /* \"#utility.yul\":16257:16481   */\n    tag_247:\n        /* \"#utility.yul\":16397:16431   */\n      0x50726f6a6563742068617320636f6d706c657465642066756e64696e67207065\n        /* \"#utility.yul\":16393:16394   */\n      0x00\n        /* \"#utility.yul\":16385:16391   */\n      dup3\n        /* \"#utility.yul\":16381:16395   */\n      add\n        /* \"#utility.yul\":16374:16432   */\n      mstore\n        /* \"#utility.yul\":16466:16473   */\n      0x72696f642e000000000000000000000000000000000000000000000000000000\n        /* \"#utility.yul\":16461:16463   */\n      0x20\n        /* \"#utility.yul\":16453:16459   */\n      dup3\n        /* \"#utility.yul\":16449:16464   */\n      add\n        /* \"#utility.yul\":16442:16474   */\n      mstore\n        /* \"#utility.yul\":16257:16481   */\n      pop\n      jump\t// out\n        /* \"#utility.yul\":16487:16853   */\n    tag_248:\n        /* \"#utility.yul\":16629:16632   */\n      0x00\n        /* \"#utility.yul\":16650:16717   */\n      tag_433\n        /* \"#utility.yul\":16714:16716   */\n      0x25\n        /* \"#utility.yul\":16709:16712   */\n      dup4\n        /* \"#utility.yul\":16650:16717   */\n      tag_205\n      jump\t// in\n    tag_433:\n        /* \"#utility.yul\":16643:16717   */\n      swap2\n      pop\n        /* \"#utility.yul\":16726:16819   */\n      tag_434\n        /* \"#utility.yul\":16815:16818   */\n      dup3\n        /* \"#utility.yul\":16726:16819   */\n      tag_247\n      jump\t// in\n    tag_434:\n        /* \"#utility.yul\":16844:16846   */\n      0x40\n        /* \"#utility.yul\":16839:16842   */\n      dup3\n        /* \"#utility.yul\":16835:16847   */\n      add\n        /* \"#utility.yul\":16828:16847   */\n      swap1\n      pop\n        /* \"#utility.yul\":16487:16853   */\n      swap2\n      swap1\n      pop\n      jump\t// out\n        /* \"#utility.yul\":16859:17278   */\n    tag_148:\n        /* \"#utility.yul\":17025:17029   */\n      0x00\n        /* \"#utility.yul\":17063:17065   */\n      0x20\n        /* \"#utility.yul\":17052:17061   */\n      dup3\n        /* \"#utility.yul\":17048:17066   */\n      add\n        /* \"#utility.yul\":17040:17066   */\n      swap1\n      pop\n        /* \"#utility.yul\":17112:17121   */\n      dup2\n        /* \"#utility.yul\":17106:17110   */\n      dup2\n        /* \"#utility.yul\":17102:17122   */\n      sub\n        /* \"#utility.yul\":17098:17099   */\n      0x00\n        /* \"#utility.yul\":17087:17096   */\n      dup4\n        /* \"#utility.yul\":17083:17100   */\n      add\n        /* \"#utility.yul\":17076:17123   */\n      mstore\n        /* \"#utility.yul\":17140:17271   */\n      tag_436\n        /* \"#utility.yul\":17266:17270   */\n      dup2\n        /* \"#utility.yul\":17140:17271   */\n      tag_248\n      jump\t// in\n    tag_436:\n        /* \"#utility.yul\":17132:17271   */\n      swap1\n      pop\n        /* \"#utility.yul\":16859:17278   */\n      swap2\n      swap1\n      pop\n      jump\t// out\n        /* \"#utility.yul\":17284:17454   */\n    tag_249:\n        /* \"#utility.yul\":17424:17446   */\n      0x54617267657420686173206265656e206869742e000000000000000000000000\n        /* \"#utility.yul\":17420:17421   */\n      0x00\n        /* \"#utility.yul\":17412:17418   */\n      dup3\n        /* \"#utility.yul\":17408:17422   */\n      add\n        /* \"#utility.yul\":17401:17447   */\n      mstore\n        /* \"#utility.yul\":17284:17454   */\n      pop\n      jump\t// out\n        /* \"#utility.yul\":17460:17826   */\n    tag_250:\n        /* \"#utility.yul\":17602:17605   */\n      0x00\n        /* \"#utility.yul\":17623:17690   */\n      tag_439\n        /* \"#utility.yul\":17687:17689   */\n      0x14\n        /* \"#utility.yul\":17682:17685   */\n      dup4\n        /* \"#utility.yul\":17623:17690   */\n      tag_205\n      jump\t// in\n    tag_439:\n        /* \"#utility.yul\":17616:17690   */\n      swap2\n      pop\n        /* \"#utility.yul\":17699:17792   */\n      tag_440\n        /* \"#utility.yul\":17788:17791   */\n      dup3\n        /* \"#utility.yul\":17699:17792   */\n      tag_249\n      jump\t// in\n    tag_440:\n        /* \"#utility.yul\":17817:17819   */\n      0x20\n        /* \"#utility.yul\":17812:17815   */\n      dup3\n        /* \"#utility.yul\":17808:17820   */\n      add\n        /* \"#utility.yul\":17801:17820   */\n      swap1\n      pop\n        /* \"#utility.yul\":17460:17826   */\n      swap2\n      swap1\n      pop\n      jump\t// out\n        /* \"#utility.yul\":17832:18251   */\n    tag_151:\n        /* \"#utility.yul\":17998:18002   */\n      0x00\n        /* \"#utility.yul\":18036:18038   */\n      0x20\n        /* \"#utility.yul\":18025:18034   */\n      dup3\n        /* \"#utility.yul\":18021:18039   */\n      add\n        /* \"#utility.yul\":18013:18039   */\n      swap1\n      pop\n        /* \"#utility.yul\":18085:18094   */\n      dup2\n        /* \"#utility.yul\":18079:18083   */\n      dup2\n        /* \"#utility.yul\":18075:18095   */\n      sub\n        /* \"#utility.yul\":18071:18072   */\n      0x00\n        /* \"#utility.yul\":18060:18069   */\n      dup4\n        /* \"#utility.yul\":18056:18073   */\n      add\n        /* \"#utility.yul\":18049:18096   */\n      mstore\n        /* \"#utility.yul\":18113:18244   */\n      tag_442\n        /* \"#utility.yul\":18239:18243   */\n      dup2\n        /* \"#utility.yul\":18113:18244   */\n      tag_250\n      jump\t// in\n    tag_442:\n        /* \"#utility.yul\":18105:18244   */\n      swap1\n      pop\n        /* \"#utility.yul\":17832:18251   */\n      swap2\n      swap1\n      pop\n      jump\t// out\n        /* \"#utility.yul\":18257:18436   */\n    tag_251:\n        /* \"#utility.yul\":18397:18428   */\n      0x46756e64696e6720446561646c696e65206e6f7420526561636865642e000000\n        /* \"#utility.yul\":18393:18394   */\n      0x00\n        /* \"#utility.yul\":18385:18391   */\n      dup3\n        /* \"#utility.yul\":18381:18395   */\n      add\n        /* \"#utility.yul\":18374:18429   */\n      mstore\n        /* \"#utility.yul\":18257:18436   */\n      pop\n      jump\t// out\n        /* \"#utility.yul\":18442:18808   */\n    tag_252:\n        /* \"#utility.yul\":18584:18587   */\n      0x00\n        /* \"#utility.yul\":18605:18672   */\n      tag_445\n        /* \"#utility.yul\":18669:18671   */\n      0x1d\n        /* \"#utility.yul\":18664:18667   */\n      dup4\n        /* \"#utility.yul\":18605:18672   */\n      tag_205\n      jump\t// in\n    tag_445:\n        /* \"#utility.yul\":18598:18672   */\n      swap2\n      pop\n        /* \"#utility.yul\":18681:18774   */\n      tag_446\n        /* \"#utility.yul\":18770:18773   */\n      dup3\n        /* \"#utility.yul\":18681:18774   */\n      tag_251\n      jump\t// in\n    tag_446:\n        /* \"#utility.yul\":18799:18801   */\n      0x20\n        /* \"#utility.yul\":18794:18797   */\n      dup3\n        /* \"#utility.yul\":18790:18802   */\n      add\n        /* \"#utility.yul\":18783:18802   */\n      swap1\n      pop\n        /* \"#utility.yul\":18442:18808   */\n      swap2\n      swap1\n      pop\n      jump\t// out\n        /* \"#utility.yul\":18814:19233   */\n    tag_154:\n        /* \"#utility.yul\":18980:18984   */\n      0x00\n        /* \"#utility.yul\":19018:19020   */\n      0x20\n        /* \"#utility.yul\":19007:19016   */\n      dup3\n        /* \"#utility.yul\":19003:19021   */\n      add\n        /* \"#utility.yul\":18995:19021   */\n      swap1\n      pop\n        /* \"#utility.yul\":19067:19076   */\n      dup2\n        /* \"#utility.yul\":19061:19065   */\n      dup2\n        /* \"#utility.yul\":19057:19077   */\n      sub\n        /* \"#utility.yul\":19053:19054   */\n      0x00\n        /* \"#utility.yul\":19042:19051   */\n      dup4\n        /* \"#utility.yul\":19038:19055   */\n      add\n        /* \"#utility.yul\":19031:19078   */\n      mstore\n        /* \"#utility.yul\":19095:19226   */\n      tag_448\n        /* \"#utility.yul\":19221:19225   */\n      dup2\n        /* \"#utility.yul\":19095:19226   */\n      tag_252\n      jump\t// in\n    tag_448:\n        /* \"#utility.yul\":19087:19226   */\n      swap1\n      pop\n        /* \"#utility.yul\":18814:19233   */\n      swap2\n      swap1\n      pop\n      jump\t// out\n        /* \"#utility.yul\":19239:19430   */\n    tag_158:\n        /* \"#utility.yul\":19279:19282   */\n      0x00\n        /* \"#utility.yul\":19298:19318   */\n      tag_450\n        /* \"#utility.yul\":19316:19317   */\n      dup3\n        /* \"#utility.yul\":19298:19318   */\n      tag_212\n      jump\t// in\n    tag_450:\n        /* \"#utility.yul\":19293:19318   */\n      swap2\n      pop\n        /* \"#utility.yul\":19332:19352   */\n      tag_451\n        /* \"#utility.yul\":19350:19351   */\n      dup4\n        /* \"#utility.yul\":19332:19352   */\n      tag_212\n      jump\t// in\n    tag_451:\n        /* \"#utility.yul\":19327:19352   */\n      swap3\n      pop\n        /* \"#utility.yul\":19375:19376   */\n      dup3\n        /* \"#utility.yul\":19372:19373   */\n      dup3\n        /* \"#utility.yul\":19368:19377   */\n      add\n        /* \"#utility.yul\":19361:19377   */\n      swap1\n      pop\n        /* \"#utility.yul\":19396:19399   */\n      dup1\n        /* \"#utility.yul\":19393:19394   */\n      dup3\n        /* \"#utility.yul\":19390:19400   */\n      gt\n        /* \"#utility.yul\":19387:19423   */\n      iszero\n      tag_452\n      jumpi\n        /* \"#utility.yul\":19403:19421   */\n      tag_453\n      tag_232\n      jump\t// in\n    tag_453:\n        /* \"#utility.yul\":19387:19423   */\n    tag_452:\n        /* \"#utility.yul\":19239:19430   */\n      swap3\n      swap2\n      pop\n      pop\n      jump\t// out\n        /* \"#utility.yul\":19436:19611   */\n    tag_253:\n        /* \"#utility.yul\":19576:19603   */\n      0x50726f6a656374206973207374696c6c2072756e6e696e672e00000000000000\n        /* \"#utility.yul\":19572:19573   */\n      0x00\n        /* \"#utility.yul\":19564:19570   */\n      dup3\n        /* \"#utility.yul\":19560:19574   */\n      add\n        /* \"#utility.yul\":19553:19604   */\n      mstore\n        /* \"#utility.yul\":19436:19611   */\n      pop\n      jump\t// out\n        /* \"#utility.yul\":19617:19983   */\n    tag_254:\n        /* \"#utility.yul\":19759:19762   */\n      0x00\n        /* \"#utility.yul\":19780:19847   */\n      tag_456\n        /* \"#utility.yul\":19844:19846   */\n      0x19\n        /* \"#utility.yul\":19839:19842   */\n      dup4\n        /* \"#utility.yul\":19780:19847   */\n      tag_205\n      jump\t// in\n    tag_456:\n        /* \"#utility.yul\":19773:19847   */\n      swap2\n      pop\n        /* \"#utility.yul\":19856:19949   */\n      tag_457\n        /* \"#utility.yul\":19945:19948   */\n      dup3\n        /* \"#utility.yul\":19856:19949   */\n      tag_253\n      jump\t// in\n    tag_457:\n        /* \"#utility.yul\":19974:19976   */\n      0x20\n        /* \"#utility.yul\":19969:19972   */\n      dup3\n        /* \"#utility.yul\":19965:19977   */\n      add\n        /* \"#utility.yul\":19958:19977   */\n      swap1\n      pop\n        /* \"#utility.yul\":19617:19983   */\n      swap2\n      swap1\n      pop\n      jump\t// out\n        /* \"#utility.yul\":19989:20408   */\n    tag_166:\n        /* \"#utility.yul\":20155:20159   */\n      0x00\n        /* \"#utility.yul\":20193:20195   */\n      0x20\n        /* \"#utility.yul\":20182:20191   */\n      dup3\n        /* \"#utility.yul\":20178:20196   */\n      add\n        /* \"#utility.yul\":20170:20196   */\n      swap1\n      pop\n        /* \"#utility.yul\":20242:20251   */\n      dup2\n        /* \"#utility.yul\":20236:20240   */\n      dup2\n        /* \"#utility.yul\":20232:20252   */\n      sub\n        /* \"#utility.yul\":20228:20229   */\n      0x00\n        /* \"#utility.yul\":20217:20226   */\n      dup4\n        /* \"#utility.yul\":20213:20230   */\n      add\n        /* \"#utility.yul\":20206:20253   */\n      mstore\n        /* \"#utility.yul\":20270:20401   */\n      tag_459\n        /* \"#utility.yul\":20396:20400   */\n      dup2\n        /* \"#utility.yul\":20270:20401   */\n      tag_254\n      jump\t// in\n    tag_459:\n        /* \"#utility.yul\":20262:20401   */\n      swap1\n      pop\n        /* \"#utility.yul\":19989:20408   */\n      swap2\n      swap1\n      pop\n      jump\t// out\n        /* \"#utility.yul\":20414:20647   */\n    tag_255:\n        /* \"#utility.yul\":20554:20588   */\n      0x596f7520646f206e6f7420686176652074686520617574686f7269747920746f\n        /* \"#utility.yul\":20550:20551   */\n      0x00\n        /* \"#utility.yul\":20542:20548   */\n      dup3\n        /* \"#utility.yul\":20538:20552   */\n      add\n        /* \"#utility.yul\":20531:20589   */\n      mstore\n        /* \"#utility.yul\":20623:20639   */\n      0x206d616b65207061796d656e742e000000000000000000000000000000000000\n        /* \"#utility.yul\":20618:20620   */\n      0x20\n        /* \"#utility.yul\":20610:20616   */\n      dup3\n        /* \"#utility.yul\":20606:20621   */\n      add\n        /* \"#utility.yul\":20599:20640   */\n      mstore\n        /* \"#utility.yul\":20414:20647   */\n      pop\n      jump\t// out\n        /* \"#utility.yul\":20653:21019   */\n    tag_256:\n        /* \"#utility.yul\":20795:20798   */\n      0x00\n        /* \"#utility.yul\":20816:20883   */\n      tag_462\n        /* \"#utility.yul\":20880:20882   */\n      0x2e\n        /* \"#utility.yul\":20875:20878   */\n      dup4\n        /* \"#utility.yul\":20816:20883   */\n      tag_205\n      jump\t// in\n    tag_462:\n        /* \"#utility.yul\":20809:20883   */\n      swap2\n      pop\n        /* \"#utility.yul\":20892:20985   */\n      tag_463\n        /* \"#utility.yul\":20981:20984   */\n      dup3\n        /* \"#utility.yul\":20892:20985   */\n      tag_255\n      jump\t// in\n    tag_463:\n        /* \"#utility.yul\":21010:21012   */\n      0x40\n        /* \"#utility.yul\":21005:21008   */\n      dup3\n        /* \"#utility.yul\":21001:21013   */\n      add\n        /* \"#utility.yul\":20994:21013   */\n      swap1\n      pop\n        /* \"#utility.yul\":20653:21019   */\n      swap2\n      swap1\n      pop\n      jump\t// out\n        /* \"#utility.yul\":21025:21444   */\n    tag_169:\n        /* \"#utility.yul\":21191:21195   */\n      0x00\n        /* \"#utility.yul\":21229:21231   */\n      0x20\n        /* \"#utility.yul\":21218:21227   */\n      dup3\n        /* \"#utility.yul\":21214:21232   */\n      add\n        /* \"#utility.yul\":21206:21232   */\n      swap1\n      pop\n        /* \"#utility.yul\":21278:21287   */\n      dup2\n        /* \"#utility.yul\":21272:21276   */\n      dup2\n        /* \"#utility.yul\":21268:21288   */\n      sub\n        /* \"#utility.yul\":21264:21265   */\n      0x00\n        /* \"#utility.yul\":21253:21262   */\n      dup4\n        /* \"#utility.yul\":21249:21266   */\n      add\n        /* \"#utility.yul\":21242:21289   */\n      mstore\n        /* \"#utility.yul\":21306:21437   */\n      tag_465\n        /* \"#utility.yul\":21432:21436   */\n      dup2\n        /* \"#utility.yul\":21306:21437   */\n      tag_256\n      jump\t// in\n    tag_465:\n        /* \"#utility.yul\":21298:21437   */\n      swap1\n      pop\n        /* \"#utility.yul\":21025:21444   */\n      swap2\n      swap1\n      pop\n      jump\t// out\n        /* \"#utility.yul\":21450:21623   */\n    tag_257:\n        /* \"#utility.yul\":21590:21615   */\n      0x46756e64696e6720506572696f64206973206f7665722e000000000000000000\n        /* \"#utility.yul\":21586:21587   */\n      0x00\n        /* \"#utility.yul\":21578:21584   */\n      dup3\n        /* \"#utility.yul\":21574:21588   */\n      add\n        /* \"#utility.yul\":21567:21616   */\n      mstore\n        /* \"#utility.yul\":21450:21623   */\n      pop\n      jump\t// out\n        /* \"#utility.yul\":21629:21995   */\n    tag_258:\n        /* \"#utility.yul\":21771:21774   */\n      0x00\n        /* \"#utility.yul\":21792:21859   */\n      tag_468\n        /* \"#utility.yul\":21856:21858   */\n      0x17\n        /* \"#utility.yul\":21851:21854   */\n      dup4\n        /* \"#utility.yul\":21792:21859   */\n      tag_205\n      jump\t// in\n    tag_468:\n        /* \"#utility.yul\":21785:21859   */\n      swap2\n      pop\n        /* \"#utility.yul\":21868:21961   */\n      tag_469\n        /* \"#utility.yul\":21957:21960   */\n      dup3\n        /* \"#utility.yul\":21868:21961   */\n      tag_257\n      jump\t// in\n    tag_469:\n        /* \"#utility.yul\":21986:21988   */\n      0x20\n        /* \"#utility.yul\":21981:21984   */\n      dup3\n        /* \"#utility.yul\":21977:21989   */\n      add\n        /* \"#utility.yul\":21970:21989   */\n      swap1\n      pop\n        /* \"#utility.yul\":21629:21995   */\n      swap2\n      swap1\n      pop\n      jump\t// out\n        /* \"#utility.yul\":22001:22420   */\n    tag_181:\n        /* \"#utility.yul\":22167:22171   */\n      0x00\n        /* \"#utility.yul\":22205:22207   */\n      0x20\n        /* \"#utility.yul\":22194:22203   */\n      dup3\n        /* \"#utility.yul\":22190:22208   */\n      add\n        /* \"#utility.yul\":22182:22208   */\n      swap1\n      pop\n        /* \"#utility.yul\":22254:22263   */\n      dup2\n        /* \"#utility.yul\":22248:22252   */\n      dup2\n        /* \"#utility.yul\":22244:22264   */\n      sub\n        /* \"#utility.yul\":22240:22241   */\n      0x00\n        /* \"#utility.yul\":22229:22238   */\n      dup4\n        /* \"#utility.yul\":22225:22242   */\n      add\n        /* \"#utility.yul\":22218:22265   */\n      mstore\n        /* \"#utility.yul\":22282:22413   */\n      tag_471\n        /* \"#utility.yul\":22408:22412   */\n      dup2\n        /* \"#utility.yul\":22282:22413   */\n      tag_258\n      jump\t// in\n    tag_471:\n        /* \"#utility.yul\":22274:22413   */\n      swap1\n      pop\n        /* \"#utility.yul\":22001:22420   */\n      swap2\n      swap1\n      pop\n      jump\t// out\n        /* \"#utility.yul\":22426:22598   */\n    tag_259:\n        /* \"#utility.yul\":22566:22590   */\n      0x46756e646e6720506572696f64206973206f7665722e00000000000000000000\n        /* \"#utility.yul\":22562:22563   */\n      0x00\n        /* \"#utility.yul\":22554:22560   */\n      dup3\n        /* \"#utility.yul\":22550:22564   */\n      add\n        /* \"#utility.yul\":22543:22591   */\n      mstore\n        /* \"#utility.yul\":22426:22598   */\n      pop\n      jump\t// out\n        /* \"#utility.yul\":22604:22970   */\n    tag_260:\n        /* \"#utility.yul\":22746:22749   */\n      0x00\n        /* \"#utility.yul\":22767:22834   */\n      tag_474\n        /* \"#utility.yul\":22831:22833   */\n      0x16\n        /* \"#utility.yul\":22826:22829   */\n      dup4\n        /* \"#utility.yul\":22767:22834   */\n      tag_205\n      jump\t// in\n    tag_474:\n        /* \"#utility.yul\":22760:22834   */\n      swap2\n      pop\n        /* \"#utility.yul\":22843:22936   */\n      tag_475\n        /* \"#utility.yul\":22932:22935   */\n      dup3\n        /* \"#utility.yul\":22843:22936   */\n      tag_259\n      jump\t// in\n    tag_475:\n        /* \"#utility.yul\":22961:22963   */\n      0x20\n        /* \"#utility.yul\":22956:22959   */\n      dup3\n        /* \"#utility.yul\":22952:22964   */\n      add\n        /* \"#utility.yul\":22945:22964   */\n      swap1\n      pop\n        /* \"#utility.yul\":22604:22970   */\n      swap2\n      swap1\n      pop\n      jump\t// out\n        /* \"#utility.yul\":22976:23395   */\n    tag_184:\n        /* \"#utility.yul\":23142:23146   */\n      0x00\n        /* \"#utility.yul\":23180:23182   */\n      0x20\n        /* \"#utility.yul\":23169:23178   */\n      dup3\n        /* \"#utility.yul\":23165:23183   */\n      add\n        /* \"#utility.yul\":23157:23183   */\n      swap1\n      pop\n        /* \"#utility.yul\":23229:23238   */\n      dup2\n        /* \"#utility.yul\":23223:23227   */\n      dup2\n        /* \"#utility.yul\":23219:23239   */\n      sub\n        /* \"#utility.yul\":23215:23216   */\n      0x00\n        /* \"#utility.yul\":23204:23213   */\n      dup4\n        /* \"#utility.yul\":23200:23217   */\n      add\n        /* \"#utility.yul\":23193:23240   */\n      mstore\n        /* \"#utility.yul\":23257:23388   */\n      tag_477\n        /* \"#utility.yul\":23383:23387   */\n      dup2\n        /* \"#utility.yul\":23257:23388   */\n      tag_260\n      jump\t// in\n    tag_477:\n        /* \"#utility.yul\":23249:23388   */\n      swap1\n      pop\n        /* \"#utility.yul\":22976:23395   */\n      swap2\n      swap1\n      pop\n      jump\t// out\n        /* \"#utility.yul\":23401:23622   */\n    tag_261:\n        /* \"#utility.yul\":23541:23575   */\n      0x416d6f756e74206c657373207468616e206d696e696d756d20646f6e6174696f\n        /* \"#utility.yul\":23537:23538   */\n      0x00\n        /* \"#utility.yul\":23529:23535   */\n      dup3\n        /* \"#utility.yul\":23525:23539   */\n      add\n        /* \"#utility.yul\":23518:23576   */\n      mstore\n        /* \"#utility.yul\":23610:23614   */\n      0x6e2e000000000000000000000000000000000000000000000000000000000000\n        /* \"#utility.yul\":23605:23607   */\n      0x20\n        /* \"#utility.yul\":23597:23603   */\n      dup3\n        /* \"#utility.yul\":23593:23608   */\n      add\n        /* \"#utility.yul\":23586:23615   */\n      mstore\n        /* \"#utility.yul\":23401:23622   */\n      pop\n      jump\t// out\n        /* \"#utility.yul\":23628:23994   */\n    tag_262:\n        /* \"#utility.yul\":23770:23773   */\n      0x00\n        /* \"#utility.yul\":23791:23858   */\n      tag_480\n        /* \"#utility.yul\":23855:23857   */\n      0x22\n        /* \"#utility.yul\":23850:23853   */\n      dup4\n        /* \"#utility.yul\":23791:23858   */\n      tag_205\n      jump\t// in\n    tag_480:\n        /* \"#utility.yul\":23784:23858   */\n      swap2\n      pop\n        /* \"#utility.yul\":23867:23960   */\n      tag_481\n        /* \"#utility.yul\":23956:23959   */\n      dup3\n        /* \"#utility.yul\":23867:23960   */\n      tag_261\n      jump\t// in\n    tag_481:\n        /* \"#utility.yul\":23985:23987   */\n      0x40\n        /* \"#utility.yul\":23980:23983   */\n      dup3\n        /* \"#utility.yul\":23976:23988   */\n      add\n        /* \"#utility.yul\":23969:23988   */\n      swap1\n      pop\n        /* \"#utility.yul\":23628:23994   */\n      swap2\n      swap1\n      pop\n      jump\t// out\n        /* \"#utility.yul\":24000:24419   */\n    tag_187:\n        /* \"#utility.yul\":24166:24170   */\n      0x00\n        /* \"#utility.yul\":24204:24206   */\n      0x20\n        /* \"#utility.yul\":24193:24202   */\n      dup3\n        /* \"#utility.yul\":24189:24207   */\n      add\n        /* \"#utility.yul\":24181:24207   */\n      swap1\n      pop\n        /* \"#utility.yul\":24253:24262   */\n      dup2\n        /* \"#utility.yul\":24247:24251   */\n      dup2\n        /* \"#utility.yul\":24243:24263   */\n      sub\n        /* \"#utility.yul\":24239:24240   */\n      0x00\n        /* \"#utility.yul\":24228:24237   */\n      dup4\n        /* \"#utility.yul\":24224:24241   */\n      add\n        /* \"#utility.yul\":24217:24264   */\n      mstore\n        /* \"#utility.yul\":24281:24412   */\n      tag_483\n        /* \"#utility.yul\":24407:24411   */\n      dup2\n        /* \"#utility.yul\":24281:24412   */\n      tag_262\n      jump\t// in\n    tag_483:\n        /* \"#utility.yul\":24273:24412   */\n      swap1\n      pop\n        /* \"#utility.yul\":24000:24419   */\n      swap2\n      swap1\n      pop\n      jump\t// out\n        /* \"#utility.yul\":24425:24566   */\n    tag_263:\n        /* \"#utility.yul\":24474:24478   */\n      0x00\n        /* \"#utility.yul\":24497:24500   */\n      dup2\n        /* \"#utility.yul\":24489:24500   */\n      swap1\n      pop\n        /* \"#utility.yul\":24520:24523   */\n      dup2\n        /* \"#utility.yul\":24517:24518   */\n      0x00\n        /* \"#utility.yul\":24510:24524   */\n      mstore\n        /* \"#utility.yul\":24554:24558   */\n      0x20\n        /* \"#utility.yul\":24551:24552   */\n      0x00\n        /* \"#utility.yul\":24541:24559   */\n      keccak256\n        /* \"#utility.yul\":24533:24559   */\n      swap1\n      pop\n        /* \"#utility.yul\":24425:24566   */\n      swap2\n      swap1\n      pop\n      jump\t// out\n        /* \"#utility.yul\":24572:24665   */\n    tag_264:\n        /* \"#utility.yul\":24609:24615   */\n      0x00\n        /* \"#utility.yul\":24656:24658   */\n      0x20\n        /* \"#utility.yul\":24651:24653   */\n      0x1f\n        /* \"#utility.yul\":24644:24649   */\n      dup4\n        /* \"#utility.yul\":24640:24654   */\n      add\n        /* \"#utility.yul\":24636:24659   */\n      div\n        /* \"#utility.yul\":24626:24659   */\n      swap1\n      pop\n        /* \"#utility.yul\":24572:24665   */\n      swap2\n      swap1\n      pop\n      jump\t// out\n        /* \"#utility.yul\":24671:24778   */\n    tag_265:\n        /* \"#utility.yul\":24715:24723   */\n      0x00\n        /* \"#utility.yul\":24765:24770   */\n      dup3\n        /* \"#utility.yul\":24759:24763   */\n      dup3\n        /* \"#utility.yul\":24755:24771   */\n      shl\n        /* \"#utility.yul\":24734:24771   */\n      swap1\n      pop\n        /* \"#utility.yul\":24671:24778   */\n      swap3\n      swap2\n      pop\n      pop\n      jump\t// out\n        /* \"#utility.yul\":24784:25177   */\n    tag_266:\n        /* \"#utility.yul\":24853:24859   */\n      0x00\n        /* \"#utility.yul\":24903:24904   */\n      0x08\n        /* \"#utility.yul\":24891:24901   */\n      dup4\n        /* \"#utility.yul\":24887:24905   */\n      mul\n        /* \"#utility.yul\":24926:25023   */\n      tag_488\n        /* \"#utility.yul\":24956:25022   */\n      0xffffffffffffffffffffffffffffffffffffffffffffffffffffffffffffffff\n        /* \"#utility.yul\":24945:24954   */\n      dup3\n        /* \"#utility.yul\":24926:25023   */\n      tag_265\n      jump\t// in\n    tag_488:\n        /* \"#utility.yul\":25044:25083   */\n      tag_489\n        /* \"#utility.yul\":25074:25082   */\n      dup7\n        /* \"#utility.yul\":25063:25072   */\n      dup4\n        /* \"#utility.yul\":25044:25083   */\n      tag_265\n      jump\t// in\n    tag_489:\n        /* \"#utility.yul\":25032:25083   */\n      swap6\n      pop\n        /* \"#utility.yul\":25116:25120   */\n      dup1\n        /* \"#utility.yul\":25112:25121   */\n      not\n        /* \"#utility.yul\":25105:25110   */\n      dup5\n        /* \"#utility.yul\":25101:25122   */\n      and\n        /* \"#utility.yul\":25092:25122   */\n      swap4\n      pop\n        /* \"#utility.yul\":25165:25169   */\n      dup1\n        /* \"#utility.yul\":25155:25163   */\n      dup7\n        /* \"#utility.yul\":25151:25170   */\n      and\n        /* \"#utility.yul\":25144:25149   */\n      dup5\n        /* \"#utility.yul\":25141:25171   */\n      or\n        /* \"#utility.yul\":25131:25171   */\n      swap3\n      pop\n        /* \"#utility.yul\":24860:25177   */\n      pop\n      pop\n        /* \"#utility.yul\":24784:25177   */\n      swap4\n      swap3\n      pop\n      pop\n      pop\n      jump\t// out\n        /* \"#utility.yul\":25183:25243   */\n    tag_267:\n        /* \"#utility.yul\":25211:25214   */\n      0x00\n        /* \"#utility.yul\":25232:25237   */\n      dup2\n        /* \"#utility.yul\":25225:25237   */\n      swap1\n      pop\n        /* \"#utility.yul\":25183:25243   */\n      swap2\n      swap1\n      pop\n      jump\t// out\n        /* \"#utility.yul\":25249:25391   */\n    tag_268:\n        /* \"#utility.yul\":25299:25308   */\n      0x00\n        /* \"#utility.yul\":25332:25385   */\n      tag_492\n        /* \"#utility.yul\":25350:25384   */\n      tag_493\n        /* \"#utility.yul\":25359:25383   */\n      tag_494\n        /* \"#utility.yul\":25377:25382   */\n      dup5\n        /* \"#utility.yul\":25359:25383   */\n      tag_212\n      jump\t// in\n    tag_494:\n        /* \"#utility.yul\":25350:25384   */\n      tag_267\n      jump\t// in\n    tag_493:\n        /* \"#utility.yul\":25332:25385   */\n      tag_212\n      jump\t// in\n    tag_492:\n        /* \"#utility.yul\":25319:25385   */\n      swap1\n      pop\n        /* \"#utility.yul\":25249:25391   */\n      swap2\n      swap1\n      pop\n      jump\t// out\n        /* \"#utility.yul\":25397:25472   */\n    tag_269:\n        /* \"#utility.yul\":25440:25443   */\n      0x00\n        /* \"#utility.yul\":25461:25466   */\n      dup2\n        /* \"#utility.yul\":25454:25466   */\n      swap1\n      pop\n        /* \"#utility.yul\":25397:25472   */\n      swap2\n      swap1\n      pop\n      jump\t// out\n        /* \"#utility.yul\":25478:25747   */\n    tag_270:\n        /* \"#utility.yul\":25588:25627   */\n      tag_497\n        /* \"#utility.yul\":25619:25626   */\n      dup4\n        /* \"#utility.yul\":25588:25627   */\n      tag_268\n      jump\t// in\n    tag_497:\n        /* \"#utility.yul\":25649:25740   */\n      tag_498\n        /* \"#utility.yul\":25698:25739   */\n      tag_499\n        /* \"#utility.yul\":25722:25738   */\n      dup3\n        /* \"#utility.yul\":25698:25739   */\n      tag_269\n      jump\t// in\n    tag_499:\n        /* \"#utility.yul\":25690:25696   */\n      dup5\n        /* \"#utility.yul\":25683:25687   */\n      dup5\n        /* \"#utility.yul\":25677:25688   */\n      sload\n        /* \"#utility.yul\":25649:25740   */\n      tag_266\n      jump\t// in\n    tag_498:\n        /* \"#utility.yul\":25643:25647   */\n      dup3\n        /* \"#utility.yul\":25636:25741   */\n      sstore\n        /* \"#utility.yul\":25554:25747   */\n      pop\n        /* \"#utility.yul\":25478:25747   */\n      pop\n      pop\n      pop\n      jump\t// out\n        /* \"#utility.yul\":25753:25826   */\n    tag_271:\n        /* \"#utility.yul\":25798:25801   */\n      0x00\n        /* \"#utility.yul\":25753:25826   */\n      swap1\n      jump\t// out\n        /* \"#utility.yul\":25832:26021   */\n    tag_272:\n        /* \"#utility.yul\":25909:25941   */\n      tag_502\n      tag_271\n      jump\t// in\n    tag_502:\n        /* \"#utility.yul\":25950:26015   */\n      tag_503\n        /* \"#utility.yul\":26008:26014   */\n      dup2\n        /* \"#utility.yul\":26000:26006   */\n      dup5\n        /* \"#utility.yul\":25994:25998   */\n      dup5\n        /* \"#utility.yul\":25950:26015   */\n      tag_270\n      jump\t// in\n    tag_503:\n        /* \"#utility.yul\":25885:26021   */\n      pop\n        /* \"#utility.yul\":25832:26021   */\n      pop\n      pop\n      jump\t// out\n        /* \"#utility.yul\":26027:26213   */\n    tag_273:\n        /* \"#utility.yul\":26087:26207   */\n    tag_505:\n        /* \"#utility.yul\":26104:26107   */\n      dup2\n        /* \"#utility.yul\":26097:26102   */\n      dup2\n        /* \"#utility.yul\":26094:26108   */\n      lt\n        /* \"#utility.yul\":26087:26207   */\n      iszero\n      tag_507\n      jumpi\n        /* \"#utility.yul\":26158:26197   */\n      tag_508\n        /* \"#utility.yul\":26195:26196   */\n      0x00\n        /* \"#utility.yul\":26188:26193   */\n      dup3\n        /* \"#utility.yul\":26158:26197   */\n      tag_272\n      jump\t// in\n    tag_508:\n        /* \"#utility.yul\":26131:26132   */\n      0x01\n        /* \"#utility.yul\":26124:26129   */\n      dup2\n        /* \"#utility.yul\":26120:26133   */\n      add\n        /* \"#utility.yul\":26111:26133   */\n      swap1\n      pop\n        /* \"#utility.yul\":26087:26207   */\n      jump(tag_505)\n    tag_507:\n        /* \"#utility.yul\":26027:26213   */\n      pop\n      pop\n      jump\t// out\n        /* \"#utility.yul\":26219:26762   */\n    tag_274:\n        /* \"#utility.yul\":26320:26322   */\n      0x1f\n        /* \"#utility.yul\":26315:26318   */\n      dup3\n        /* \"#utility.yul\":26312:26323   */\n      gt\n        /* \"#utility.yul\":26309:26755   */\n      iszero\n      tag_510\n      jumpi\n        /* \"#utility.yul\":26354:26392   */\n      tag_511\n        /* \"#utility.yul\":26386:26391   */\n      dup2\n        /* \"#utility.yul\":26354:26392   */\n      tag_263\n      jump\t// in\n    tag_511:\n        /* \"#utility.yul\":26438:26467   */\n      tag_512\n        /* \"#utility.yul\":26456:26466   */\n      dup5\n        /* \"#utility.yul\":26438:26467   */\n      tag_264\n      jump\t// in\n    tag_512:\n        /* \"#utility.yul\":26428:26436   */\n      dup2\n        /* \"#utility.yul\":26424:26468   */\n      add\n        /* \"#utility.yul\":26621:26623   */\n      0x20\n        /* \"#utility.yul\":26609:26619   */\n      dup6\n        /* \"#utility.yul\":26606:26624   */\n      lt\n        /* \"#utility.yul\":26603:26652   */\n      iszero\n      tag_513\n      jumpi\n        /* \"#utility.yul\":26642:26650   */\n      dup2\n        /* \"#utility.yul\":26627:26650   */\n      swap1\n      pop\n        /* \"#utility.yul\":26603:26652   */\n    tag_513:\n        /* \"#utility.yul\":26665:26745   */\n      tag_514\n        /* \"#utility.yul\":26721:26743   */\n      tag_515\n        /* \"#utility.yul\":26739:26742   */\n      dup6\n        /* \"#utility.yul\":26721:26743   */\n      tag_264\n      jump\t// in\n    tag_515:\n        /* \"#utility.yul\":26711:26719   */\n      dup4\n        /* \"#utility.yul\":26707:26744   */\n      add\n        /* \"#utility.yul\":26694:26705   */\n      dup3\n        /* \"#utility.yul\":26665:26745   */\n      tag_273\n      jump\t// in\n    tag_514:\n        /* \"#utility.yul\":26324:26755   */\n      pop\n      pop\n        /* \"#utility.yul\":26309:26755   */\n    tag_510:\n        /* \"#utility.yul\":26219:26762   */\n      pop\n      pop\n      pop\n      jump\t// out\n        /* \"#utility.yul\":26768:26885   */\n    tag_275:\n        /* \"#utility.yul\":26822:26830   */\n      0x00\n        /* \"#utility.yul\":26872:26877   */\n      dup3\n        /* \"#utility.yul\":26866:26870   */\n      dup3\n        /* \"#utility.yul\":26862:26878   */\n      shr\n        /* \"#utility.yul\":26841:26878   */\n      swap1\n      pop\n        /* \"#utility.yul\":26768:26885   */\n      swap3\n      swap2\n      pop\n      pop\n      jump\t// out\n        /* \"#utility.yul\":26891:27060   */\n    tag_276:\n        /* \"#utility.yul\":26935:26941   */\n      0x00\n        /* \"#utility.yul\":26968:27019   */\n      tag_518\n        /* \"#utility.yul\":27016:27017   */\n      0x00\n        /* \"#utility.yul\":27012:27018   */\n      not\n        /* \"#utility.yul\":27004:27009   */\n      dup5\n        /* \"#utility.yul\":27001:27002   */\n      0x08\n        /* \"#utility.yul\":26997:27010   */\n      mul\n        /* \"#utility.yul\":26968:27019   */\n      tag_275\n      jump\t// in\n    tag_518:\n        /* \"#utility.yul\":26964:27020   */\n      not\n        /* \"#utility.yul\":27049:27053   */\n      dup1\n        /* \"#utility.yul\":27043:27047   */\n      dup4\n        /* \"#utility.yul\":27039:27054   */\n      and\n        /* \"#utility.yul\":27029:27054   */\n      swap2\n      pop\n        /* \"#utility.yul\":26942:27060   */\n      pop\n        /* \"#utility.yul\":26891:27060   */\n      swap3\n      swap2\n      pop\n      pop\n      jump\t// out\n        /* \"#utility.yul\":27065:27360   */\n    tag_277:\n        /* \"#utility.yul\":27141:27145   */\n      0x00\n        /* \"#utility.yul\":27287:27316   */\n      tag_520\n        /* \"#utility.yul\":27312:27315   */\n      dup4\n        /* \"#utility.yul\":27306:27310   */\n      dup4\n        /* \"#utility.yul\":27287:27316   */\n      tag_276\n      jump\t// in\n    tag_520:\n        /* \"#utility.yul\":27279:27316   */\n      swap2\n      pop\n        /* \"#utility.yul\":27349:27352   */\n      dup3\n        /* \"#utility.yul\":27346:27347   */\n      0x02\n        /* \"#utility.yul\":27342:27353   */\n      mul\n        /* \"#utility.yul\":27336:27340   */\n      dup3\n        /* \"#utility.yul\":27333:27354   */\n      or\n        /* \"#utility.yul\":27325:27354   */\n      swap1\n      pop\n        /* \"#utility.yul\":27065:27360   */\n      swap3\n      swap2\n      pop\n      pop\n      jump\t// out\n        /* \"#utility.yul\":27365:28760   */\n    tag_190:\n        /* \"#utility.yul\":27482:27519   */\n      tag_522\n        /* \"#utility.yul\":27515:27518   */\n      dup3\n        /* \"#utility.yul\":27482:27519   */\n      tag_204\n      jump\t// in\n    tag_522:\n        /* \"#utility.yul\":27584:27602   */\n      0xffffffffffffffff\n        /* \"#utility.yul\":27576:27582   */\n      dup2\n        /* \"#utility.yul\":27573:27603   */\n      gt\n        /* \"#utility.yul\":27570:27626   */\n      iszero\n      tag_523\n      jumpi\n        /* \"#utility.yul\":27606:27624   */\n      tag_524\n      tag_224\n      jump\t// in\n    tag_524:\n        /* \"#utility.yul\":27570:27626   */\n    tag_523:\n        /* \"#utility.yul\":27650:27688   */\n      tag_525\n        /* \"#utility.yul\":27682:27686   */\n      dup3\n        /* \"#utility.yul\":27676:27687   */\n      sload\n        /* \"#utility.yul\":27650:27688   */\n      tag_84\n      jump\t// in\n    tag_525:\n        /* \"#utility.yul\":27735:27802   */\n      tag_526\n        /* \"#utility.yul\":27795:27801   */\n      dup3\n        /* \"#utility.yul\":27787:27793   */\n      dup3\n        /* \"#utility.yul\":27781:27785   */\n      dup6\n        /* \"#utility.yul\":27735:27802   */\n      tag_274\n      jump\t// in\n    tag_526:\n        /* \"#utility.yul\":27829:27830   */\n      0x00\n        /* \"#utility.yul\":27853:27857   */\n      0x20\n        /* \"#utility.yul\":27840:27857   */\n      swap1\n      pop\n        /* \"#utility.yul\":27885:27887   */\n      0x1f\n        /* \"#utility.yul\":27877:27883   */\n      dup4\n        /* \"#utility.yul\":27874:27888   */\n      gt\n        /* \"#utility.yul\":27902:27903   */\n      0x01\n        /* \"#utility.yul\":27897:28515   */\n      dup2\n      eq\n      tag_528\n      jumpi\n        /* \"#utility.yul\":28559:28560   */\n      0x00\n        /* \"#utility.yul\":28576:28582   */\n      dup5\n        /* \"#utility.yul\":28573:28650   */\n      iszero\n      tag_529\n      jumpi\n        /* \"#utility.yul\":28625:28634   */\n      dup3\n        /* \"#utility.yul\":28620:28623   */\n      dup8\n        /* \"#utility.yul\":28616:28635   */\n      add\n        /* \"#utility.yul\":28610:28636   */\n      mload\n        /* \"#utility.yul\":28601:28636   */\n      swap1\n      pop\n        /* \"#utility.yul\":28573:28650   */\n    tag_529:\n        /* \"#utility.yul\":28676:28743   */\n      tag_530\n        /* \"#utility.yul\":28736:28742   */\n      dup6\n        /* \"#utility.yul\":28729:28734   */\n      dup3\n        /* \"#utility.yul\":28676:28743   */\n      tag_277\n      jump\t// in\n    tag_530:\n        /* \"#utility.yul\":28670:28674   */\n      dup7\n        /* \"#utility.yul\":28663:28744   */\n      sstore\n        /* \"#utility.yul\":28532:28754   */\n      pop\n        /* \"#utility.yul\":27867:28754   */\n      jump(tag_527)\n        /* \"#utility.yul\":27897:28515   */\n    tag_528:\n        /* \"#utility.yul\":27949:27953   */\n      0x1f\n        /* \"#utility.yul\":27945:27954   */\n      not\n        /* \"#utility.yul\":27937:27943   */\n      dup5\n        /* \"#utility.yul\":27933:27955   */\n      and\n        /* \"#utility.yul\":27983:28020   */\n      tag_531\n        /* \"#utility.yul\":28015:28019   */\n      dup7\n        /* \"#utility.yul\":27983:28020   */\n      tag_263\n      jump\t// in\n    tag_531:\n        /* \"#utility.yul\":28042:28043   */\n      0x00\n        /* \"#utility.yul\":28056:28264   */\n    tag_532:\n        /* \"#utility.yul\":28070:28077   */\n      dup3\n        /* \"#utility.yul\":28067:28068   */\n      dup2\n        /* \"#utility.yul\":28064:28078   */\n      lt\n        /* \"#utility.yul\":28056:28264   */\n      iszero\n      tag_534\n      jumpi\n        /* \"#utility.yul\":28149:28158   */\n      dup5\n        /* \"#utility.yul\":28144:28147   */\n      dup10\n        /* \"#utility.yul\":28140:28159   */\n      add\n        /* \"#utility.yul\":28134:28160   */\n      mload\n        /* \"#utility.yul\":28126:28132   */\n      dup3\n        /* \"#utility.yul\":28119:28161   */\n      sstore\n        /* \"#utility.yul\":28200:28201   */\n      0x01\n        /* \"#utility.yul\":28192:28198   */\n      dup3\n        /* \"#utility.yul\":28188:28202   */\n      add\n        /* \"#utility.yul\":28178:28202   */\n      swap2\n      pop\n        /* \"#utility.yul\":28247:28249   */\n      0x20\n        /* \"#utility.yul\":28236:28245   */\n      dup6\n        /* \"#utility.yul\":28232:28250   */\n      add\n        /* \"#utility.yul\":28219:28250   */\n      swap5\n      pop\n        /* \"#utility.yul\":28093:28097   */\n      0x20\n        /* \"#utility.yul\":28090:28091   */\n      dup2\n        /* \"#utility.yul\":28086:28098   */\n      add\n        /* \"#utility.yul\":28081:28098   */\n      swap1\n      pop\n        /* \"#utility.yul\":28056:28264   */\n      jump(tag_532)\n    tag_534:\n        /* \"#utility.yul\":28292:28298   */\n      dup7\n        /* \"#utility.yul\":28283:28290   */\n      dup4\n        /* \"#utility.yul\":28280:28299   */\n      lt\n        /* \"#utility.yul\":28277:28456   */\n      iszero\n      tag_535\n      jumpi\n        /* \"#utility.yul\":28350:28359   */\n      dup5\n        /* \"#utility.yul\":28345:28348   */\n      dup10\n        /* \"#utility.yul\":28341:28360   */\n      add\n        /* \"#utility.yul\":28335:28361   */\n      mload\n        /* \"#utility.yul\":28393:28441   */\n      tag_536\n        /* \"#utility.yul\":28435:28439   */\n      0x1f\n        /* \"#utility.yul\":28427:28433   */\n      dup10\n        /* \"#utility.yul\":28423:28440   */\n      and\n        /* \"#utility.yul\":28412:28421   */\n      dup3\n        /* \"#utility.yul\":28393:28441   */\n      tag_276\n      jump\t// in\n    tag_536:\n        /* \"#utility.yul\":28385:28391   */\n      dup4\n        /* \"#utility.yul\":28378:28442   */\n      sstore\n        /* \"#utility.yul\":28300:28456   */\n      pop\n        /* \"#utility.yul\":28277:28456   */\n    tag_535:\n        /* \"#utility.yul\":28502:28503   */\n      0x01\n        /* \"#utility.yul\":28498:28499   */\n      0x02\n        /* \"#utility.yul\":28490:28496   */\n      dup9\n        /* \"#utility.yul\":28486:28500   */\n      mul\n        /* \"#utility.yul\":28482:28504   */\n      add\n        /* \"#utility.yul\":28476:28480   */\n      dup9\n        /* \"#utility.yul\":28469:28505   */\n      sstore\n        /* \"#utility.yul\":27904:28515   */\n      pop\n      pop\n      pop\n        /* \"#utility.yul\":27867:28754   */\n    tag_527:\n      pop\n        /* \"#utility.yul\":27457:28760   */\n      pop\n      pop\n      pop\n        /* \"#utility.yul\":27365:28760   */\n      pop\n      pop\n      jump\t// out\n\n    auxdata: 0xa26469706673582212203b0d59b85f2f54ca5dcca642e157ca9481673f0b1d8617194f26fa046b42c16c64736f6c63430008130033\n}\n",
				"bytecode": {
					"linkReferences": {},
					"object": "608060405266038d7ea4c68000600b5562989680600c553480156200002357600080fd5b506040516200263a3803806200263a83398181016040528101906200004991906200038d565b866000806101000a81548173ffffffffffffffffffffffffffffffffffffffff021916908373ffffffffffffffffffffffffffffffffffffffff16021790555085600160006101000a81548173ffffffffffffffffffffffffffffffffffffffff021916908373ffffffffffffffffffffffffffffffffffffffff1602179055508460029081620000db9190620006bf565b508360039081620000ed9190620006bf565b50826004819055506000600581905550816006819055508142620001129190620007d5565b600881905550806007819055506000600a60006101000a81548160ff0219169083600381111562000148576200014762000810565b5b0217905550505050505050506200083f565b6000604051905090565b600080fd5b600080fd5b600073ffffffffffffffffffffffffffffffffffffffff82169050919050565b60006200019b826200016e565b9050919050565b620001ad816200018e565b8114620001b957600080fd5b50565b600081519050620001cd81620001a2565b92915050565b600080fd5b600080fd5b6000601f19601f8301169050919050565b7f4e487b7100000000000000000000000000000000000000000000000000000000600052604160045260246000fd5b6200022882620001dd565b810181811067ffffffffffffffff821117156200024a5762000249620001ee565b5b80604052505050565b60006200025f6200015a565b90506200026d82826200021d565b919050565b600067ffffffffffffffff82111562000290576200028f620001ee565b5b6200029b82620001dd565b9050602081019050919050565b60005b83811015620002c8578082015181840152602081019050620002ab565b60008484015250505050565b6000620002eb620002e58462000272565b62000253565b9050828152602081018484840111156200030a5762000309620001d8565b5b62000317848285620002a8565b509392505050565b600082601f830112620003375762000336620001d3565b5b815162000349848260208601620002d4565b91505092915050565b6000819050919050565b620003678162000352565b81146200037357600080fd5b50565b60008151905062000387816200035c565b92915050565b600080600080600080600060e0888a031215620003af57620003ae62000164565b5b6000620003bf8a828b01620001bc565b9750506020620003d28a828b01620001bc565b965050604088015167ffffffffffffffff811115620003f657620003f562000169565b5b620004048a828b016200031f565b955050606088015167ffffffffffffffff81111562000428576200042762000169565b5b620004368a828b016200031f565b9450506080620004498a828b0162000376565b93505060a06200045c8a828b0162000376565b92505060c06200046f8a828b0162000376565b91505092959891949750929550565b600081519050919050565b7f4e487b7100000000000000000000000000000000000000000000000000000000600052602260045260246000fd5b60006002820490506001821680620004d157607f821691505b602082108103620004e757620004e662000489565b5b50919050565b60008190508160005260206000209050919050565b60006020601f8301049050919050565b600082821b905092915050565b600060088302620005517fffffffffffffffffffffffffffffffffffffffffffffffffffffffffffffffff8262000512565b6200055d868362000512565b95508019841693508086168417925050509392505050565b6000819050919050565b6000620005a06200059a620005948462000352565b62000575565b62000352565b9050919050565b6000819050919050565b620005bc836200057f565b620005d4620005cb82620005a7565b8484546200051f565b825550505050565b600090565b620005eb620005dc565b620005f8818484620005b1565b505050565b5b81811015620006205762000614600082620005e1565b600181019050620005fe565b5050565b601f8211156200066f576200063981620004ed565b620006448462000502565b8101602085101562000654578190505b6200066c620006638562000502565b830182620005fd565b50505b505050565b600082821c905092915050565b6000620006946000198460080262000674565b1980831691505092915050565b6000620006af838362000681565b9150826002028217905092915050565b620006ca826200047e565b67ffffffffffffffff811115620006e657620006e5620001ee565b5b620006f28254620004b8565b620006ff82828562000624565b600060209050601f83116001811462000737576000841562000722578287015190505b6200072e8582620006a1565b8655506200079e565b601f1984166200074786620004ed565b60005b8281101562000771578489015182556001820191506020850194506020810190506200074a565b868310156200079157848901516200078d601f89168262000681565b8355505b6001600288020188555050505b505050505050565b7f4e487b7100000000000000000000000000000000000000000000000000000000600052601160045260246000fd5b6000620007e28262000352565b9150620007ef8362000352565b92508282019050808211156200080a5762000809620007a6565b5b92915050565b7f4e487b7100000000000000000000000000000000000000000000000000000000600052602160045260246000fd5b611deb806200084f6000396000f3fe6080604052600436106100e85760003560e01c8063c19d93fb1161008a578063e1aa1bcc11610059578063e1aa1bcc14610281578063f0ea4bfc146102ac578063f6b58310146102d7578063f7260d3e146102f3576100e8565b8063c19d93fb146101f7578063cc6cb19a14610222578063d886cab914610260578063d8d7970014610277576100e8565b806340193883116100c6578063401938831461015f5780637284e4161461018a578063796b23bb146101b5578063ad3bf1f1146101e0576100e8565b806302d05d3f146100ed57806306fdde0314610118578063278ecde114610143575b600080fd5b3480156100f957600080fd5b5061010261031e565b60405161010f9190610ebf565b60405180910390f35b34801561012457600080fd5b5061012d610342565b60405161013a9190610f6a565b60405180910390f35b61015d60048036038101906101589190610fd6565b6103d0565b005b34801561016b57600080fd5b506101746105b6565b6040516101819190611012565b60405180910390f35b34801561019657600080fd5b5061019f6105bc565b6040516101ac9190610f6a565b60405180910390f35b3480156101c157600080fd5b506101ca61064a565b6040516101d79190611012565b60405180910390f35b3480156101ec57600080fd5b506101f5610650565b005b34801561020357600080fd5b5061020c6107c6565b60405161021991906110a4565b60405180910390f35b34801561022e57600080fd5b50610249600480360381019061024491906110eb565b6107d9565b604051610257929190611118565b60405180910390f35b34801561026c57600080fd5b50610275610885565b005b61027f610a56565b005b34801561028d57600080fd5b50610296610bf0565b6040516102a39190611012565b60405180910390f35b3480156102b857600080fd5b506102c1610bf6565b6040516102ce9190611012565b60405180910390f35b6102f160048036038101906102ec919061127d565b610bfc565b005b3480156102ff57600080fd5b50610308610e58565b6040516103159190610ebf565b60405180910390f35b60008054906101000a900473ffffffffffffffffffffffffffffffffffffffff1681565b6002805461034f906112f5565b80601f016020809104026020016040519081016040528092919081815260200182805461037b906112f5565b80156103c85780601f1061039d576101008083540402835291602001916103c8565b820191906000526020600020905b8154815290600101906020018083116103ab57829003601f168201915b505050505081565b6000633b9aca00826103e29190611355565b90506000600d60003373ffffffffffffffffffffffffffffffffffffffff1673ffffffffffffffffffffffffffffffffffffffff16815260200190815260200160002090506001600381111561043b5761043a61102d565b5b600a60009054906101000a900460ff16600381111561045d5761045c61102d565b5b1461049d576040517f08c379a0000000000000000000000000000000000000000000000000000000008152600401610494906113e3565b60405180910390fd5b4260095410156104e2576040517f08c379a00000000000000000000000000000000000000000000000000000000081526004016104d99061144f565b60405180910390fd5b8181600001541015610529576040517f08c379a0000000000000000000000000000000000000000000000000000000008152600401610520906114e1565b60405180910390fd5b3373ffffffffffffffffffffffffffffffffffffffff166108fc600c54846105519190611501565b9081150290604051600060405180830381858888f1935050505015801561057c573d6000803e3d6000fd5b50818160000160008282546105919190611501565b9250508190555081600560008282546105aa9190611501565b92505081905550505050565b60045481565b600380546105c9906112f5565b80601f01602080910402602001604051908101604052809291908181526020018280546105f5906112f5565b80156106425780601f1061061757610100808354040283529160200191610642565b820191906000526020600020905b81548152906001019060200180831161062557829003601f168201915b505050505081565b60085481565b60008054906101000a900473ffffffffffffffffffffffffffffffffffffffff1673ffffffffffffffffffffffffffffffffffffffff163373ffffffffffffffffffffffffffffffffffffffff16146106de576040517f08c379a00000000000000000000000000000000000000000000000000000000081526004016106d5906115a7565b60405180910390fd5b600160038111156106f2576106f161102d565b5b600a60009054906101000a900460ff1660038111156107145761071361102d565b5b14610754576040517f08c379a000000000000000000000000000000000000000000000000000000000815260040161074b90611613565b60405180910390fd5b426009541115610799576040517f08c379a00000000000000000000000000000000000000000000000000000000081526004016107909061167f565b60405180910390fd5b6002600a60006101000a81548160ff021916908360038111156107bf576107be61102d565b5b0217905550565b600a60009054906101000a900460ff1681565b600d602052806000526040600020600091509050806000015490806001018054610802906112f5565b80601f016020809104026020016040519081016040528092919081815260200182805461082e906112f5565b801561087b5780601f106108505761010080835404028352916020019161087b565b820191906000526020600020905b81548152906001019060200180831161085e57829003601f168201915b5050505050905082565b60008054906101000a900473ffffffffffffffffffffffffffffffffffffffff1673ffffffffffffffffffffffffffffffffffffffff163373ffffffffffffffffffffffffffffffffffffffff1614610913576040517f08c379a000000000000000000000000000000000000000000000000000000000815260040161090a90611711565b60405180910390fd5b600060038111156109275761092661102d565b5b600a60009054906101000a900460ff1660038111156109495761094861102d565b5b14610989576040517f08c379a0000000000000000000000000000000000000000000000000000000008152600401610980906117a3565b60405180910390fd5b60045460055411156109d0576040517f08c379a00000000000000000000000000000000000000000000000000000000081526004016109c79061180f565b60405180910390fd5b600854421015610a15576040517f08c379a0000000000000000000000000000000000000000000000000000000008152600401610a0c9061187b565b60405180910390fd5b6001600a60006101000a81548160ff02191690836003811115610a3b57610a3a61102d565b5b021790555060075442610a4e919061189b565b600981905550565b60026003811115610a6a57610a6961102d565b5b600a60009054906101000a900460ff166003811115610a8c57610a8b61102d565b5b14610acc576040517f08c379a0000000000000000000000000000000000000000000000000000000008152600401610ac39061191b565b60405180910390fd5b60008054906101000a900473ffffffffffffffffffffffffffffffffffffffff1673ffffffffffffffffffffffffffffffffffffffff163373ffffffffffffffffffffffffffffffffffffffff1614610b5a576040517f08c379a0000000000000000000000000000000000000000000000000000000008152600401610b51906119ad565b60405180910390fd5b600160009054906101000a900473ffffffffffffffffffffffffffffffffffffffff1673ffffffffffffffffffffffffffffffffffffffff166108fc479081150290604051600060405180830381858888f19350505050158015610bc2573d6000803e3d6000fd5b506003600a60006101000a81548160ff02191690836003811115610be957610be861102d565b5b0217905550565b60095481565b60055481565b60006003811115610c1057610c0f61102d565b5b600a60009054906101000a900460ff166003811115610c3257610c3161102d565b5b14610c72576040517f08c379a0000000000000000000000000000000000000000000000000000000008152600401610c6990611a19565b60405180910390fd5b600854421115610cb7576040517f08c379a0000000000000000000000000000000000000000000000000000000008152600401610cae90611a85565b60405180910390fd5b600b54341015610cfc576040517f08c379a0000000000000000000000000000000000000000000000000000000008152600401610cf390611b17565b60405180910390fd5b6000600d60003373ffffffffffffffffffffffffffffffffffffffff1673ffffffffffffffffffffffffffffffffffffffff168152602001908152602001600020905034816000016000828254610d53919061189b565b9250508190555081816001019081610d6b9190611ce3565b503460056000828254610d7e919061189b565b9250508190555060045460055410610e54576000600454600554610da29190611501565b9050600c54811115610e1e573373ffffffffffffffffffffffffffffffffffffffff166108fc600c5483610dd69190611501565b9081150290604051600060405180830381858888f19350505050158015610e01573d6000803e3d6000fd5b5080826000016000828254610e169190611501565b925050819055505b6004546005819055506002600a60006101000a81548160ff02191690836003811115610e4d57610e4c61102d565b5b0217905550505b5050565b600160009054906101000a900473ffffffffffffffffffffffffffffffffffffffff1681565b600073ffffffffffffffffffffffffffffffffffffffff82169050919050565b6000610ea982610e7e565b9050919050565b610eb981610e9e565b82525050565b6000602082019050610ed46000830184610eb0565b92915050565b600081519050919050565b600082825260208201905092915050565b60005b83811015610f14578082015181840152602081019050610ef9565b60008484015250505050565b6000601f19601f8301169050919050565b6000610f3c82610eda565b610f468185610ee5565b9350610f56818560208601610ef6565b610f5f81610f20565b840191505092915050565b60006020820190508181036000830152610f848184610f31565b905092915050565b6000604051905090565b600080fd5b600080fd5b6000819050919050565b610fb381610fa0565b8114610fbe57600080fd5b50565b600081359050610fd081610faa565b92915050565b600060208284031215610fec57610feb610f96565b5b6000610ffa84828501610fc1565b91505092915050565b61100c81610fa0565b82525050565b60006020820190506110276000830184611003565b92915050565b7f4e487b7100000000000000000000000000000000000000000000000000000000600052602160045260246000fd5b6004811061106d5761106c61102d565b5b50565b600081905061107e8261105c565b919050565b600061108e82611070565b9050919050565b61109e81611083565b82525050565b60006020820190506110b96000830184611095565b92915050565b6110c881610e9e565b81146110d357600080fd5b50565b6000813590506110e5816110bf565b92915050565b60006020828403121561110157611100610f96565b5b600061110f848285016110d6565b91505092915050565b600060408201905061112d6000830185611003565b818103602083015261113f8184610f31565b90509392505050565b600080fd5b600080fd5b7f4e487b7100000000000000000000000000000000000000000000000000000000600052604160045260246000fd5b61118a82610f20565b810181811067ffffffffffffffff821117156111a9576111a8611152565b5b80604052505050565b60006111bc610f8c565b90506111c88282611181565b919050565b600067ffffffffffffffff8211156111e8576111e7611152565b5b6111f182610f20565b9050602081019050919050565b82818337600083830152505050565b600061122061121b846111cd565b6111b2565b90508281526020810184848401111561123c5761123b61114d565b5b6112478482856111fe565b509392505050565b600082601f83011261126457611263611148565b5b813561127484826020860161120d565b91505092915050565b60006020828403121561129357611292610f96565b5b600082013567ffffffffffffffff8111156112b1576112b0610f9b565b5b6112bd8482850161124f565b91505092915050565b7f4e487b7100000000000000000000000000000000000000000000000000000000600052602260045260246000fd5b6000600282049050600182168061130d57607f821691505b6020821081036113205761131f6112c6565b5b50919050565b7f4e487b7100000000000000000000000000000000000000000000000000000000600052601160045260246000fd5b600061136082610fa0565b915061136b83610fa0565b925082820261137981610fa0565b915082820484148315176113905761138f611326565b5b5092915050565b7f50726f6a656374206973206e6f7420696e20726566756e6420706572696f642e600082015250565b60006113cd602083610ee5565b91506113d882611397565b602082019050919050565b600060208201905081810360008301526113fc816113c0565b9050919050565b7f526566756e6420706572696f64206f7665722e00000000000000000000000000600082015250565b6000611439601383610ee5565b915061144482611403565b602082019050919050565b600060208201905081810360008301526114688161142c565b9050919050565b7f41736b696e6720616d6f756e742069732067726561746572207468616e20646f60008201527f6e617465642e0000000000000000000000000000000000000000000000000000602082015250565b60006114cb602683610ee5565b91506114d68261146f565b604082019050919050565b600060208201905081810360008301526114fa816114be565b9050919050565b600061150c82610fa0565b915061151783610fa0565b925082820390508181111561152f5761152e611326565b5b92915050565b7f596f7520646f206e6f7420686176652074686520617574686f7269747920746f60008201527f2066696e69736820726566756e6420706572696f642e00000000000000000000602082015250565b6000611591603683610ee5565b915061159c82611535565b604082019050919050565b600060208201905081810360008301526115c081611584565b9050919050565b7f526566756e6420706572696f64206973206e6f7420676f696e67206f6e2e0000600082015250565b60006115fd601e83610ee5565b9150611608826115c7565b602082019050919050565b6000602082019050818103600083015261162c816115f0565b9050919050565b7f526566756e6420706572696f64206973206e6f74206f7665722e000000000000600082015250565b6000611669601a83610ee5565b915061167482611633565b602082019050919050565b600060208201905081810360008301526116988161165c565b9050919050565b7f596f7520646f206e6f74206861766520617574686f7269747920746f20636c6f60008201527f73652066756e64696e672e000000000000000000000000000000000000000000602082015250565b60006116fb602b83610ee5565b91506117068261169f565b604082019050919050565b6000602082019050818103600083015261172a816116ee565b9050919050565b7f50726f6a6563742068617320636f6d706c657465642066756e64696e6720706560008201527f72696f642e000000000000000000000000000000000000000000000000000000602082015250565b600061178d602583610ee5565b915061179882611731565b604082019050919050565b600060208201905081810360008301526117bc81611780565b9050919050565b7f54617267657420686173206265656e206869742e000000000000000000000000600082015250565b60006117f9601483610ee5565b9150611804826117c3565b602082019050919050565b60006020820190508181036000830152611828816117ec565b9050919050565b7f46756e64696e6720446561646c696e65206e6f7420526561636865642e000000600082015250565b6000611865601d83610ee5565b91506118708261182f565b602082019050919050565b6000602082019050818103600083015261189481611858565b9050919050565b60006118a682610fa0565b91506118b183610fa0565b92508282019050808211156118c9576118c8611326565b5b92915050565b7f50726f6a656374206973207374696c6c2072756e6e696e672e00000000000000600082015250565b6000611905601983610ee5565b9150611910826118cf565b602082019050919050565b60006020820190508181036000830152611934816118f8565b9050919050565b7f596f7520646f206e6f7420686176652074686520617574686f7269747920746f60008201527f206d616b65207061796d656e742e000000000000000000000000000000000000602082015250565b6000611997602e83610ee5565b91506119a28261193b565b604082019050919050565b600060208201905081810360008301526119c68161198a565b9050919050565b7f46756e64696e6720506572696f64206973206f7665722e000000000000000000600082015250565b6000611a03601783610ee5565b9150611a0e826119cd565b602082019050919050565b60006020820190508181036000830152611a32816119f6565b9050919050565b7f46756e646e6720506572696f64206973206f7665722e00000000000000000000600082015250565b6000611a6f601683610ee5565b9150611a7a82611a39565b602082019050919050565b60006020820190508181036000830152611a9e81611a62565b9050919050565b7f416d6f756e74206c657373207468616e206d696e696d756d20646f6e6174696f60008201527f6e2e000000000000000000000000000000000000000000000000000000000000602082015250565b6000611b01602283610ee5565b9150611b0c82611aa5565b604082019050919050565b60006020820190508181036000830152611b3081611af4565b9050919050565b60008190508160005260206000209050919050565b60006020601f8301049050919050565b600082821b905092915050565b600060088302611b997fffffffffffffffffffffffffffffffffffffffffffffffffffffffffffffffff82611b5c565b611ba38683611b5c565b95508019841693508086168417925050509392505050565b6000819050919050565b6000611be0611bdb611bd684610fa0565b611bbb565b610fa0565b9050919050565b6000819050919050565b611bfa83611bc5565b611c0e611c0682611be7565b848454611b69565b825550505050565b600090565b611c23611c16565b611c2e818484611bf1565b505050565b5b81811015611c5257611c47600082611c1b565b600181019050611c34565b5050565b601f821115611c9757611c6881611b37565b611c7184611b4c565b81016020851015611c80578190505b611c94611c8c85611b4c565b830182611c33565b50505b505050565b600082821c905092915050565b6000611cba60001984600802611c9c565b1980831691505092915050565b6000611cd38383611ca9565b9150826002028217905092915050565b611cec82610eda565b67ffffffffffffffff811115611d0557611d04611152565b5b611d0f82546112f5565b611d1a828285611c56565b600060209050601f831160018114611d4d5760008415611d3b578287015190505b611d458582611cc7565b865550611dad565b601f198416611d5b86611b37565b60005b82811015611d8357848901518255600182019150602085019450602081019050611d5e565b86831015611da05784890151611d9c601f891682611ca9565b8355505b6001600288020188555050505b50505050505056fea26469706673582212203b0d59b85f2f54ca5dcca642e157ca9481673f0b1d8617194f26fa046b42c16c64736f6c63430008130033",
					"opcodes": "PUSH1 0x80 PUSH1 0x40 MSTORE PUSH7 0x38D7EA4C68000 PUSH1 0xB SSTORE PUSH3 0x989680 PUSH1 0xC SSTORE CALLVALUE DUP1 ISZERO PUSH3 0x23 JUMPI PUSH1 0x0 DUP1 REVERT JUMPDEST POP PUSH1 0x40 MLOAD PUSH3 0x263A CODESIZE SUB DUP1 PUSH3 0x263A DUP4 CODECOPY DUP2 DUP2 ADD PUSH1 0x40 MSTORE DUP2 ADD SWAP1 PUSH3 0x49 SWAP2 SWAP1 PUSH3 0x38D JUMP JUMPDEST DUP7 PUSH1 0x0 DUP1 PUSH2 0x100 EXP DUP2 SLOAD DUP2 PUSH20 0xFFFFFFFFFFFFFFFFFFFFFFFFFFFFFFFFFFFFFFFF MUL NOT AND SWAP1 DUP4 PUSH20 0xFFFFFFFFFFFFFFFFFFFFFFFFFFFFFFFFFFFFFFFF AND MUL OR SWAP1 SSTORE POP DUP6 PUSH1 0x1 PUSH1 0x0 PUSH2 0x100 EXP DUP2 SLOAD DUP2 PUSH20 0xFFFFFFFFFFFFFFFFFFFFFFFFFFFFFFFFFFFFFFFF MUL NOT AND SWAP1 DUP4 PUSH20 0xFFFFFFFFFFFFFFFFFFFFFFFFFFFFFFFFFFFFFFFF AND MUL OR SWAP1 SSTORE POP DUP5 PUSH1 0x2 SWAP1 DUP2 PUSH3 0xDB SWAP2 SWAP1 PUSH3 0x6BF JUMP JUMPDEST POP DUP4 PUSH1 0x3 SWAP1 DUP2 PUSH3 0xED SWAP2 SWAP1 PUSH3 0x6BF JUMP JUMPDEST POP DUP3 PUSH1 0x4 DUP2 SWAP1 SSTORE POP PUSH1 0x0 PUSH1 0x5 DUP2 SWAP1 SSTORE POP DUP2 PUSH1 0x6 DUP2 SWAP1 SSTORE POP DUP2 TIMESTAMP PUSH3 0x112 SWAP2 SWAP1 PUSH3 0x7D5 JUMP JUMPDEST PUSH1 0x8 DUP2 SWAP1 SSTORE POP DUP1 PUSH1 0x7 DUP2 SWAP1 SSTORE POP PUSH1 0x0 PUSH1 0xA PUSH1 0x0 PUSH2 0x100 EXP DUP2 SLOAD DUP2 PUSH1 0xFF MUL NOT AND SWAP1 DUP4 PUSH1 0x3 DUP2 GT ISZERO PUSH3 0x148 JUMPI PUSH3 0x147 PUSH3 0x810 JUMP JUMPDEST JUMPDEST MUL OR SWAP1 SSTORE POP POP POP POP POP POP POP POP PUSH3 0x83F JUMP JUMPDEST PUSH1 0x0 PUSH1 0x40 MLOAD SWAP1 POP SWAP1 JUMP JUMPDEST PUSH1 0x0 DUP1 REVERT JUMPDEST PUSH1 0x0 DUP1 REVERT JUMPDEST PUSH1 0x0 PUSH20 0xFFFFFFFFFFFFFFFFFFFFFFFFFFFFFFFFFFFFFFFF DUP3 AND SWAP1 POP SWAP2 SWAP1 POP JUMP JUMPDEST PUSH1 0x0 PUSH3 0x19B DUP3 PUSH3 0x16E JUMP JUMPDEST SWAP1 POP SWAP2 SWAP1 POP JUMP JUMPDEST PUSH3 0x1AD DUP2 PUSH3 0x18E JUMP JUMPDEST DUP2 EQ PUSH3 0x1B9 JUMPI PUSH1 0x0 DUP1 REVERT JUMPDEST POP JUMP JUMPDEST PUSH1 0x0 DUP2 MLOAD SWAP1 POP PUSH3 0x1CD DUP2 PUSH3 0x1A2 JUMP JUMPDEST SWAP3 SWAP2 POP POP JUMP JUMPDEST PUSH1 0x0 DUP1 REVERT JUMPDEST PUSH1 0x0 DUP1 REVERT JUMPDEST PUSH1 0x0 PUSH1 0x1F NOT PUSH1 0x1F DUP4 ADD AND SWAP1 POP SWAP2 SWAP1 POP JUMP JUMPDEST PUSH32 0x4E487B7100000000000000000000000000000000000000000000000000000000 PUSH1 0x0 MSTORE PUSH1 0x41 PUSH1 0x4 MSTORE PUSH1 0x24 PUSH1 0x0 REVERT JUMPDEST PUSH3 0x228 DUP3 PUSH3 0x1DD JUMP JUMPDEST DUP2 ADD DUP2 DUP2 LT PUSH8 0xFFFFFFFFFFFFFFFF DUP3 GT OR ISZERO PUSH3 0x24A JUMPI PUSH3 0x249 PUSH3 0x1EE JUMP JUMPDEST JUMPDEST DUP1 PUSH1 0x40 MSTORE POP POP POP JUMP JUMPDEST PUSH1 0x0 PUSH3 0x25F PUSH3 0x15A JUMP JUMPDEST SWAP1 POP PUSH3 0x26D DUP3 DUP3 PUSH3 0x21D JUMP JUMPDEST SWAP2 SWAP1 POP JUMP JUMPDEST PUSH1 0x0 PUSH8 0xFFFFFFFFFFFFFFFF DUP3 GT ISZERO PUSH3 0x290 JUMPI PUSH3 0x28F PUSH3 0x1EE JUMP JUMPDEST JUMPDEST PUSH3 0x29B DUP3 PUSH3 0x1DD JUMP JUMPDEST SWAP1 POP PUSH1 0x20 DUP2 ADD SWAP1 POP SWAP2 SWAP1 POP JUMP JUMPDEST PUSH1 0x0 JUMPDEST DUP4 DUP2 LT ISZERO PUSH3 0x2C8 JUMPI DUP1 DUP3 ADD MLOAD DUP2 DUP5 ADD MSTORE PUSH1 0x20 DUP2 ADD SWAP1 POP PUSH3 0x2AB JUMP JUMPDEST PUSH1 0x0 DUP5 DUP5 ADD MSTORE POP POP POP POP JUMP JUMPDEST PUSH1 0x0 PUSH3 0x2EB PUSH3 0x2E5 DUP5 PUSH3 0x272 JUMP JUMPDEST PUSH3 0x253 JUMP JUMPDEST SWAP1 POP DUP3 DUP2 MSTORE PUSH1 0x20 DUP2 ADD DUP5 DUP5 DUP5 ADD GT ISZERO PUSH3 0x30A JUMPI PUSH3 0x309 PUSH3 0x1D8 JUMP JUMPDEST JUMPDEST PUSH3 0x317 DUP5 DUP3 DUP6 PUSH3 0x2A8 JUMP JUMPDEST POP SWAP4 SWAP3 POP POP POP JUMP JUMPDEST PUSH1 0x0 DUP3 PUSH1 0x1F DUP4 ADD SLT PUSH3 0x337 JUMPI PUSH3 0x336 PUSH3 0x1D3 JUMP JUMPDEST JUMPDEST DUP2 MLOAD PUSH3 0x349 DUP5 DUP3 PUSH1 0x20 DUP7 ADD PUSH3 0x2D4 JUMP JUMPDEST SWAP2 POP POP SWAP3 SWAP2 POP POP JUMP JUMPDEST PUSH1 0x0 DUP2 SWAP1 POP SWAP2 SWAP1 POP JUMP JUMPDEST PUSH3 0x367 DUP2 PUSH3 0x352 JUMP JUMPDEST DUP2 EQ PUSH3 0x373 JUMPI PUSH1 0x0 DUP1 REVERT JUMPDEST POP JUMP JUMPDEST PUSH1 0x0 DUP2 MLOAD SWAP1 POP PUSH3 0x387 DUP2 PUSH3 0x35C JUMP JUMPDEST SWAP3 SWAP2 POP POP JUMP JUMPDEST PUSH1 0x0 DUP1 PUSH1 0x0 DUP1 PUSH1 0x0 DUP1 PUSH1 0x0 PUSH1 0xE0 DUP9 DUP11 SUB SLT ISZERO PUSH3 0x3AF JUMPI PUSH3 0x3AE PUSH3 0x164 JUMP JUMPDEST JUMPDEST PUSH1 0x0 PUSH3 0x3BF DUP11 DUP3 DUP12 ADD PUSH3 0x1BC JUMP JUMPDEST SWAP8 POP POP PUSH1 0x20 PUSH3 0x3D2 DUP11 DUP3 DUP12 ADD PUSH3 0x1BC JUMP JUMPDEST SWAP7 POP POP PUSH1 0x40 DUP9 ADD MLOAD PUSH8 0xFFFFFFFFFFFFFFFF DUP2 GT ISZERO PUSH3 0x3F6 JUMPI PUSH3 0x3F5 PUSH3 0x169 JUMP JUMPDEST JUMPDEST PUSH3 0x404 DUP11 DUP3 DUP12 ADD PUSH3 0x31F JUMP JUMPDEST SWAP6 POP POP PUSH1 0x60 DUP9 ADD MLOAD PUSH8 0xFFFFFFFFFFFFFFFF DUP2 GT ISZERO PUSH3 0x428 JUMPI PUSH3 0x427 PUSH3 0x169 JUMP JUMPDEST JUMPDEST PUSH3 0x436 DUP11 DUP3 DUP12 ADD PUSH3 0x31F JUMP JUMPDEST SWAP5 POP POP PUSH1 0x80 PUSH3 0x449 DUP11 DUP3 DUP12 ADD PUSH3 0x376 JUMP JUMPDEST SWAP4 POP POP PUSH1 0xA0 PUSH3 0x45C DUP11 DUP3 DUP12 ADD PUSH3 0x376 JUMP JUMPDEST SWAP3 POP POP PUSH1 0xC0 PUSH3 0x46F DUP11 DUP3 DUP12 ADD PUSH3 0x376 JUMP JUMPDEST SWAP2 POP POP SWAP3 SWAP6 SWAP9 SWAP2 SWAP5 SWAP8 POP SWAP3 SWAP6 POP JUMP JUMPDEST PUSH1 0x0 DUP2 MLOAD SWAP1 POP SWAP2 SWAP1 POP JUMP JUMPDEST PUSH32 0x4E487B7100000000000000000000000000000000000000000000000000000000 PUSH1 0x0 MSTORE PUSH1 0x22 PUSH1 0x4 MSTORE PUSH1 0x24 PUSH1 0x0 REVERT JUMPDEST PUSH1 0x0 PUSH1 0x2 DUP3 DIV SWAP1 POP PUSH1 0x1 DUP3 AND DUP1 PUSH3 0x4D1 JUMPI PUSH1 0x7F DUP3 AND SWAP2 POP JUMPDEST PUSH1 0x20 DUP3 LT DUP2 SUB PUSH3 0x4E7 JUMPI PUSH3 0x4E6 PUSH3 0x489 JUMP JUMPDEST JUMPDEST POP SWAP2 SWAP1 POP JUMP JUMPDEST PUSH1 0x0 DUP2 SWAP1 POP DUP2 PUSH1 0x0 MSTORE PUSH1 0x20 PUSH1 0x0 KECCAK256 SWAP1 POP SWAP2 SWAP1 POP JUMP JUMPDEST PUSH1 0x0 PUSH1 0x20 PUSH1 0x1F DUP4 ADD DIV SWAP1 POP SWAP2 SWAP1 POP JUMP JUMPDEST PUSH1 0x0 DUP3 DUP3 SHL SWAP1 POP SWAP3 SWAP2 POP POP JUMP JUMPDEST PUSH1 0x0 PUSH1 0x8 DUP4 MUL PUSH3 0x551 PUSH32 0xFFFFFFFFFFFFFFFFFFFFFFFFFFFFFFFFFFFFFFFFFFFFFFFFFFFFFFFFFFFFFFFF DUP3 PUSH3 0x512 JUMP JUMPDEST PUSH3 0x55D DUP7 DUP4 PUSH3 0x512 JUMP JUMPDEST SWAP6 POP DUP1 NOT DUP5 AND SWAP4 POP DUP1 DUP7 AND DUP5 OR SWAP3 POP POP POP SWAP4 SWAP3 POP POP POP JUMP JUMPDEST PUSH1 0x0 DUP2 SWAP1 POP SWAP2 SWAP1 POP JUMP JUMPDEST PUSH1 0x0 PUSH3 0x5A0 PUSH3 0x59A PUSH3 0x594 DUP5 PUSH3 0x352 JUMP JUMPDEST PUSH3 0x575 JUMP JUMPDEST PUSH3 0x352 JUMP JUMPDEST SWAP1 POP SWAP2 SWAP1 POP JUMP JUMPDEST PUSH1 0x0 DUP2 SWAP1 POP SWAP2 SWAP1 POP JUMP JUMPDEST PUSH3 0x5BC DUP4 PUSH3 0x57F JUMP JUMPDEST PUSH3 0x5D4 PUSH3 0x5CB DUP3 PUSH3 0x5A7 JUMP JUMPDEST DUP5 DUP5 SLOAD PUSH3 0x51F JUMP JUMPDEST DUP3 SSTORE POP POP POP POP JUMP JUMPDEST PUSH1 0x0 SWAP1 JUMP JUMPDEST PUSH3 0x5EB PUSH3 0x5DC JUMP JUMPDEST PUSH3 0x5F8 DUP2 DUP5 DUP5 PUSH3 0x5B1 JUMP JUMPDEST POP POP POP JUMP JUMPDEST JUMPDEST DUP2 DUP2 LT ISZERO PUSH3 0x620 JUMPI PUSH3 0x614 PUSH1 0x0 DUP3 PUSH3 0x5E1 JUMP JUMPDEST PUSH1 0x1 DUP2 ADD SWAP1 POP PUSH3 0x5FE JUMP JUMPDEST POP POP JUMP JUMPDEST PUSH1 0x1F DUP3 GT ISZERO PUSH3 0x66F JUMPI PUSH3 0x639 DUP2 PUSH3 0x4ED JUMP JUMPDEST PUSH3 0x644 DUP5 PUSH3 0x502 JUMP JUMPDEST DUP2 ADD PUSH1 0x20 DUP6 LT ISZERO PUSH3 0x654 JUMPI DUP2 SWAP1 POP JUMPDEST PUSH3 0x66C PUSH3 0x663 DUP6 PUSH3 0x502 JUMP JUMPDEST DUP4 ADD DUP3 PUSH3 0x5FD JUMP JUMPDEST POP POP JUMPDEST POP POP POP JUMP JUMPDEST PUSH1 0x0 DUP3 DUP3 SHR SWAP1 POP SWAP3 SWAP2 POP POP JUMP JUMPDEST PUSH1 0x0 PUSH3 0x694 PUSH1 0x0 NOT DUP5 PUSH1 0x8 MUL PUSH3 0x674 JUMP JUMPDEST NOT DUP1 DUP4 AND SWAP2 POP POP SWAP3 SWAP2 POP POP JUMP JUMPDEST PUSH1 0x0 PUSH3 0x6AF DUP4 DUP4 PUSH3 0x681 JUMP JUMPDEST SWAP2 POP DUP3 PUSH1 0x2 MUL DUP3 OR SWAP1 POP SWAP3 SWAP2 POP POP JUMP JUMPDEST PUSH3 0x6CA DUP3 PUSH3 0x47E JUMP JUMPDEST PUSH8 0xFFFFFFFFFFFFFFFF DUP2 GT ISZERO PUSH3 0x6E6 JUMPI PUSH3 0x6E5 PUSH3 0x1EE JUMP JUMPDEST JUMPDEST PUSH3 0x6F2 DUP3 SLOAD PUSH3 0x4B8 JUMP JUMPDEST PUSH3 0x6FF DUP3 DUP3 DUP6 PUSH3 0x624 JUMP JUMPDEST PUSH1 0x0 PUSH1 0x20 SWAP1 POP PUSH1 0x1F DUP4 GT PUSH1 0x1 DUP2 EQ PUSH3 0x737 JUMPI PUSH1 0x0 DUP5 ISZERO PUSH3 0x722 JUMPI DUP3 DUP8 ADD MLOAD SWAP1 POP JUMPDEST PUSH3 0x72E DUP6 DUP3 PUSH3 0x6A1 JUMP JUMPDEST DUP7 SSTORE POP PUSH3 0x79E JUMP JUMPDEST PUSH1 0x1F NOT DUP5 AND PUSH3 0x747 DUP7 PUSH3 0x4ED JUMP JUMPDEST PUSH1 0x0 JUMPDEST DUP3 DUP2 LT ISZERO PUSH3 0x771 JUMPI DUP5 DUP10 ADD MLOAD DUP3 SSTORE PUSH1 0x1 DUP3 ADD SWAP2 POP PUSH1 0x20 DUP6 ADD SWAP5 POP PUSH1 0x20 DUP2 ADD SWAP1 POP PUSH3 0x74A JUMP JUMPDEST DUP7 DUP4 LT ISZERO PUSH3 0x791 JUMPI DUP5 DUP10 ADD MLOAD PUSH3 0x78D PUSH1 0x1F DUP10 AND DUP3 PUSH3 0x681 JUMP JUMPDEST DUP4 SSTORE POP JUMPDEST PUSH1 0x1 PUSH1 0x2 DUP9 MUL ADD DUP9 SSTORE POP POP POP JUMPDEST POP POP POP POP POP POP JUMP JUMPDEST PUSH32 0x4E487B7100000000000000000000000000000000000000000000000000000000 PUSH1 0x0 MSTORE PUSH1 0x11 PUSH1 0x4 MSTORE PUSH1 0x24 PUSH1 0x0 REVERT JUMPDEST PUSH1 0x0 PUSH3 0x7E2 DUP3 PUSH3 0x352 JUMP JUMPDEST SWAP2 POP PUSH3 0x7EF DUP4 PUSH3 0x352 JUMP JUMPDEST SWAP3 POP DUP3 DUP3 ADD SWAP1 POP DUP1 DUP3 GT ISZERO PUSH3 0x80A JUMPI PUSH3 0x809 PUSH3 0x7A6 JUMP JUMPDEST JUMPDEST SWAP3 SWAP2 POP POP JUMP JUMPDEST PUSH32 0x4E487B7100000000000000000000000000000000000000000000000000000000 PUSH1 0x0 MSTORE PUSH1 0x21 PUSH1 0x4 MSTORE PUSH1 0x24 PUSH1 0x0 REVERT JUMPDEST PUSH2 0x1DEB DUP1 PUSH3 0x84F PUSH1 0x0 CODECOPY PUSH1 0x0 RETURN INVALID PUSH1 0x80 PUSH1 0x40 MSTORE PUSH1 0x4 CALLDATASIZE LT PUSH2 0xE8 JUMPI PUSH1 0x0 CALLDATALOAD PUSH1 0xE0 SHR DUP1 PUSH4 0xC19D93FB GT PUSH2 0x8A JUMPI DUP1 PUSH4 0xE1AA1BCC GT PUSH2 0x59 JUMPI DUP1 PUSH4 0xE1AA1BCC EQ PUSH2 0x281 JUMPI DUP1 PUSH4 0xF0EA4BFC EQ PUSH2 0x2AC JUMPI DUP1 PUSH4 0xF6B58310 EQ PUSH2 0x2D7 JUMPI DUP1 PUSH4 0xF7260D3E EQ PUSH2 0x2F3 JUMPI PUSH2 0xE8 JUMP JUMPDEST DUP1 PUSH4 0xC19D93FB EQ PUSH2 0x1F7 JUMPI DUP1 PUSH4 0xCC6CB19A EQ PUSH2 0x222 JUMPI DUP1 PUSH4 0xD886CAB9 EQ PUSH2 0x260 JUMPI DUP1 PUSH4 0xD8D79700 EQ PUSH2 0x277 JUMPI PUSH2 0xE8 JUMP JUMPDEST DUP1 PUSH4 0x40193883 GT PUSH2 0xC6 JUMPI DUP1 PUSH4 0x40193883 EQ PUSH2 0x15F JUMPI DUP1 PUSH4 0x7284E416 EQ PUSH2 0x18A JUMPI DUP1 PUSH4 0x796B23BB EQ PUSH2 0x1B5 JUMPI DUP1 PUSH4 0xAD3BF1F1 EQ PUSH2 0x1E0 JUMPI PUSH2 0xE8 JUMP JUMPDEST DUP1 PUSH4 0x2D05D3F EQ PUSH2 0xED JUMPI DUP1 PUSH4 0x6FDDE03 EQ PUSH2 0x118 JUMPI DUP1 PUSH4 0x278ECDE1 EQ PUSH2 0x143 JUMPI JUMPDEST PUSH1 0x0 DUP1 REVERT JUMPDEST CALLVALUE DUP1 ISZERO PUSH2 0xF9 JUMPI PUSH1 0x0 DUP1 REVERT JUMPDEST POP PUSH2 0x102 PUSH2 0x31E JUMP JUMPDEST PUSH1 0x40 MLOAD PUSH2 0x10F SWAP2 SWAP1 PUSH2 0xEBF JUMP JUMPDEST PUSH1 0x40 MLOAD DUP1 SWAP2 SUB SWAP1 RETURN JUMPDEST CALLVALUE DUP1 ISZERO PUSH2 0x124 JUMPI PUSH1 0x0 DUP1 REVERT JUMPDEST POP PUSH2 0x12D PUSH2 0x342 JUMP JUMPDEST PUSH1 0x40 MLOAD PUSH2 0x13A SWAP2 SWAP1 PUSH2 0xF6A JUMP JUMPDEST PUSH1 0x40 MLOAD DUP1 SWAP2 SUB SWAP1 RETURN JUMPDEST PUSH2 0x15D PUSH1 0x4 DUP1 CALLDATASIZE SUB DUP2 ADD SWAP1 PUSH2 0x158 SWAP2 SWAP1 PUSH2 0xFD6 JUMP JUMPDEST PUSH2 0x3D0 JUMP JUMPDEST STOP JUMPDEST CALLVALUE DUP1 ISZERO PUSH2 0x16B JUMPI PUSH1 0x0 DUP1 REVERT JUMPDEST POP PUSH2 0x174 PUSH2 0x5B6 JUMP JUMPDEST PUSH1 0x40 MLOAD PUSH2 0x181 SWAP2 SWAP1 PUSH2 0x1012 JUMP JUMPDEST PUSH1 0x40 MLOAD DUP1 SWAP2 SUB SWAP1 RETURN JUMPDEST CALLVALUE DUP1 ISZERO PUSH2 0x196 JUMPI PUSH1 0x0 DUP1 REVERT JUMPDEST POP PUSH2 0x19F PUSH2 0x5BC JUMP JUMPDEST PUSH1 0x40 MLOAD PUSH2 0x1AC SWAP2 SWAP1 PUSH2 0xF6A JUMP JUMPDEST PUSH1 0x40 MLOAD DUP1 SWAP2 SUB SWAP1 RETURN JUMPDEST CALLVALUE DUP1 ISZERO PUSH2 0x1C1 JUMPI PUSH1 0x0 DUP1 REVERT JUMPDEST POP PUSH2 0x1CA PUSH2 0x64A JUMP JUMPDEST PUSH1 0x40 MLOAD PUSH2 0x1D7 SWAP2 SWAP1 PUSH2 0x1012 JUMP JUMPDEST PUSH1 0x40 MLOAD DUP1 SWAP2 SUB SWAP1 RETURN JUMPDEST CALLVALUE DUP1 ISZERO PUSH2 0x1EC JUMPI PUSH1 0x0 DUP1 REVERT JUMPDEST POP PUSH2 0x1F5 PUSH2 0x650 JUMP JUMPDEST STOP JUMPDEST CALLVALUE DUP1 ISZERO PUSH2 0x203 JUMPI PUSH1 0x0 DUP1 REVERT JUMPDEST POP PUSH2 0x20C PUSH2 0x7C6 JUMP JUMPDEST PUSH1 0x40 MLOAD PUSH2 0x219 SWAP2 SWAP1 PUSH2 0x10A4 JUMP JUMPDEST PUSH1 0x40 MLOAD DUP1 SWAP2 SUB SWAP1 RETURN JUMPDEST CALLVALUE DUP1 ISZERO PUSH2 0x22E JUMPI PUSH1 0x0 DUP1 REVERT JUMPDEST POP PUSH2 0x249 PUSH1 0x4 DUP1 CALLDATASIZE SUB DUP2 ADD SWAP1 PUSH2 0x244 SWAP2 SWAP1 PUSH2 0x10EB JUMP JUMPDEST PUSH2 0x7D9 JUMP JUMPDEST PUSH1 0x40 MLOAD PUSH2 0x257 SWAP3 SWAP2 SWAP1 PUSH2 0x1118 JUMP JUMPDEST PUSH1 0x40 MLOAD DUP1 SWAP2 SUB SWAP1 RETURN JUMPDEST CALLVALUE DUP1 ISZERO PUSH2 0x26C JUMPI PUSH1 0x0 DUP1 REVERT JUMPDEST POP PUSH2 0x275 PUSH2 0x885 JUMP JUMPDEST STOP JUMPDEST PUSH2 0x27F PUSH2 0xA56 JUMP JUMPDEST STOP JUMPDEST CALLVALUE DUP1 ISZERO PUSH2 0x28D JUMPI PUSH1 0x0 DUP1 REVERT JUMPDEST POP PUSH2 0x296 PUSH2 0xBF0 JUMP JUMPDEST PUSH1 0x40 MLOAD PUSH2 0x2A3 SWAP2 SWAP1 PUSH2 0x1012 JUMP JUMPDEST PUSH1 0x40 MLOAD DUP1 SWAP2 SUB SWAP1 RETURN JUMPDEST CALLVALUE DUP1 ISZERO PUSH2 0x2B8 JUMPI PUSH1 0x0 DUP1 REVERT JUMPDEST POP PUSH2 0x2C1 PUSH2 0xBF6 JUMP JUMPDEST PUSH1 0x40 MLOAD PUSH2 0x2CE SWAP2 SWAP1 PUSH2 0x1012 JUMP JUMPDEST PUSH1 0x40 MLOAD DUP1 SWAP2 SUB SWAP1 RETURN JUMPDEST PUSH2 0x2F1 PUSH1 0x4 DUP1 CALLDATASIZE SUB DUP2 ADD SWAP1 PUSH2 0x2EC SWAP2 SWAP1 PUSH2 0x127D JUMP JUMPDEST PUSH2 0xBFC JUMP JUMPDEST STOP JUMPDEST CALLVALUE DUP1 ISZERO PUSH2 0x2FF JUMPI PUSH1 0x0 DUP1 REVERT JUMPDEST POP PUSH2 0x308 PUSH2 0xE58 JUMP JUMPDEST PUSH1 0x40 MLOAD PUSH2 0x315 SWAP2 SWAP1 PUSH2 0xEBF JUMP JUMPDEST PUSH1 0x40 MLOAD DUP1 SWAP2 SUB SWAP1 RETURN JUMPDEST PUSH1 0x0 DUP1 SLOAD SWAP1 PUSH2 0x100 EXP SWAP1 DIV PUSH20 0xFFFFFFFFFFFFFFFFFFFFFFFFFFFFFFFFFFFFFFFF AND DUP2 JUMP JUMPDEST PUSH1 0x2 DUP1 SLOAD PUSH2 0x34F SWAP1 PUSH2 0x12F5 JUMP JUMPDEST DUP1 PUSH1 0x1F ADD PUSH1 0x20 DUP1 SWAP2 DIV MUL PUSH1 0x20 ADD PUSH1 0x40 MLOAD SWAP1 DUP2 ADD PUSH1 0x40 MSTORE DUP1 SWAP3 SWAP2 SWAP1 DUP2 DUP2 MSTORE PUSH1 0x20 ADD DUP3 DUP1 SLOAD PUSH2 0x37B SWAP1 PUSH2 0x12F5 JUMP JUMPDEST DUP1 ISZERO PUSH2 0x3C8 JUMPI DUP1 PUSH1 0x1F LT PUSH2 0x39D JUMPI PUSH2 0x100 DUP1 DUP4 SLOAD DIV MUL DUP4 MSTORE SWAP2 PUSH1 0x20 ADD SWAP2 PUSH2 0x3C8 JUMP JUMPDEST DUP3 ADD SWAP2 SWAP1 PUSH1 0x0 MSTORE PUSH1 0x20 PUSH1 0x0 KECCAK256 SWAP1 JUMPDEST DUP2 SLOAD DUP2 MSTORE SWAP1 PUSH1 0x1 ADD SWAP1 PUSH1 0x20 ADD DUP1 DUP4 GT PUSH2 0x3AB JUMPI DUP3 SWAP1 SUB PUSH1 0x1F AND DUP3 ADD SWAP2 JUMPDEST POP POP POP POP POP DUP2 JUMP JUMPDEST PUSH1 0x0 PUSH4 0x3B9ACA00 DUP3 PUSH2 0x3E2 SWAP2 SWAP1 PUSH2 0x1355 JUMP JUMPDEST SWAP1 POP PUSH1 0x0 PUSH1 0xD PUSH1 0x0 CALLER PUSH20 0xFFFFFFFFFFFFFFFFFFFFFFFFFFFFFFFFFFFFFFFF AND PUSH20 0xFFFFFFFFFFFFFFFFFFFFFFFFFFFFFFFFFFFFFFFF AND DUP2 MSTORE PUSH1 0x20 ADD SWAP1 DUP2 MSTORE PUSH1 0x20 ADD PUSH1 0x0 KECCAK256 SWAP1 POP PUSH1 0x1 PUSH1 0x3 DUP2 GT ISZERO PUSH2 0x43B JUMPI PUSH2 0x43A PUSH2 0x102D JUMP JUMPDEST JUMPDEST PUSH1 0xA PUSH1 0x0 SWAP1 SLOAD SWAP1 PUSH2 0x100 EXP SWAP1 DIV PUSH1 0xFF AND PUSH1 0x3 DUP2 GT ISZERO PUSH2 0x45D JUMPI PUSH2 0x45C PUSH2 0x102D JUMP JUMPDEST JUMPDEST EQ PUSH2 0x49D JUMPI PUSH1 0x40 MLOAD PUSH32 0x8C379A000000000000000000000000000000000000000000000000000000000 DUP2 MSTORE PUSH1 0x4 ADD PUSH2 0x494 SWAP1 PUSH2 0x13E3 JUMP JUMPDEST PUSH1 0x40 MLOAD DUP1 SWAP2 SUB SWAP1 REVERT JUMPDEST TIMESTAMP PUSH1 0x9 SLOAD LT ISZERO PUSH2 0x4E2 JUMPI PUSH1 0x40 MLOAD PUSH32 0x8C379A000000000000000000000000000000000000000000000000000000000 DUP2 MSTORE PUSH1 0x4 ADD PUSH2 0x4D9 SWAP1 PUSH2 0x144F JUMP JUMPDEST PUSH1 0x40 MLOAD DUP1 SWAP2 SUB SWAP1 REVERT JUMPDEST DUP2 DUP2 PUSH1 0x0 ADD SLOAD LT ISZERO PUSH2 0x529 JUMPI PUSH1 0x40 MLOAD PUSH32 0x8C379A000000000000000000000000000000000000000000000000000000000 DUP2 MSTORE PUSH1 0x4 ADD PUSH2 0x520 SWAP1 PUSH2 0x14E1 JUMP JUMPDEST PUSH1 0x40 MLOAD DUP1 SWAP2 SUB SWAP1 REVERT JUMPDEST CALLER PUSH20 0xFFFFFFFFFFFFFFFFFFFFFFFFFFFFFFFFFFFFFFFF AND PUSH2 0x8FC PUSH1 0xC SLOAD DUP5 PUSH2 0x551 SWAP2 SWAP1 PUSH2 0x1501 JUMP JUMPDEST SWAP1 DUP2 ISZERO MUL SWAP1 PUSH1 0x40 MLOAD PUSH1 0x0 PUSH1 0x40 MLOAD DUP1 DUP4 SUB DUP2 DUP6 DUP9 DUP9 CALL SWAP4 POP POP POP POP ISZERO DUP1 ISZERO PUSH2 0x57C JUMPI RETURNDATASIZE PUSH1 0x0 DUP1 RETURNDATACOPY RETURNDATASIZE PUSH1 0x0 REVERT JUMPDEST POP DUP2 DUP2 PUSH1 0x0 ADD PUSH1 0x0 DUP3 DUP3 SLOAD PUSH2 0x591 SWAP2 SWAP1 PUSH2 0x1501 JUMP JUMPDEST SWAP3 POP POP DUP2 SWAP1 SSTORE POP DUP2 PUSH1 0x5 PUSH1 0x0 DUP3 DUP3 SLOAD PUSH2 0x5AA SWAP2 SWAP1 PUSH2 0x1501 JUMP JUMPDEST SWAP3 POP POP DUP2 SWAP1 SSTORE POP POP POP POP JUMP JUMPDEST PUSH1 0x4 SLOAD DUP2 JUMP JUMPDEST PUSH1 0x3 DUP1 SLOAD PUSH2 0x5C9 SWAP1 PUSH2 0x12F5 JUMP JUMPDEST DUP1 PUSH1 0x1F ADD PUSH1 0x20 DUP1 SWAP2 DIV MUL PUSH1 0x20 ADD PUSH1 0x40 MLOAD SWAP1 DUP2 ADD PUSH1 0x40 MSTORE DUP1 SWAP3 SWAP2 SWAP1 DUP2 DUP2 MSTORE PUSH1 0x20 ADD DUP3 DUP1 SLOAD PUSH2 0x5F5 SWAP1 PUSH2 0x12F5 JUMP JUMPDEST DUP1 ISZERO PUSH2 0x642 JUMPI DUP1 PUSH1 0x1F LT PUSH2 0x617 JUMPI PUSH2 0x100 DUP1 DUP4 SLOAD DIV MUL DUP4 MSTORE SWAP2 PUSH1 0x20 ADD SWAP2 PUSH2 0x642 JUMP JUMPDEST DUP3 ADD SWAP2 SWAP1 PUSH1 0x0 MSTORE PUSH1 0x20 PUSH1 0x0 KECCAK256 SWAP1 JUMPDEST DUP2 SLOAD DUP2 MSTORE SWAP1 PUSH1 0x1 ADD SWAP1 PUSH1 0x20 ADD DUP1 DUP4 GT PUSH2 0x625 JUMPI DUP3 SWAP1 SUB PUSH1 0x1F AND DUP3 ADD SWAP2 JUMPDEST POP POP POP POP POP DUP2 JUMP JUMPDEST PUSH1 0x8 SLOAD DUP2 JUMP JUMPDEST PUSH1 0x0 DUP1 SLOAD SWAP1 PUSH2 0x100 EXP SWAP1 DIV PUSH20 0xFFFFFFFFFFFFFFFFFFFFFFFFFFFFFFFFFFFFFFFF AND PUSH20 0xFFFFFFFFFFFFFFFFFFFFFFFFFFFFFFFFFFFFFFFF AND CALLER PUSH20 0xFFFFFFFFFFFFFFFFFFFFFFFFFFFFFFFFFFFFFFFF AND EQ PUSH2 0x6DE JUMPI PUSH1 0x40 MLOAD PUSH32 0x8C379A000000000000000000000000000000000000000000000000000000000 DUP2 MSTORE PUSH1 0x4 ADD PUSH2 0x6D5 SWAP1 PUSH2 0x15A7 JUMP JUMPDEST PUSH1 0x40 MLOAD DUP1 SWAP2 SUB SWAP1 REVERT JUMPDEST PUSH1 0x1 PUSH1 0x3 DUP2 GT ISZERO PUSH2 0x6F2 JUMPI PUSH2 0x6F1 PUSH2 0x102D JUMP JUMPDEST JUMPDEST PUSH1 0xA PUSH1 0x0 SWAP1 SLOAD SWAP1 PUSH2 0x100 EXP SWAP1 DIV PUSH1 0xFF AND PUSH1 0x3 DUP2 GT ISZERO PUSH2 0x714 JUMPI PUSH2 0x713 PUSH2 0x102D JUMP JUMPDEST JUMPDEST EQ PUSH2 0x754 JUMPI PUSH1 0x40 MLOAD PUSH32 0x8C379A000000000000000000000000000000000000000000000000000000000 DUP2 MSTORE PUSH1 0x4 ADD PUSH2 0x74B SWAP1 PUSH2 0x1613 JUMP JUMPDEST PUSH1 0x40 MLOAD DUP1 SWAP2 SUB SWAP1 REVERT JUMPDEST TIMESTAMP PUSH1 0x9 SLOAD GT ISZERO PUSH2 0x799 JUMPI PUSH1 0x40 MLOAD PUSH32 0x8C379A000000000000000000000000000000000000000000000000000000000 DUP2 MSTORE PUSH1 0x4 ADD PUSH2 0x790 SWAP1 PUSH2 0x167F JUMP JUMPDEST PUSH1 0x40 MLOAD DUP1 SWAP2 SUB SWAP1 REVERT JUMPDEST PUSH1 0x2 PUSH1 0xA PUSH1 0x0 PUSH2 0x100 EXP DUP2 SLOAD DUP2 PUSH1 0xFF MUL NOT AND SWAP1 DUP4 PUSH1 0x3 DUP2 GT ISZERO PUSH2 0x7BF JUMPI PUSH2 0x7BE PUSH2 0x102D JUMP JUMPDEST JUMPDEST MUL OR SWAP1 SSTORE POP JUMP JUMPDEST PUSH1 0xA PUSH1 0x0 SWAP1 SLOAD SWAP1 PUSH2 0x100 EXP SWAP1 DIV PUSH1 0xFF AND DUP2 JUMP JUMPDEST PUSH1 0xD PUSH1 0x20 MSTORE DUP1 PUSH1 0x0 MSTORE PUSH1 0x40 PUSH1 0x0 KECCAK256 PUSH1 0x0 SWAP2 POP SWAP1 POP DUP1 PUSH1 0x0 ADD SLOAD SWAP1 DUP1 PUSH1 0x1 ADD DUP1 SLOAD PUSH2 0x802 SWAP1 PUSH2 0x12F5 JUMP JUMPDEST DUP1 PUSH1 0x1F ADD PUSH1 0x20 DUP1 SWAP2 DIV MUL PUSH1 0x20 ADD PUSH1 0x40 MLOAD SWAP1 DUP2 ADD PUSH1 0x40 MSTORE DUP1 SWAP3 SWAP2 SWAP1 DUP2 DUP2 MSTORE PUSH1 0x20 ADD DUP3 DUP1 SLOAD PUSH2 0x82E SWAP1 PUSH2 0x12F5 JUMP JUMPDEST DUP1 ISZERO PUSH2 0x87B JUMPI DUP1 PUSH1 0x1F LT PUSH2 0x850 JUMPI PUSH2 0x100 DUP1 DUP4 SLOAD DIV MUL DUP4 MSTORE SWAP2 PUSH1 0x20 ADD SWAP2 PUSH2 0x87B JUMP JUMPDEST DUP3 ADD SWAP2 SWAP1 PUSH1 0x0 MSTORE PUSH1 0x20 PUSH1 0x0 KECCAK256 SWAP1 JUMPDEST DUP2 SLOAD DUP2 MSTORE SWAP1 PUSH1 0x1 ADD SWAP1 PUSH1 0x20 ADD DUP1 DUP4 GT PUSH2 0x85E JUMPI DUP3 SWAP1 SUB PUSH1 0x1F AND DUP3 ADD SWAP2 JUMPDEST POP POP POP POP POP SWAP1 POP DUP3 JUMP JUMPDEST PUSH1 0x0 DUP1 SLOAD SWAP1 PUSH2 0x100 EXP SWAP1 DIV PUSH20 0xFFFFFFFFFFFFFFFFFFFFFFFFFFFFFFFFFFFFFFFF AND PUSH20 0xFFFFFFFFFFFFFFFFFFFFFFFFFFFFFFFFFFFFFFFF AND CALLER PUSH20 0xFFFFFFFFFFFFFFFFFFFFFFFFFFFFFFFFFFFFFFFF AND EQ PUSH2 0x913 JUMPI PUSH1 0x40 MLOAD PUSH32 0x8C379A000000000000000000000000000000000000000000000000000000000 DUP2 MSTORE PUSH1 0x4 ADD PUSH2 0x90A SWAP1 PUSH2 0x1711 JUMP JUMPDEST PUSH1 0x40 MLOAD DUP1 SWAP2 SUB SWAP1 REVERT JUMPDEST PUSH1 0x0 PUSH1 0x3 DUP2 GT ISZERO PUSH2 0x927 JUMPI PUSH2 0x926 PUSH2 0x102D JUMP JUMPDEST JUMPDEST PUSH1 0xA PUSH1 0x0 SWAP1 SLOAD SWAP1 PUSH2 0x100 EXP SWAP1 DIV PUSH1 0xFF AND PUSH1 0x3 DUP2 GT ISZERO PUSH2 0x949 JUMPI PUSH2 0x948 PUSH2 0x102D JUMP JUMPDEST JUMPDEST EQ PUSH2 0x989 JUMPI PUSH1 0x40 MLOAD PUSH32 0x8C379A000000000000000000000000000000000000000000000000000000000 DUP2 MSTORE PUSH1 0x4 ADD PUSH2 0x980 SWAP1 PUSH2 0x17A3 JUMP JUMPDEST PUSH1 0x40 MLOAD DUP1 SWAP2 SUB SWAP1 REVERT JUMPDEST PUSH1 0x4 SLOAD PUSH1 0x5 SLOAD GT ISZERO PUSH2 0x9D0 JUMPI PUSH1 0x40 MLOAD PUSH32 0x8C379A000000000000000000000000000000000000000000000000000000000 DUP2 MSTORE PUSH1 0x4 ADD PUSH2 0x9C7 SWAP1 PUSH2 0x180F JUMP JUMPDEST PUSH1 0x40 MLOAD DUP1 SWAP2 SUB SWAP1 REVERT JUMPDEST PUSH1 0x8 SLOAD TIMESTAMP LT ISZERO PUSH2 0xA15 JUMPI PUSH1 0x40 MLOAD PUSH32 0x8C379A000000000000000000000000000000000000000000000000000000000 DUP2 MSTORE PUSH1 0x4 ADD PUSH2 0xA0C SWAP1 PUSH2 0x187B JUMP JUMPDEST PUSH1 0x40 MLOAD DUP1 SWAP2 SUB SWAP1 REVERT JUMPDEST PUSH1 0x1 PUSH1 0xA PUSH1 0x0 PUSH2 0x100 EXP DUP2 SLOAD DUP2 PUSH1 0xFF MUL NOT AND SWAP1 DUP4 PUSH1 0x3 DUP2 GT ISZERO PUSH2 0xA3B JUMPI PUSH2 0xA3A PUSH2 0x102D JUMP JUMPDEST JUMPDEST MUL OR SWAP1 SSTORE POP PUSH1 0x7 SLOAD TIMESTAMP PUSH2 0xA4E SWAP2 SWAP1 PUSH2 0x189B JUMP JUMPDEST PUSH1 0x9 DUP2 SWAP1 SSTORE POP JUMP JUMPDEST PUSH1 0x2 PUSH1 0x3 DUP2 GT ISZERO PUSH2 0xA6A JUMPI PUSH2 0xA69 PUSH2 0x102D JUMP JUMPDEST JUMPDEST PUSH1 0xA PUSH1 0x0 SWAP1 SLOAD SWAP1 PUSH2 0x100 EXP SWAP1 DIV PUSH1 0xFF AND PUSH1 0x3 DUP2 GT ISZERO PUSH2 0xA8C JUMPI PUSH2 0xA8B PUSH2 0x102D JUMP JUMPDEST JUMPDEST EQ PUSH2 0xACC JUMPI PUSH1 0x40 MLOAD PUSH32 0x8C379A000000000000000000000000000000000000000000000000000000000 DUP2 MSTORE PUSH1 0x4 ADD PUSH2 0xAC3 SWAP1 PUSH2 0x191B JUMP JUMPDEST PUSH1 0x40 MLOAD DUP1 SWAP2 SUB SWAP1 REVERT JUMPDEST PUSH1 0x0 DUP1 SLOAD SWAP1 PUSH2 0x100 EXP SWAP1 DIV PUSH20 0xFFFFFFFFFFFFFFFFFFFFFFFFFFFFFFFFFFFFFFFF AND PUSH20 0xFFFFFFFFFFFFFFFFFFFFFFFFFFFFFFFFFFFFFFFF AND CALLER PUSH20 0xFFFFFFFFFFFFFFFFFFFFFFFFFFFFFFFFFFFFFFFF AND EQ PUSH2 0xB5A JUMPI PUSH1 0x40 MLOAD PUSH32 0x8C379A000000000000000000000000000000000000000000000000000000000 DUP2 MSTORE PUSH1 0x4 ADD PUSH2 0xB51 SWAP1 PUSH2 0x19AD JUMP JUMPDEST PUSH1 0x40 MLOAD DUP1 SWAP2 SUB SWAP1 REVERT JUMPDEST PUSH1 0x1 PUSH1 0x0 SWAP1 SLOAD SWAP1 PUSH2 0x100 EXP SWAP1 DIV PUSH20 0xFFFFFFFFFFFFFFFFFFFFFFFFFFFFFFFFFFFFFFFF AND PUSH20 0xFFFFFFFFFFFFFFFFFFFFFFFFFFFFFFFFFFFFFFFF AND PUSH2 0x8FC SELFBALANCE SWAP1 DUP2 ISZERO MUL SWAP1 PUSH1 0x40 MLOAD PUSH1 0x0 PUSH1 0x40 MLOAD DUP1 DUP4 SUB DUP2 DUP6 DUP9 DUP9 CALL SWAP4 POP POP POP POP ISZERO DUP1 ISZERO PUSH2 0xBC2 JUMPI RETURNDATASIZE PUSH1 0x0 DUP1 RETURNDATACOPY RETURNDATASIZE PUSH1 0x0 REVERT JUMPDEST POP PUSH1 0x3 PUSH1 0xA PUSH1 0x0 PUSH2 0x100 EXP DUP2 SLOAD DUP2 PUSH1 0xFF MUL NOT AND SWAP1 DUP4 PUSH1 0x3 DUP2 GT ISZERO PUSH2 0xBE9 JUMPI PUSH2 0xBE8 PUSH2 0x102D JUMP JUMPDEST JUMPDEST MUL OR SWAP1 SSTORE POP JUMP JUMPDEST PUSH1 0x9 SLOAD DUP2 JUMP JUMPDEST PUSH1 0x5 SLOAD DUP2 JUMP JUMPDEST PUSH1 0x0 PUSH1 0x3 DUP2 GT ISZERO PUSH2 0xC10 JUMPI PUSH2 0xC0F PUSH2 0x102D JUMP JUMPDEST JUMPDEST PUSH1 0xA PUSH1 0x0 SWAP1 SLOAD SWAP1 PUSH2 0x100 EXP SWAP1 DIV PUSH1 0xFF AND PUSH1 0x3 DUP2 GT ISZERO PUSH2 0xC32 JUMPI PUSH2 0xC31 PUSH2 0x102D JUMP JUMPDEST JUMPDEST EQ PUSH2 0xC72 JUMPI PUSH1 0x40 MLOAD PUSH32 0x8C379A000000000000000000000000000000000000000000000000000000000 DUP2 MSTORE PUSH1 0x4 ADD PUSH2 0xC69 SWAP1 PUSH2 0x1A19 JUMP JUMPDEST PUSH1 0x40 MLOAD DUP1 SWAP2 SUB SWAP1 REVERT JUMPDEST PUSH1 0x8 SLOAD TIMESTAMP GT ISZERO PUSH2 0xCB7 JUMPI PUSH1 0x40 MLOAD PUSH32 0x8C379A000000000000000000000000000000000000000000000000000000000 DUP2 MSTORE PUSH1 0x4 ADD PUSH2 0xCAE SWAP1 PUSH2 0x1A85 JUMP JUMPDEST PUSH1 0x40 MLOAD DUP1 SWAP2 SUB SWAP1 REVERT JUMPDEST PUSH1 0xB SLOAD CALLVALUE LT ISZERO PUSH2 0xCFC JUMPI PUSH1 0x40 MLOAD PUSH32 0x8C379A000000000000000000000000000000000000000000000000000000000 DUP2 MSTORE PUSH1 0x4 ADD PUSH2 0xCF3 SWAP1 PUSH2 0x1B17 JUMP JUMPDEST PUSH1 0x40 MLOAD DUP1 SWAP2 SUB SWAP1 REVERT JUMPDEST PUSH1 0x0 PUSH1 0xD PUSH1 0x0 CALLER PUSH20 0xFFFFFFFFFFFFFFFFFFFFFFFFFFFFFFFFFFFFFFFF AND PUSH20 0xFFFFFFFFFFFFFFFFFFFFFFFFFFFFFFFFFFFFFFFF AND DUP2 MSTORE PUSH1 0x20 ADD SWAP1 DUP2 MSTORE PUSH1 0x20 ADD PUSH1 0x0 KECCAK256 SWAP1 POP CALLVALUE DUP2 PUSH1 0x0 ADD PUSH1 0x0 DUP3 DUP3 SLOAD PUSH2 0xD53 SWAP2 SWAP1 PUSH2 0x189B JUMP JUMPDEST SWAP3 POP POP DUP2 SWAP1 SSTORE POP DUP2 DUP2 PUSH1 0x1 ADD SWAP1 DUP2 PUSH2 0xD6B SWAP2 SWAP1 PUSH2 0x1CE3 JUMP JUMPDEST POP CALLVALUE PUSH1 0x5 PUSH1 0x0 DUP3 DUP3 SLOAD PUSH2 0xD7E SWAP2 SWAP1 PUSH2 0x189B JUMP JUMPDEST SWAP3 POP POP DUP2 SWAP1 SSTORE POP PUSH1 0x4 SLOAD PUSH1 0x5 SLOAD LT PUSH2 0xE54 JUMPI PUSH1 0x0 PUSH1 0x4 SLOAD PUSH1 0x5 SLOAD PUSH2 0xDA2 SWAP2 SWAP1 PUSH2 0x1501 JUMP JUMPDEST SWAP1 POP PUSH1 0xC SLOAD DUP2 GT ISZERO PUSH2 0xE1E JUMPI CALLER PUSH20 0xFFFFFFFFFFFFFFFFFFFFFFFFFFFFFFFFFFFFFFFF AND PUSH2 0x8FC PUSH1 0xC SLOAD DUP4 PUSH2 0xDD6 SWAP2 SWAP1 PUSH2 0x1501 JUMP JUMPDEST SWAP1 DUP2 ISZERO MUL SWAP1 PUSH1 0x40 MLOAD PUSH1 0x0 PUSH1 0x40 MLOAD DUP1 DUP4 SUB DUP2 DUP6 DUP9 DUP9 CALL SWAP4 POP POP POP POP ISZERO DUP1 ISZERO PUSH2 0xE01 JUMPI RETURNDATASIZE PUSH1 0x0 DUP1 RETURNDATACOPY RETURNDATASIZE PUSH1 0x0 REVERT JUMPDEST POP DUP1 DUP3 PUSH1 0x0 ADD PUSH1 0x0 DUP3 DUP3 SLOAD PUSH2 0xE16 SWAP2 SWAP1 PUSH2 0x1501 JUMP JUMPDEST SWAP3 POP POP DUP2 SWAP1 SSTORE POP JUMPDEST PUSH1 0x4 SLOAD PUSH1 0x5 DUP2 SWAP1 SSTORE POP PUSH1 0x2 PUSH1 0xA PUSH1 0x0 PUSH2 0x100 EXP DUP2 SLOAD DUP2 PUSH1 0xFF MUL NOT AND SWAP1 DUP4 PUSH1 0x3 DUP2 GT ISZERO PUSH2 0xE4D JUMPI PUSH2 0xE4C PUSH2 0x102D JUMP JUMPDEST JUMPDEST MUL OR SWAP1 SSTORE POP POP JUMPDEST POP POP JUMP JUMPDEST PUSH1 0x1 PUSH1 0x0 SWAP1 SLOAD SWAP1 PUSH2 0x100 EXP SWAP1 DIV PUSH20 0xFFFFFFFFFFFFFFFFFFFFFFFFFFFFFFFFFFFFFFFF AND DUP2 JUMP JUMPDEST PUSH1 0x0 PUSH20 0xFFFFFFFFFFFFFFFFFFFFFFFFFFFFFFFFFFFFFFFF DUP3 AND SWAP1 POP SWAP2 SWAP1 POP JUMP JUMPDEST PUSH1 0x0 PUSH2 0xEA9 DUP3 PUSH2 0xE7E JUMP JUMPDEST SWAP1 POP SWAP2 SWAP1 POP JUMP JUMPDEST PUSH2 0xEB9 DUP2 PUSH2 0xE9E JUMP JUMPDEST DUP3 MSTORE POP POP JUMP JUMPDEST PUSH1 0x0 PUSH1 0x20 DUP3 ADD SWAP1 POP PUSH2 0xED4 PUSH1 0x0 DUP4 ADD DUP5 PUSH2 0xEB0 JUMP JUMPDEST SWAP3 SWAP2 POP POP JUMP JUMPDEST PUSH1 0x0 DUP2 MLOAD SWAP1 POP SWAP2 SWAP1 POP JUMP JUMPDEST PUSH1 0x0 DUP3 DUP3 MSTORE PUSH1 0x20 DUP3 ADD SWAP1 POP SWAP3 SWAP2 POP POP JUMP JUMPDEST PUSH1 0x0 JUMPDEST DUP4 DUP2 LT ISZERO PUSH2 0xF14 JUMPI DUP1 DUP3 ADD MLOAD DUP2 DUP5 ADD MSTORE PUSH1 0x20 DUP2 ADD SWAP1 POP PUSH2 0xEF9 JUMP JUMPDEST PUSH1 0x0 DUP5 DUP5 ADD MSTORE POP POP POP POP JUMP JUMPDEST PUSH1 0x0 PUSH1 0x1F NOT PUSH1 0x1F DUP4 ADD AND SWAP1 POP SWAP2 SWAP1 POP JUMP JUMPDEST PUSH1 0x0 PUSH2 0xF3C DUP3 PUSH2 0xEDA JUMP JUMPDEST PUSH2 0xF46 DUP2 DUP6 PUSH2 0xEE5 JUMP JUMPDEST SWAP4 POP PUSH2 0xF56 DUP2 DUP6 PUSH1 0x20 DUP7 ADD PUSH2 0xEF6 JUMP JUMPDEST PUSH2 0xF5F DUP2 PUSH2 0xF20 JUMP JUMPDEST DUP5 ADD SWAP2 POP POP SWAP3 SWAP2 POP POP JUMP JUMPDEST PUSH1 0x0 PUSH1 0x20 DUP3 ADD SWAP1 POP DUP2 DUP2 SUB PUSH1 0x0 DUP4 ADD MSTORE PUSH2 0xF84 DUP2 DUP5 PUSH2 0xF31 JUMP JUMPDEST SWAP1 POP SWAP3 SWAP2 POP POP JUMP JUMPDEST PUSH1 0x0 PUSH1 0x40 MLOAD SWAP1 POP SWAP1 JUMP JUMPDEST PUSH1 0x0 DUP1 REVERT JUMPDEST PUSH1 0x0 DUP1 REVERT JUMPDEST PUSH1 0x0 DUP2 SWAP1 POP SWAP2 SWAP1 POP JUMP JUMPDEST PUSH2 0xFB3 DUP2 PUSH2 0xFA0 JUMP JUMPDEST DUP2 EQ PUSH2 0xFBE JUMPI PUSH1 0x0 DUP1 REVERT JUMPDEST POP JUMP JUMPDEST PUSH1 0x0 DUP2 CALLDATALOAD SWAP1 POP PUSH2 0xFD0 DUP2 PUSH2 0xFAA JUMP JUMPDEST SWAP3 SWAP2 POP POP JUMP JUMPDEST PUSH1 0x0 PUSH1 0x20 DUP3 DUP5 SUB SLT ISZERO PUSH2 0xFEC JUMPI PUSH2 0xFEB PUSH2 0xF96 JUMP JUMPDEST JUMPDEST PUSH1 0x0 PUSH2 0xFFA DUP5 DUP3 DUP6 ADD PUSH2 0xFC1 JUMP JUMPDEST SWAP2 POP POP SWAP3 SWAP2 POP POP JUMP JUMPDEST PUSH2 0x100C DUP2 PUSH2 0xFA0 JUMP JUMPDEST DUP3 MSTORE POP POP JUMP JUMPDEST PUSH1 0x0 PUSH1 0x20 DUP3 ADD SWAP1 POP PUSH2 0x1027 PUSH1 0x0 DUP4 ADD DUP5 PUSH2 0x1003 JUMP JUMPDEST SWAP3 SWAP2 POP POP JUMP JUMPDEST PUSH32 0x4E487B7100000000000000000000000000000000000000000000000000000000 PUSH1 0x0 MSTORE PUSH1 0x21 PUSH1 0x4 MSTORE PUSH1 0x24 PUSH1 0x0 REVERT JUMPDEST PUSH1 0x4 DUP2 LT PUSH2 0x106D JUMPI PUSH2 0x106C PUSH2 0x102D JUMP JUMPDEST JUMPDEST POP JUMP JUMPDEST PUSH1 0x0 DUP2 SWAP1 POP PUSH2 0x107E DUP3 PUSH2 0x105C JUMP JUMPDEST SWAP2 SWAP1 POP JUMP JUMPDEST PUSH1 0x0 PUSH2 0x108E DUP3 PUSH2 0x1070 JUMP JUMPDEST SWAP1 POP SWAP2 SWAP1 POP JUMP JUMPDEST PUSH2 0x109E DUP2 PUSH2 0x1083 JUMP JUMPDEST DUP3 MSTORE POP POP JUMP JUMPDEST PUSH1 0x0 PUSH1 0x20 DUP3 ADD SWAP1 POP PUSH2 0x10B9 PUSH1 0x0 DUP4 ADD DUP5 PUSH2 0x1095 JUMP JUMPDEST SWAP3 SWAP2 POP POP JUMP JUMPDEST PUSH2 0x10C8 DUP2 PUSH2 0xE9E JUMP JUMPDEST DUP2 EQ PUSH2 0x10D3 JUMPI PUSH1 0x0 DUP1 REVERT JUMPDEST POP JUMP JUMPDEST PUSH1 0x0 DUP2 CALLDATALOAD SWAP1 POP PUSH2 0x10E5 DUP2 PUSH2 0x10BF JUMP JUMPDEST SWAP3 SWAP2 POP POP JUMP JUMPDEST PUSH1 0x0 PUSH1 0x20 DUP3 DUP5 SUB SLT ISZERO PUSH2 0x1101 JUMPI PUSH2 0x1100 PUSH2 0xF96 JUMP JUMPDEST JUMPDEST PUSH1 0x0 PUSH2 0x110F DUP5 DUP3 DUP6 ADD PUSH2 0x10D6 JUMP JUMPDEST SWAP2 POP POP SWAP3 SWAP2 POP POP JUMP JUMPDEST PUSH1 0x0 PUSH1 0x40 DUP3 ADD SWAP1 POP PUSH2 0x112D PUSH1 0x0 DUP4 ADD DUP6 PUSH2 0x1003 JUMP JUMPDEST DUP2 DUP2 SUB PUSH1 0x20 DUP4 ADD MSTORE PUSH2 0x113F DUP2 DUP5 PUSH2 0xF31 JUMP JUMPDEST SWAP1 POP SWAP4 SWAP3 POP POP POP JUMP JUMPDEST PUSH1 0x0 DUP1 REVERT JUMPDEST PUSH1 0x0 DUP1 REVERT JUMPDEST PUSH32 0x4E487B7100000000000000000000000000000000000000000000000000000000 PUSH1 0x0 MSTORE PUSH1 0x41 PUSH1 0x4 MSTORE PUSH1 0x24 PUSH1 0x0 REVERT JUMPDEST PUSH2 0x118A DUP3 PUSH2 0xF20 JUMP JUMPDEST DUP2 ADD DUP2 DUP2 LT PUSH8 0xFFFFFFFFFFFFFFFF DUP3 GT OR ISZERO PUSH2 0x11A9 JUMPI PUSH2 0x11A8 PUSH2 0x1152 JUMP JUMPDEST JUMPDEST DUP1 PUSH1 0x40 MSTORE POP POP POP JUMP JUMPDEST PUSH1 0x0 PUSH2 0x11BC PUSH2 0xF8C JUMP JUMPDEST SWAP1 POP PUSH2 0x11C8 DUP3 DUP3 PUSH2 0x1181 JUMP JUMPDEST SWAP2 SWAP1 POP JUMP JUMPDEST PUSH1 0x0 PUSH8 0xFFFFFFFFFFFFFFFF DUP3 GT ISZERO PUSH2 0x11E8 JUMPI PUSH2 0x11E7 PUSH2 0x1152 JUMP JUMPDEST JUMPDEST PUSH2 0x11F1 DUP3 PUSH2 0xF20 JUMP JUMPDEST SWAP1 POP PUSH1 0x20 DUP2 ADD SWAP1 POP SWAP2 SWAP1 POP JUMP JUMPDEST DUP3 DUP2 DUP4 CALLDATACOPY PUSH1 0x0 DUP4 DUP4 ADD MSTORE POP POP POP JUMP JUMPDEST PUSH1 0x0 PUSH2 0x1220 PUSH2 0x121B DUP5 PUSH2 0x11CD JUMP JUMPDEST PUSH2 0x11B2 JUMP JUMPDEST SWAP1 POP DUP3 DUP2 MSTORE PUSH1 0x20 DUP2 ADD DUP5 DUP5 DUP5 ADD GT ISZERO PUSH2 0x123C JUMPI PUSH2 0x123B PUSH2 0x114D JUMP JUMPDEST JUMPDEST PUSH2 0x1247 DUP5 DUP3 DUP6 PUSH2 0x11FE JUMP JUMPDEST POP SWAP4 SWAP3 POP POP POP JUMP JUMPDEST PUSH1 0x0 DUP3 PUSH1 0x1F DUP4 ADD SLT PUSH2 0x1264 JUMPI PUSH2 0x1263 PUSH2 0x1148 JUMP JUMPDEST JUMPDEST DUP2 CALLDATALOAD PUSH2 0x1274 DUP5 DUP3 PUSH1 0x20 DUP7 ADD PUSH2 0x120D JUMP JUMPDEST SWAP2 POP POP SWAP3 SWAP2 POP POP JUMP JUMPDEST PUSH1 0x0 PUSH1 0x20 DUP3 DUP5 SUB SLT ISZERO PUSH2 0x1293 JUMPI PUSH2 0x1292 PUSH2 0xF96 JUMP JUMPDEST JUMPDEST PUSH1 0x0 DUP3 ADD CALLDATALOAD PUSH8 0xFFFFFFFFFFFFFFFF DUP2 GT ISZERO PUSH2 0x12B1 JUMPI PUSH2 0x12B0 PUSH2 0xF9B JUMP JUMPDEST JUMPDEST PUSH2 0x12BD DUP5 DUP3 DUP6 ADD PUSH2 0x124F JUMP JUMPDEST SWAP2 POP POP SWAP3 SWAP2 POP POP JUMP JUMPDEST PUSH32 0x4E487B7100000000000000000000000000000000000000000000000000000000 PUSH1 0x0 MSTORE PUSH1 0x22 PUSH1 0x4 MSTORE PUSH1 0x24 PUSH1 0x0 REVERT JUMPDEST PUSH1 0x0 PUSH1 0x2 DUP3 DIV SWAP1 POP PUSH1 0x1 DUP3 AND DUP1 PUSH2 0x130D JUMPI PUSH1 0x7F DUP3 AND SWAP2 POP JUMPDEST PUSH1 0x20 DUP3 LT DUP2 SUB PUSH2 0x1320 JUMPI PUSH2 0x131F PUSH2 0x12C6 JUMP JUMPDEST JUMPDEST POP SWAP2 SWAP1 POP JUMP JUMPDEST PUSH32 0x4E487B7100000000000000000000000000000000000000000000000000000000 PUSH1 0x0 MSTORE PUSH1 0x11 PUSH1 0x4 MSTORE PUSH1 0x24 PUSH1 0x0 REVERT JUMPDEST PUSH1 0x0 PUSH2 0x1360 DUP3 PUSH2 0xFA0 JUMP JUMPDEST SWAP2 POP PUSH2 0x136B DUP4 PUSH2 0xFA0 JUMP JUMPDEST SWAP3 POP DUP3 DUP3 MUL PUSH2 0x1379 DUP2 PUSH2 0xFA0 JUMP JUMPDEST SWAP2 POP DUP3 DUP3 DIV DUP5 EQ DUP4 ISZERO OR PUSH2 0x1390 JUMPI PUSH2 0x138F PUSH2 0x1326 JUMP JUMPDEST JUMPDEST POP SWAP3 SWAP2 POP POP JUMP JUMPDEST PUSH32 0x50726F6A656374206973206E6F7420696E20726566756E6420706572696F642E PUSH1 0x0 DUP3 ADD MSTORE POP JUMP JUMPDEST PUSH1 0x0 PUSH2 0x13CD PUSH1 0x20 DUP4 PUSH2 0xEE5 JUMP JUMPDEST SWAP2 POP PUSH2 0x13D8 DUP3 PUSH2 0x1397 JUMP JUMPDEST PUSH1 0x20 DUP3 ADD SWAP1 POP SWAP2 SWAP1 POP JUMP JUMPDEST PUSH1 0x0 PUSH1 0x20 DUP3 ADD SWAP1 POP DUP2 DUP2 SUB PUSH1 0x0 DUP4 ADD MSTORE PUSH2 0x13FC DUP2 PUSH2 0x13C0 JUMP JUMPDEST SWAP1 POP SWAP2 SWAP1 POP JUMP JUMPDEST PUSH32 0x526566756E6420706572696F64206F7665722E00000000000000000000000000 PUSH1 0x0 DUP3 ADD MSTORE POP JUMP JUMPDEST PUSH1 0x0 PUSH2 0x1439 PUSH1 0x13 DUP4 PUSH2 0xEE5 JUMP JUMPDEST SWAP2 POP PUSH2 0x1444 DUP3 PUSH2 0x1403 JUMP JUMPDEST PUSH1 0x20 DUP3 ADD SWAP1 POP SWAP2 SWAP1 POP JUMP JUMPDEST PUSH1 0x0 PUSH1 0x20 DUP3 ADD SWAP1 POP DUP2 DUP2 SUB PUSH1 0x0 DUP4 ADD MSTORE PUSH2 0x1468 DUP2 PUSH2 0x142C JUMP JUMPDEST SWAP1 POP SWAP2 SWAP1 POP JUMP JUMPDEST PUSH32 0x41736B696E6720616D6F756E742069732067726561746572207468616E20646F PUSH1 0x0 DUP3 ADD MSTORE PUSH32 0x6E617465642E0000000000000000000000000000000000000000000000000000 PUSH1 0x20 DUP3 ADD MSTORE POP JUMP JUMPDEST PUSH1 0x0 PUSH2 0x14CB PUSH1 0x26 DUP4 PUSH2 0xEE5 JUMP JUMPDEST SWAP2 POP PUSH2 0x14D6 DUP3 PUSH2 0x146F JUMP JUMPDEST PUSH1 0x40 DUP3 ADD SWAP1 POP SWAP2 SWAP1 POP JUMP JUMPDEST PUSH1 0x0 PUSH1 0x20 DUP3 ADD SWAP1 POP DUP2 DUP2 SUB PUSH1 0x0 DUP4 ADD MSTORE PUSH2 0x14FA DUP2 PUSH2 0x14BE JUMP JUMPDEST SWAP1 POP SWAP2 SWAP1 POP JUMP JUMPDEST PUSH1 0x0 PUSH2 0x150C DUP3 PUSH2 0xFA0 JUMP JUMPDEST SWAP2 POP PUSH2 0x1517 DUP4 PUSH2 0xFA0 JUMP JUMPDEST SWAP3 POP DUP3 DUP3 SUB SWAP1 POP DUP2 DUP2 GT ISZERO PUSH2 0x152F JUMPI PUSH2 0x152E PUSH2 0x1326 JUMP JUMPDEST JUMPDEST SWAP3 SWAP2 POP POP JUMP JUMPDEST PUSH32 0x596F7520646F206E6F7420686176652074686520617574686F7269747920746F PUSH1 0x0 DUP3 ADD MSTORE PUSH32 0x2066696E69736820726566756E6420706572696F642E00000000000000000000 PUSH1 0x20 DUP3 ADD MSTORE POP JUMP JUMPDEST PUSH1 0x0 PUSH2 0x1591 PUSH1 0x36 DUP4 PUSH2 0xEE5 JUMP JUMPDEST SWAP2 POP PUSH2 0x159C DUP3 PUSH2 0x1535 JUMP JUMPDEST PUSH1 0x40 DUP3 ADD SWAP1 POP SWAP2 SWAP1 POP JUMP JUMPDEST PUSH1 0x0 PUSH1 0x20 DUP3 ADD SWAP1 POP DUP2 DUP2 SUB PUSH1 0x0 DUP4 ADD MSTORE PUSH2 0x15C0 DUP2 PUSH2 0x1584 JUMP JUMPDEST SWAP1 POP SWAP2 SWAP1 POP JUMP JUMPDEST PUSH32 0x526566756E6420706572696F64206973206E6F7420676F696E67206F6E2E0000 PUSH1 0x0 DUP3 ADD MSTORE POP JUMP JUMPDEST PUSH1 0x0 PUSH2 0x15FD PUSH1 0x1E DUP4 PUSH2 0xEE5 JUMP JUMPDEST SWAP2 POP PUSH2 0x1608 DUP3 PUSH2 0x15C7 JUMP JUMPDEST PUSH1 0x20 DUP3 ADD SWAP1 POP SWAP2 SWAP1 POP JUMP JUMPDEST PUSH1 0x0 PUSH1 0x20 DUP3 ADD SWAP1 POP DUP2 DUP2 SUB PUSH1 0x0 DUP4 ADD MSTORE PUSH2 0x162C DUP2 PUSH2 0x15F0 JUMP JUMPDEST SWAP1 POP SWAP2 SWAP1 POP JUMP JUMPDEST PUSH32 0x526566756E6420706572696F64206973206E6F74206F7665722E000000000000 PUSH1 0x0 DUP3 ADD MSTORE POP JUMP JUMPDEST PUSH1 0x0 PUSH2 0x1669 PUSH1 0x1A DUP4 PUSH2 0xEE5 JUMP JUMPDEST SWAP2 POP PUSH2 0x1674 DUP3 PUSH2 0x1633 JUMP JUMPDEST PUSH1 0x20 DUP3 ADD SWAP1 POP SWAP2 SWAP1 POP JUMP JUMPDEST PUSH1 0x0 PUSH1 0x20 DUP3 ADD SWAP1 POP DUP2 DUP2 SUB PUSH1 0x0 DUP4 ADD MSTORE PUSH2 0x1698 DUP2 PUSH2 0x165C JUMP JUMPDEST SWAP1 POP SWAP2 SWAP1 POP JUMP JUMPDEST PUSH32 0x596F7520646F206E6F74206861766520617574686F7269747920746F20636C6F PUSH1 0x0 DUP3 ADD MSTORE PUSH32 0x73652066756E64696E672E000000000000000000000000000000000000000000 PUSH1 0x20 DUP3 ADD MSTORE POP JUMP JUMPDEST PUSH1 0x0 PUSH2 0x16FB PUSH1 0x2B DUP4 PUSH2 0xEE5 JUMP JUMPDEST SWAP2 POP PUSH2 0x1706 DUP3 PUSH2 0x169F JUMP JUMPDEST PUSH1 0x40 DUP3 ADD SWAP1 POP SWAP2 SWAP1 POP JUMP JUMPDEST PUSH1 0x0 PUSH1 0x20 DUP3 ADD SWAP1 POP DUP2 DUP2 SUB PUSH1 0x0 DUP4 ADD MSTORE PUSH2 0x172A DUP2 PUSH2 0x16EE JUMP JUMPDEST SWAP1 POP SWAP2 SWAP1 POP JUMP JUMPDEST PUSH32 0x50726F6A6563742068617320636F6D706C657465642066756E64696E67207065 PUSH1 0x0 DUP3 ADD MSTORE PUSH32 0x72696F642E000000000000000000000000000000000000000000000000000000 PUSH1 0x20 DUP3 ADD MSTORE POP JUMP JUMPDEST PUSH1 0x0 PUSH2 0x178D PUSH1 0x25 DUP4 PUSH2 0xEE5 JUMP JUMPDEST SWAP2 POP PUSH2 0x1798 DUP3 PUSH2 0x1731 JUMP JUMPDEST PUSH1 0x40 DUP3 ADD SWAP1 POP SWAP2 SWAP1 POP JUMP JUMPDEST PUSH1 0x0 PUSH1 0x20 DUP3 ADD SWAP1 POP DUP2 DUP2 SUB PUSH1 0x0 DUP4 ADD MSTORE PUSH2 0x17BC DUP2 PUSH2 0x1780 JUMP JUMPDEST SWAP1 POP SWAP2 SWAP1 POP JUMP JUMPDEST PUSH32 0x54617267657420686173206265656E206869742E000000000000000000000000 PUSH1 0x0 DUP3 ADD MSTORE POP JUMP JUMPDEST PUSH1 0x0 PUSH2 0x17F9 PUSH1 0x14 DUP4 PUSH2 0xEE5 JUMP JUMPDEST SWAP2 POP PUSH2 0x1804 DUP3 PUSH2 0x17C3 JUMP JUMPDEST PUSH1 0x20 DUP3 ADD SWAP1 POP SWAP2 SWAP1 POP JUMP JUMPDEST PUSH1 0x0 PUSH1 0x20 DUP3 ADD SWAP1 POP DUP2 DUP2 SUB PUSH1 0x0 DUP4 ADD MSTORE PUSH2 0x1828 DUP2 PUSH2 0x17EC JUMP JUMPDEST SWAP1 POP SWAP2 SWAP1 POP JUMP JUMPDEST PUSH32 0x46756E64696E6720446561646C696E65206E6F7420526561636865642E000000 PUSH1 0x0 DUP3 ADD MSTORE POP JUMP JUMPDEST PUSH1 0x0 PUSH2 0x1865 PUSH1 0x1D DUP4 PUSH2 0xEE5 JUMP JUMPDEST SWAP2 POP PUSH2 0x1870 DUP3 PUSH2 0x182F JUMP JUMPDEST PUSH1 0x20 DUP3 ADD SWAP1 POP SWAP2 SWAP1 POP JUMP JUMPDEST PUSH1 0x0 PUSH1 0x20 DUP3 ADD SWAP1 POP DUP2 DUP2 SUB PUSH1 0x0 DUP4 ADD MSTORE PUSH2 0x1894 DUP2 PUSH2 0x1858 JUMP JUMPDEST SWAP1 POP SWAP2 SWAP1 POP JUMP JUMPDEST PUSH1 0x0 PUSH2 0x18A6 DUP3 PUSH2 0xFA0 JUMP JUMPDEST SWAP2 POP PUSH2 0x18B1 DUP4 PUSH2 0xFA0 JUMP JUMPDEST SWAP3 POP DUP3 DUP3 ADD SWAP1 POP DUP1 DUP3 GT ISZERO PUSH2 0x18C9 JUMPI PUSH2 0x18C8 PUSH2 0x1326 JUMP JUMPDEST JUMPDEST SWAP3 SWAP2 POP POP JUMP JUMPDEST PUSH32 0x50726F6A656374206973207374696C6C2072756E6E696E672E00000000000000 PUSH1 0x0 DUP3 ADD MSTORE POP JUMP JUMPDEST PUSH1 0x0 PUSH2 0x1905 PUSH1 0x19 DUP4 PUSH2 0xEE5 JUMP JUMPDEST SWAP2 POP PUSH2 0x1910 DUP3 PUSH2 0x18CF JUMP JUMPDEST PUSH1 0x20 DUP3 ADD SWAP1 POP SWAP2 SWAP1 POP JUMP JUMPDEST PUSH1 0x0 PUSH1 0x20 DUP3 ADD SWAP1 POP DUP2 DUP2 SUB PUSH1 0x0 DUP4 ADD MSTORE PUSH2 0x1934 DUP2 PUSH2 0x18F8 JUMP JUMPDEST SWAP1 POP SWAP2 SWAP1 POP JUMP JUMPDEST PUSH32 0x596F7520646F206E6F7420686176652074686520617574686F7269747920746F PUSH1 0x0 DUP3 ADD MSTORE PUSH32 0x206D616B65207061796D656E742E000000000000000000000000000000000000 PUSH1 0x20 DUP3 ADD MSTORE POP JUMP JUMPDEST PUSH1 0x0 PUSH2 0x1997 PUSH1 0x2E DUP4 PUSH2 0xEE5 JUMP JUMPDEST SWAP2 POP PUSH2 0x19A2 DUP3 PUSH2 0x193B JUMP JUMPDEST PUSH1 0x40 DUP3 ADD SWAP1 POP SWAP2 SWAP1 POP JUMP JUMPDEST PUSH1 0x0 PUSH1 0x20 DUP3 ADD SWAP1 POP DUP2 DUP2 SUB PUSH1 0x0 DUP4 ADD MSTORE PUSH2 0x19C6 DUP2 PUSH2 0x198A JUMP JUMPDEST SWAP1 POP SWAP2 SWAP1 POP JUMP JUMPDEST PUSH32 0x46756E64696E6720506572696F64206973206F7665722E000000000000000000 PUSH1 0x0 DUP3 ADD MSTORE POP JUMP JUMPDEST PUSH1 0x0 PUSH2 0x1A03 PUSH1 0x17 DUP4 PUSH2 0xEE5 JUMP JUMPDEST SWAP2 POP PUSH2 0x1A0E DUP3 PUSH2 0x19CD JUMP JUMPDEST PUSH1 0x20 DUP3 ADD SWAP1 POP SWAP2 SWAP1 POP JUMP JUMPDEST PUSH1 0x0 PUSH1 0x20 DUP3 ADD SWAP1 POP DUP2 DUP2 SUB PUSH1 0x0 DUP4 ADD MSTORE PUSH2 0x1A32 DUP2 PUSH2 0x19F6 JUMP JUMPDEST SWAP1 POP SWAP2 SWAP1 POP JUMP JUMPDEST PUSH32 0x46756E646E6720506572696F64206973206F7665722E00000000000000000000 PUSH1 0x0 DUP3 ADD MSTORE POP JUMP JUMPDEST PUSH1 0x0 PUSH2 0x1A6F PUSH1 0x16 DUP4 PUSH2 0xEE5 JUMP JUMPDEST SWAP2 POP PUSH2 0x1A7A DUP3 PUSH2 0x1A39 JUMP JUMPDEST PUSH1 0x20 DUP3 ADD SWAP1 POP SWAP2 SWAP1 POP JUMP JUMPDEST PUSH1 0x0 PUSH1 0x20 DUP3 ADD SWAP1 POP DUP2 DUP2 SUB PUSH1 0x0 DUP4 ADD MSTORE PUSH2 0x1A9E DUP2 PUSH2 0x1A62 JUMP JUMPDEST SWAP1 POP SWAP2 SWAP1 POP JUMP JUMPDEST PUSH32 0x416D6F756E74206C657373207468616E206D696E696D756D20646F6E6174696F PUSH1 0x0 DUP3 ADD MSTORE PUSH32 0x6E2E000000000000000000000000000000000000000000000000000000000000 PUSH1 0x20 DUP3 ADD MSTORE POP JUMP JUMPDEST PUSH1 0x0 PUSH2 0x1B01 PUSH1 0x22 DUP4 PUSH2 0xEE5 JUMP JUMPDEST SWAP2 POP PUSH2 0x1B0C DUP3 PUSH2 0x1AA5 JUMP JUMPDEST PUSH1 0x40 DUP3 ADD SWAP1 POP SWAP2 SWAP1 POP JUMP JUMPDEST PUSH1 0x0 PUSH1 0x20 DUP3 ADD SWAP1 POP DUP2 DUP2 SUB PUSH1 0x0 DUP4 ADD MSTORE PUSH2 0x1B30 DUP2 PUSH2 0x1AF4 JUMP JUMPDEST SWAP1 POP SWAP2 SWAP1 POP JUMP JUMPDEST PUSH1 0x0 DUP2 SWAP1 POP DUP2 PUSH1 0x0 MSTORE PUSH1 0x20 PUSH1 0x0 KECCAK256 SWAP1 POP SWAP2 SWAP1 POP JUMP JUMPDEST PUSH1 0x0 PUSH1 0x20 PUSH1 0x1F DUP4 ADD DIV SWAP1 POP SWAP2 SWAP1 POP JUMP JUMPDEST PUSH1 0x0 DUP3 DUP3 SHL SWAP1 POP SWAP3 SWAP2 POP POP JUMP JUMPDEST PUSH1 0x0 PUSH1 0x8 DUP4 MUL PUSH2 0x1B99 PUSH32 0xFFFFFFFFFFFFFFFFFFFFFFFFFFFFFFFFFFFFFFFFFFFFFFFFFFFFFFFFFFFFFFFF DUP3 PUSH2 0x1B5C JUMP JUMPDEST PUSH2 0x1BA3 DUP7 DUP4 PUSH2 0x1B5C JUMP JUMPDEST SWAP6 POP DUP1 NOT DUP5 AND SWAP4 POP DUP1 DUP7 AND DUP5 OR SWAP3 POP POP POP SWAP4 SWAP3 POP POP POP JUMP JUMPDEST PUSH1 0x0 DUP2 SWAP1 POP SWAP2 SWAP1 POP JUMP JUMPDEST PUSH1 0x0 PUSH2 0x1BE0 PUSH2 0x1BDB PUSH2 0x1BD6 DUP5 PUSH2 0xFA0 JUMP JUMPDEST PUSH2 0x1BBB JUMP JUMPDEST PUSH2 0xFA0 JUMP JUMPDEST SWAP1 POP SWAP2 SWAP1 POP JUMP JUMPDEST PUSH1 0x0 DUP2 SWAP1 POP SWAP2 SWAP1 POP JUMP JUMPDEST PUSH2 0x1BFA DUP4 PUSH2 0x1BC5 JUMP JUMPDEST PUSH2 0x1C0E PUSH2 0x1C06 DUP3 PUSH2 0x1BE7 JUMP JUMPDEST DUP5 DUP5 SLOAD PUSH2 0x1B69 JUMP JUMPDEST DUP3 SSTORE POP POP POP POP JUMP JUMPDEST PUSH1 0x0 SWAP1 JUMP JUMPDEST PUSH2 0x1C23 PUSH2 0x1C16 JUMP JUMPDEST PUSH2 0x1C2E DUP2 DUP5 DUP5 PUSH2 0x1BF1 JUMP JUMPDEST POP POP POP JUMP JUMPDEST JUMPDEST DUP2 DUP2 LT ISZERO PUSH2 0x1C52 JUMPI PUSH2 0x1C47 PUSH1 0x0 DUP3 PUSH2 0x1C1B JUMP JUMPDEST PUSH1 0x1 DUP2 ADD SWAP1 POP PUSH2 0x1C34 JUMP JUMPDEST POP POP JUMP JUMPDEST PUSH1 0x1F DUP3 GT ISZERO PUSH2 0x1C97 JUMPI PUSH2 0x1C68 DUP2 PUSH2 0x1B37 JUMP JUMPDEST PUSH2 0x1C71 DUP5 PUSH2 0x1B4C JUMP JUMPDEST DUP2 ADD PUSH1 0x20 DUP6 LT ISZERO PUSH2 0x1C80 JUMPI DUP2 SWAP1 POP JUMPDEST PUSH2 0x1C94 PUSH2 0x1C8C DUP6 PUSH2 0x1B4C JUMP JUMPDEST DUP4 ADD DUP3 PUSH2 0x1C33 JUMP JUMPDEST POP POP JUMPDEST POP POP POP JUMP JUMPDEST PUSH1 0x0 DUP3 DUP3 SHR SWAP1 POP SWAP3 SWAP2 POP POP JUMP JUMPDEST PUSH1 0x0 PUSH2 0x1CBA PUSH1 0x0 NOT DUP5 PUSH1 0x8 MUL PUSH2 0x1C9C JUMP JUMPDEST NOT DUP1 DUP4 AND SWAP2 POP POP SWAP3 SWAP2 POP POP JUMP JUMPDEST PUSH1 0x0 PUSH2 0x1CD3 DUP4 DUP4 PUSH2 0x1CA9 JUMP JUMPDEST SWAP2 POP DUP3 PUSH1 0x2 MUL DUP3 OR SWAP1 POP SWAP3 SWAP2 POP POP JUMP JUMPDEST PUSH2 0x1CEC DUP3 PUSH2 0xEDA JUMP JUMPDEST PUSH8 0xFFFFFFFFFFFFFFFF DUP2 GT ISZERO PUSH2 0x1D05 JUMPI PUSH2 0x1D04 PUSH2 0x1152 JUMP JUMPDEST JUMPDEST PUSH2 0x1D0F DUP3 SLOAD PUSH2 0x12F5 JUMP JUMPDEST PUSH2 0x1D1A DUP3 DUP3 DUP6 PUSH2 0x1C56 JUMP JUMPDEST PUSH1 0x0 PUSH1 0x20 SWAP1 POP PUSH1 0x1F DUP4 GT PUSH1 0x1 DUP2 EQ PUSH2 0x1D4D JUMPI PUSH1 0x0 DUP5 ISZERO PUSH2 0x1D3B JUMPI DUP3 DUP8 ADD MLOAD SWAP1 POP JUMPDEST PUSH2 0x1D45 DUP6 DUP3 PUSH2 0x1CC7 JUMP JUMPDEST DUP7 SSTORE POP PUSH2 0x1DAD JUMP JUMPDEST PUSH1 0x1F NOT DUP5 AND PUSH2 0x1D5B DUP7 PUSH2 0x1B37 JUMP JUMPDEST PUSH1 0x0 JUMPDEST DUP3 DUP2 LT ISZERO PUSH2 0x1D83 JUMPI DUP5 DUP10 ADD MLOAD DUP3 SSTORE PUSH1 0x1 DUP3 ADD SWAP2 POP PUSH1 0x20 DUP6 ADD SWAP5 POP PUSH1 0x20 DUP2 ADD SWAP1 POP PUSH2 0x1D5E JUMP JUMPDEST DUP7 DUP4 LT ISZERO PUSH2 0x1DA0 JUMPI DUP5 DUP10 ADD MLOAD PUSH2 0x1D9C PUSH1 0x1F DUP10 AND DUP3 PUSH2 0x1CA9 JUMP JUMPDEST DUP4 SSTORE POP JUMPDEST PUSH1 0x1 PUSH1 0x2 DUP9 MUL ADD DUP9 SSTORE POP POP POP JUMPDEST POP POP POP POP POP POP JUMP INVALID LOG2 PUSH5 0x6970667358 0x22 SLT KECCAK256 EXTCODESIZE 0xD MSIZE 0xB8 0x5F 0x2F SLOAD 0xCA 0x5D 0xCC 0xA6 TIMESTAMP 0xE1 JUMPI 0xCA SWAP5 DUP2 PUSH8 0x3F0B1D8617194F26 STATICCALL DIV PUSH12 0x42C16C64736F6C6343000813 STOP CALLER "
				},
				"gasEstimates": {
					"creation": {
						"codeDepositCost": "1531800",
						"executionCost": "infinite",
						"totalCost": "infinite"
					},
					"external": {
						"creator()": "2535",
						"description()": "infinite",
						"donateToProject(string)": "infinite",
						"donations(address)": "infinite",
						"fundingDeadline()": "2496",
						"goal()": "2452",
						"makePayment()": "infinite",
						"name()": "infinite",
						"raised()": "2473",
						"receiver()": "2602",
						"refund(uint256)": "infinite",
						"refundDeadline()": "2451",
						"refundPeriodOver()": "31023",
						"state()": "2583",
						"targetNotHit()": "infinite"
					}
				},
				"methodIdentifiers": {
					"creator()": "02d05d3f",
					"description()": "7284e416",
					"donateToProject(string)": "f6b58310",
					"donations(address)": "cc6cb19a",
					"fundingDeadline()": "796b23bb",
					"goal()": "40193883",
					"makePayment()": "d8d79700",
					"name()": "06fdde03",
					"raised()": "f0ea4bfc",
					"receiver()": "f7260d3e",
					"refund(uint256)": "278ecde1",
					"refundDeadline()": "e1aa1bcc",
					"refundPeriodOver()": "ad3bf1f1",
					"state()": "c19d93fb",
					"targetNotHit()": "d886cab9"
				}
			},
			"storageLayout": {
				"storage": [
					{
						"astId": 13,
						"contract": "Project.sol:Project",
						"label": "creator",
						"offset": 0,
						"slot": "0",
						"type": "t_address"
					},
					{
						"astId": 15,
						"contract": "Project.sol:Project",
						"label": "receiver",
						"offset": 0,
						"slot": "1",
						"type": "t_address"
					},
					{
						"astId": 17,
						"contract": "Project.sol:Project",
						"label": "name",
						"offset": 0,
						"slot": "2",
						"type": "t_string_storage"
					},
					{
						"astId": 19,
						"contract": "Project.sol:Project",
						"label": "description",
						"offset": 0,
						"slot": "3",
						"type": "t_string_storage"
					},
					{
						"astId": 21,
						"contract": "Project.sol:Project",
						"label": "goal",
						"offset": 0,
						"slot": "4",
						"type": "t_uint256"
					},
					{
						"astId": 23,
						"contract": "Project.sol:Project",
						"label": "raised",
						"offset": 0,
						"slot": "5",
						"type": "t_uint256"
					},
					{
						"astId": 25,
						"contract": "Project.sol:Project",
						"label": "fundingDuration",
						"offset": 0,
						"slot": "6",
						"type": "t_uint256"
					},
					{
						"astId": 27,
						"contract": "Project.sol:Project",
						"label": "refundDuration",
						"offset": 0,
						"slot": "7",
						"type": "t_uint256"
					},
					{
						"astId": 29,
						"contract": "Project.sol:Project",
						"label": "fundingDeadline",
						"offset": 0,
						"slot": "8",
						"type": "t_uint256"
					},
					{
						"astId": 31,
						"contract": "Project.sol:Project",
						"label": "refundDeadline",
						"offset": 0,
						"slot": "9",
						"type": "t_uint256"
					},
					{
						"astId": 34,
						"contract": "Project.sol:Project",
						"label": "state",
						"offset": 0,
						"slot": "10",
						"type": "t_enum(State)6"
					},
					{
						"astId": 39,
						"contract": "Project.sol:Project",
						"label": "minDonation",
						"offset": 0,
						"slot": "11",
						"type": "t_uint256"
					},
					{
						"astId": 44,
						"contract": "Project.sol:Project",
						"label": "refundFee",
						"offset": 0,
						"slot": "12",
						"type": "t_uint256"
					},
					{
						"astId": 49,
						"contract": "Project.sol:Project",
						"label": "donations",
						"offset": 0,
						"slot": "13",
						"type": "t_mapping(t_address,t_struct(Donation)11_storage)"
					}
				],
				"types": {
					"t_address": {
						"encoding": "inplace",
						"label": "address",
						"numberOfBytes": "20"
					},
					"t_enum(State)6": {
						"encoding": "inplace",
						"label": "enum Project.State",
						"numberOfBytes": "1"
					},
					"t_mapping(t_address,t_struct(Donation)11_storage)": {
						"encoding": "mapping",
						"key": "t_address",
						"label": "mapping(address => struct Project.Donation)",
						"numberOfBytes": "32",
						"value": "t_struct(Donation)11_storage"
					},
					"t_string_storage": {
						"encoding": "bytes",
						"label": "string",
						"numberOfBytes": "32"
					},
					"t_struct(Donation)11_storage": {
						"encoding": "inplace",
						"label": "struct Project.Donation",
						"members": [
							{
								"astId": 8,
								"contract": "Project.sol:Project",
								"label": "value",
								"offset": 0,
								"slot": "0",
								"type": "t_uint256"
							},
							{
								"astId": 10,
								"contract": "Project.sol:Project",
								"label": "message",
								"offset": 0,
								"slot": "1",
								"type": "t_string_storage"
							}
						],
						"numberOfBytes": "64"
					},
					"t_uint256": {
						"encoding": "inplace",
						"label": "uint256",
						"numberOfBytes": "32"
					}
				}
			},
			"userdoc": {
				"kind": "user",
				"methods": {},
				"version": 1
			}
		}
	}
}