{
  "contractName": "ProjectManager",
  "abi": [
    {
      "inputs": [],
      "name": "projectNumber",
      "outputs": [
        {
          "internalType": "uint256",
          "name": "",
          "type": "uint256"
        }
      ],
      "stateMutability": "view",
      "type": "function"
    },
    {
      "inputs": [
        {
          "internalType": "uint256",
          "name": "",
          "type": "uint256"
        }
      ],
      "name": "projects",
      "outputs": [
        {
          "internalType": "address",
          "name": "",
          "type": "address"
        }
      ],
      "stateMutability": "view",
      "type": "function"
    },
    {
      "inputs": [
        {
          "internalType": "address",
          "name": "receiverAddress",
          "type": "address"
        },
        {
          "internalType": "string",
          "name": "projectName",
          "type": "string"
        },
        {
          "internalType": "string",
          "name": "projectDescription",
          "type": "string"
        },
        {
          "internalType": "uint256",
          "name": "projectGoal",
          "type": "uint256"
        },
        {
          "internalType": "uint256",
          "name": "fundingDeadline",
          "type": "uint256"
        },
        {
          "internalType": "uint256",
          "name": "refundDeadline",
          "type": "uint256"
        }
      ],
      "name": "createProject",
      "outputs": [],
      "stateMutability": "nonpayable",
      "type": "function"
    }
  ],
  "bytecode": "0x60806040526001805566038d7ea4c680006002556201518060035534801561002657600080fd5b50612a82806100366000396000f3fe60806040523480156200001157600080fd5b5060043610620000465760003560e01c8063107046bd146200004b578063c56e5b9b1462000081578063dd0eb71214620000a3575b600080fd5b6200006960048036038101906200006391906200032e565b620000c3565b604051620000789190620003a5565b60405180910390f35b6200008b620000f6565b6040516200009a9190620003d3565b60405180910390f35b620000c16004803603810190620000bb919062000583565b620000fc565b005b60006020528060005260406000206000915054906101000a900473ffffffffffffffffffffffffffffffffffffffff1681565b60015481565b600254633b9aca00846200011191906200068c565b101562000155576040517f08c379a00000000000000000000000000000000000000000000000000000000081526004016200014c906200075e565b60405180910390fd5b62069780428362000167919062000780565b1015620001ab576040517f08c379a0000000000000000000000000000000000000000000000000000000008152600401620001a29062000831565b60405180910390fd5b620151808282620001bd919062000780565b101562000201576040517f08c379a0000000000000000000000000000000000000000000000000000000008152600401620001f890620008c9565b60405180910390fd5b600033878787633b9aca00886200021991906200068c565b87876040516200022990620002d1565b6200023b979695949392919062000963565b604051809103906000f08015801562000258573d6000803e3d6000fd5b50905080600080600154815260200190815260200160002060006101000a81548173ffffffffffffffffffffffffffffffffffffffff021916908373ffffffffffffffffffffffffffffffffffffffff16021790555060016000815480929190620002c390620009ee565b919050555050505050505050565b6120118062000a3c83390190565b6000604051905090565b600080fd5b600080fd5b6000819050919050565b6200030881620002f3565b81146200031457600080fd5b50565b6000813590506200032881620002fd565b92915050565b600060208284031215620003475762000346620002e9565b5b6000620003578482850162000317565b91505092915050565b600073ffffffffffffffffffffffffffffffffffffffff82169050919050565b60006200038d8262000360565b9050919050565b6200039f8162000380565b82525050565b6000602082019050620003bc600083018462000394565b92915050565b620003cd81620002f3565b82525050565b6000602082019050620003ea6000830184620003c2565b92915050565b620003fb8162000380565b81146200040757600080fd5b50565b6000813590506200041b81620003f0565b92915050565b600080fd5b600080fd5b6000601f19601f8301169050919050565b7f4e487b7100000000000000000000000000000000000000000000000000000000600052604160045260246000fd5b62000476826200042b565b810181811067ffffffffffffffff821117156200049857620004976200043c565b5b80604052505050565b6000620004ad620002df565b9050620004bb82826200046b565b919050565b600067ffffffffffffffff821115620004de57620004dd6200043c565b5b620004e9826200042b565b9050602081019050919050565b82818337600083830152505050565b60006200051c6200051684620004c0565b620004a1565b9050828152602081018484840111156200053b576200053a62000426565b5b62000548848285620004f6565b509392505050565b600082601f83011262000568576200056762000421565b5b81356200057a84826020860162000505565b91505092915050565b60008060008060008060c08789031215620005a357620005a2620002e9565b5b6000620005b389828a016200040a565b965050602087013567ffffffffffffffff811115620005d757620005d6620002ee565b5b620005e589828a0162000550565b955050604087013567ffffffffffffffff811115620006095762000608620002ee565b5b6200061789828a0162000550565b94505060606200062a89828a0162000317565b93505060806200063d89828a0162000317565b92505060a06200065089828a0162000317565b9150509295509295509295565b7f4e487b7100000000000000000000000000000000000000000000000000000000600052601160045260246000fd5b60006200069982620002f3565b9150620006a683620002f3565b9250828202620006b681620002f3565b91508282048414831517620006d057620006cf6200065d565b5b5092915050565b600082825260208201905092915050565b7f50726f6a65637420676f616c2073686f756c642062652061746c65617374203060008201527f2e30303120457468000000000000000000000000000000000000000000000000602082015250565b600062000746602883620006d7565b91506200075382620006e8565b604082019050919050565b60006020820190508181036000830152620007798162000737565b9050919050565b60006200078d82620002f3565b91506200079a83620002f3565b9250828203905081811115620007b557620007b46200065d565b5b92915050565b7f46756e64696e67206475726174696f6e206d7573742062652061746c6561737460008201527f203520446179732e000000000000000000000000000000000000000000000000602082015250565b600062000819602883620006d7565b91506200082682620007bb565b604082019050919050565b600060208201905081810360008301526200084c816200080a565b9050919050565b7f526566756e64204475726174696f6e206d7573742062652061746c656173742060008201527f31204461792e0000000000000000000000000000000000000000000000000000602082015250565b6000620008b1602683620006d7565b9150620008be8262000853565b604082019050919050565b60006020820190508181036000830152620008e481620008a2565b9050919050565b600081519050919050565b60005b8381101562000916578082015181840152602081019050620008f9565b60008484015250505050565b60006200092f82620008eb565b6200093b8185620006d7565b93506200094d818560208601620008f6565b62000958816200042b565b840191505092915050565b600060e0820190506200097a600083018a62000394565b62000989602083018962000394565b81810360408301526200099d818862000922565b90508181036060830152620009b3818762000922565b9050620009c46080830186620003c2565b620009d360a0830185620003c2565b620009e260c0830184620003c2565b98975050505050505050565b6000620009fb82620002f3565b91507fffffffffffffffffffffffffffffffffffffffffffffffffffffffffffffffff820362000a305762000a2f6200065d565b5b60018201905091905056fe608060405266038d7ea4c6800060095562989680600a553480156200002357600080fd5b506040516200201138038062002011833981810160405281019062000049919062000379565b866000806101000a81548173ffffffffffffffffffffffffffffffffffffffff021916908373ffffffffffffffffffffffffffffffffffffffff16021790555085600160006101000a81548173ffffffffffffffffffffffffffffffffffffffff021916908373ffffffffffffffffffffffffffffffffffffffff1602179055508460029081620000db9190620006ab565b508360039081620000ed9190620006ab565b5082600481905550600060058190555081600681905550806007819055506000600860006101000a81548160ff0219169083600181111562000134576200013362000792565b5b021790555050505050505050620007c1565b6000604051905090565b600080fd5b600080fd5b600073ffffffffffffffffffffffffffffffffffffffff82169050919050565b600062000187826200015a565b9050919050565b62000199816200017a565b8114620001a557600080fd5b50565b600081519050620001b9816200018e565b92915050565b600080fd5b600080fd5b6000601f19601f8301169050919050565b7f4e487b7100000000000000000000000000000000000000000000000000000000600052604160045260246000fd5b6200021482620001c9565b810181811067ffffffffffffffff82111715620002365762000235620001da565b5b80604052505050565b60006200024b62000146565b905062000259828262000209565b919050565b600067ffffffffffffffff8211156200027c576200027b620001da565b5b6200028782620001c9565b9050602081019050919050565b60005b83811015620002b457808201518184015260208101905062000297565b60008484015250505050565b6000620002d7620002d1846200025e565b6200023f565b905082815260208101848484011115620002f657620002f5620001c4565b5b6200030384828562000294565b509392505050565b600082601f830112620003235762000322620001bf565b5b815162000335848260208601620002c0565b91505092915050565b6000819050919050565b62000353816200033e565b81146200035f57600080fd5b50565b600081519050620003738162000348565b92915050565b600080600080600080600060e0888a0312156200039b576200039a62000150565b5b6000620003ab8a828b01620001a8565b9750506020620003be8a828b01620001a8565b965050604088015167ffffffffffffffff811115620003e257620003e162000155565b5b620003f08a828b016200030b565b955050606088015167ffffffffffffffff81111562000414576200041362000155565b5b620004228a828b016200030b565b9450506080620004358a828b0162000362565b93505060a0620004488a828b0162000362565b92505060c06200045b8a828b0162000362565b91505092959891949750929550565b600081519050919050565b7f4e487b7100000000000000000000000000000000000000000000000000000000600052602260045260246000fd5b60006002820490506001821680620004bd57607f821691505b602082108103620004d357620004d262000475565b5b50919050565b60008190508160005260206000209050919050565b60006020601f8301049050919050565b600082821b905092915050565b6000600883026200053d7fffffffffffffffffffffffffffffffffffffffffffffffffffffffffffffffff82620004fe565b620005498683620004fe565b95508019841693508086168417925050509392505050565b6000819050919050565b60006200058c6200058662000580846200033e565b62000561565b6200033e565b9050919050565b6000819050919050565b620005a8836200056b565b620005c0620005b78262000593565b8484546200050b565b825550505050565b600090565b620005d7620005c8565b620005e48184846200059d565b505050565b5b818110156200060c5762000600600082620005cd565b600181019050620005ea565b5050565b601f8211156200065b576200062581620004d9565b6200063084620004ee565b8101602085101562000640578190505b620006586200064f85620004ee565b830182620005e9565b50505b505050565b600082821c905092915050565b6000620006806000198460080262000660565b1980831691505092915050565b60006200069b83836200066d565b9150826002028217905092915050565b620006b6826200046a565b67ffffffffffffffff811115620006d257620006d1620001da565b5b620006de8254620004a4565b620006eb82828562000610565b600060209050601f8311600181146200072357600084156200070e578287015190505b6200071a85826200068d565b8655506200078a565b601f1984166200073386620004d9565b60005b828110156200075d5784890151825560018201915060208501945060208101905062000736565b868310156200077d578489015162000779601f8916826200066d565b8355505b6001600288020188555050505b505050505050565b7f4e487b7100000000000000000000000000000000000000000000000000000000600052602160045260246000fd5b61184080620007d16000396000f3fe6080604052600436106100c25760003560e01c8063c19d93fb1161007f578063e1aa1bcc11610059578063e1aa1bcc1461022d578063f0ea4bfc14610258578063f6b5831014610283578063f7260d3e1461029f576100c2565b8063c19d93fb146101ba578063cc6cb19a146101e5578063d8d7970014610223576100c2565b806302d05d3f146100c757806306fdde03146100f2578063278ecde11461011d57806340193883146101395780637284e41614610164578063796b23bb1461018f575b600080fd5b3480156100d357600080fd5b506100dc6102ca565b6040516100e99190610c0e565b60405180910390f35b3480156100fe57600080fd5b506101076102ee565b6040516101149190610cb9565b60405180910390f35b61013760048036038101906101329190610d25565b61037c565b005b34801561014557600080fd5b5061014e6105a7565b60405161015b9190610d61565b60405180910390f35b34801561017057600080fd5b506101796105ad565b6040516101869190610cb9565b60405180910390f35b34801561019b57600080fd5b506101a461063b565b6040516101b19190610d61565b60405180910390f35b3480156101c657600080fd5b506101cf610641565b6040516101dc9190610df3565b60405180910390f35b3480156101f157600080fd5b5061020c60048036038101906102079190610e3a565b610654565b60405161021a929190610e67565b60405180910390f35b61022b610700565b005b34801561023957600080fd5b506102426108d6565b60405161024f9190610d61565b60405180910390f35b34801561026457600080fd5b5061026d6108dc565b60405161027a9190610d61565b60405180910390f35b61029d60048036038101906102989190610fcc565b6108e2565b005b3480156102ab57600080fd5b506102b4610ba7565b6040516102c19190610c0e565b60405180910390f35b60008054906101000a900473ffffffffffffffffffffffffffffffffffffffff1681565b600280546102fb90611044565b80601f016020809104026020016040519081016040528092919081815260200182805461032790611044565b80156103745780601f1061034957610100808354040283529160200191610374565b820191906000526020600020905b81548152906001019060200180831161035757829003601f168201915b505050505081565b6000633b9aca008261038e91906110a4565b90506000600b60003373ffffffffffffffffffffffffffffffffffffffff1673ffffffffffffffffffffffffffffffffffffffff1681526020019081526020016000209050600060018111156103e7576103e6610d7c565b5b600860009054906101000a900460ff16600181111561040957610408610d7c565b5b14610449576040517f08c379a000000000000000000000000000000000000000000000000000000000815260040161044090611132565b60405180910390fd5b60065442101561048e576040517f08c379a00000000000000000000000000000000000000000000000000000000081526004016104859061119e565b60405180910390fd5b4260075410156104d3576040517f08c379a00000000000000000000000000000000000000000000000000000000081526004016104ca9061120a565b60405180910390fd5b818160000154101561051a576040517f08c379a00000000000000000000000000000000000000000000000000000000081526004016105119061129c565b60405180910390fd5b3373ffffffffffffffffffffffffffffffffffffffff166108fc600a548461054291906112bc565b9081150290604051600060405180830381858888f1935050505015801561056d573d6000803e3d6000fd5b508181600001600082825461058291906112bc565b92505081905550816005600082825461059b91906112bc565b92505081905550505050565b60045481565b600380546105ba90611044565b80601f01602080910402602001604051908101604052809291908181526020018280546105e690611044565b80156106335780601f1061060857610100808354040283529160200191610633565b820191906000526020600020905b81548152906001019060200180831161061657829003601f168201915b505050505081565b60065481565b600860009054906101000a900460ff1681565b600b60205280600052604060002060009150905080600001549080600101805461067d90611044565b80601f01602080910402602001604051908101604052809291908181526020018280546106a990611044565b80156106f65780601f106106cb576101008083540402835291602001916106f6565b820191906000526020600020905b8154815290600101906020018083116106d957829003601f168201915b5050505050905082565b6000600181111561071457610713610d7c565b5b600860009054906101000a900460ff16600181111561073657610735610d7c565b5b14610776576040517f08c379a000000000000000000000000000000000000000000000000000000000815260040161076d9061133c565b60405180910390fd5b6000600b60003373ffffffffffffffffffffffffffffffffffffffff1673ffffffffffffffffffffffffffffffffffffffff16815260200190815260200160002060000154116107fb576040517f08c379a00000000000000000000000000000000000000000000000000000000081526004016107f2906113ce565b60405180910390fd5b600754421015610840576040517f08c379a00000000000000000000000000000000000000000000000000000000081526004016108379061143a565b60405180910390fd5b600160009054906101000a900473ffffffffffffffffffffffffffffffffffffffff1673ffffffffffffffffffffffffffffffffffffffff166108fc479081150290604051600060405180830381858888f193505050501580156108a8573d6000803e3d6000fd5b506001600860006101000a81548160ff021916908360018111156108cf576108ce610d7c565b5b0217905550565b60075481565b60055481565b600060018111156108f6576108f5610d7c565b5b600860009054906101000a900460ff16600181111561091857610917610d7c565b5b14610958576040517f08c379a000000000000000000000000000000000000000000000000000000000815260040161094f90611132565b60405180910390fd5b60065442111561099d576040517f08c379a0000000000000000000000000000000000000000000000000000000008152600401610994906114a6565b60405180910390fd5b6009543410156109e2576040517f08c379a00000000000000000000000000000000000000000000000000000000081526004016109d990611538565b60405180910390fd5b6000600b60003373ffffffffffffffffffffffffffffffffffffffff1673ffffffffffffffffffffffffffffffffffffffff168152602001908152602001600020905034816000016000828254610a399190611558565b9250508190555081816001019081610a519190611738565b503460056000828254610a649190611558565b9250508190555060045460055410610ba3576000600454600554610a8891906112bc565b9050600a54811115610b04573373ffffffffffffffffffffffffffffffffffffffff166108fc600a5483610abc91906112bc565b9081150290604051600060405180830381858888f19350505050158015610ae7573d6000803e3d6000fd5b5080826000016000828254610afc91906112bc565b925050819055505b600454600581905550600160009054906101000a900473ffffffffffffffffffffffffffffffffffffffff1673ffffffffffffffffffffffffffffffffffffffff166108fc479081150290604051600060405180830381858888f19350505050158015610b75573d6000803e3d6000fd5b506001600860006101000a81548160ff02191690836001811115610b9c57610b9b610d7c565b5b0217905550505b5050565b600160009054906101000a900473ffffffffffffffffffffffffffffffffffffffff1681565b600073ffffffffffffffffffffffffffffffffffffffff82169050919050565b6000610bf882610bcd565b9050919050565b610c0881610bed565b82525050565b6000602082019050610c236000830184610bff565b92915050565b600081519050919050565b600082825260208201905092915050565b60005b83811015610c63578082015181840152602081019050610c48565b60008484015250505050565b6000601f19601f8301169050919050565b6000610c8b82610c29565b610c958185610c34565b9350610ca5818560208601610c45565b610cae81610c6f565b840191505092915050565b60006020820190508181036000830152610cd38184610c80565b905092915050565b6000604051905090565b600080fd5b600080fd5b6000819050919050565b610d0281610cef565b8114610d0d57600080fd5b50565b600081359050610d1f81610cf9565b92915050565b600060208284031215610d3b57610d3a610ce5565b5b6000610d4984828501610d10565b91505092915050565b610d5b81610cef565b82525050565b6000602082019050610d766000830184610d52565b92915050565b7f4e487b7100000000000000000000000000000000000000000000000000000000600052602160045260246000fd5b60028110610dbc57610dbb610d7c565b5b50565b6000819050610dcd82610dab565b919050565b6000610ddd82610dbf565b9050919050565b610ded81610dd2565b82525050565b6000602082019050610e086000830184610de4565b92915050565b610e1781610bed565b8114610e2257600080fd5b50565b600081359050610e3481610e0e565b92915050565b600060208284031215610e5057610e4f610ce5565b5b6000610e5e84828501610e25565b91505092915050565b6000604082019050610e7c6000830185610d52565b8181036020830152610e8e8184610c80565b90509392505050565b600080fd5b600080fd5b7f4e487b7100000000000000000000000000000000000000000000000000000000600052604160045260246000fd5b610ed982610c6f565b810181811067ffffffffffffffff82111715610ef857610ef7610ea1565b5b80604052505050565b6000610f0b610cdb565b9050610f178282610ed0565b919050565b600067ffffffffffffffff821115610f3757610f36610ea1565b5b610f4082610c6f565b9050602081019050919050565b82818337600083830152505050565b6000610f6f610f6a84610f1c565b610f01565b905082815260208101848484011115610f8b57610f8a610e9c565b5b610f96848285610f4d565b509392505050565b600082601f830112610fb357610fb2610e97565b5b8135610fc3848260208601610f5c565b91505092915050565b600060208284031215610fe257610fe1610ce5565b5b600082013567ffffffffffffffff81111561100057610fff610cea565b5b61100c84828501610f9e565b91505092915050565b7f4e487b7100000000000000000000000000000000000000000000000000000000600052602260045260246000fd5b6000600282049050600182168061105c57607f821691505b60208210810361106f5761106e611015565b5b50919050565b7f4e487b7100000000000000000000000000000000000000000000000000000000600052601160045260246000fd5b60006110af82610cef565b91506110ba83610cef565b92508282026110c881610cef565b915082820484148315176110df576110de611075565b5b5092915050565b7f50726f6a65637420436c6f7365642e0000000000000000000000000000000000600082015250565b600061111c600f83610c34565b9150611127826110e6565b602082019050919050565b6000602082019050818103600083015261114b8161110f565b9050919050565b7f526566756e6420706572696f6420686173206e6f7420737461727465642e0000600082015250565b6000611188601e83610c34565b915061119382611152565b602082019050919050565b600060208201905081810360008301526111b78161117b565b9050919050565b7f526566756e6420706572696f64206f7665722e00000000000000000000000000600082015250565b60006111f4601383610c34565b91506111ff826111be565b602082019050919050565b60006020820190508181036000830152611223816111e7565b9050919050565b7f41736b696e6720616d6f756e742069732067726561746572207468616e20646f60008201527f6e617465642e0000000000000000000000000000000000000000000000000000602082015250565b6000611286602683610c34565b91506112918261122a565b604082019050919050565b600060208201905081810360008301526112b581611279565b9050919050565b60006112c782610cef565b91506112d283610cef565b92508282039050818111156112ea576112e9611075565b5b92915050565b7f5061796d656e742068617320616c7265616479206265656e206d6164652e0000600082015250565b6000611326601e83610c34565b9150611331826112f0565b602082019050919050565b6000602082019050818103600083015261135581611319565b9050919050565b7f596f7520617265206e6f742061207061727469636970616e74206f662074686960008201527f732066756e642e00000000000000000000000000000000000000000000000000602082015250565b60006113b8602783610c34565b91506113c38261135c565b604082019050919050565b600060208201905081810360008301526113e7816113ab565b9050919050565b7f50726f6a656374206973207374696c6c2072756e6e696e672e00000000000000600082015250565b6000611424601983610c34565b915061142f826113ee565b602082019050919050565b6000602082019050818103600083015261145381611417565b9050919050565b7f46756e646e6720506572696f64206973206f7665722e00000000000000000000600082015250565b6000611490601683610c34565b915061149b8261145a565b602082019050919050565b600060208201905081810360008301526114bf81611483565b9050919050565b7f416d6f756e74206c657373207468616e206d696e696d756d20646f6e6174696f60008201527f6e2e000000000000000000000000000000000000000000000000000000000000602082015250565b6000611522602283610c34565b915061152d826114c6565b604082019050919050565b6000602082019050818103600083015261155181611515565b9050919050565b600061156382610cef565b915061156e83610cef565b925082820190508082111561158657611585611075565b5b92915050565b60008190508160005260206000209050919050565b60006020601f8301049050919050565b600082821b905092915050565b6000600883026115ee7fffffffffffffffffffffffffffffffffffffffffffffffffffffffffffffffff826115b1565b6115f886836115b1565b95508019841693508086168417925050509392505050565b6000819050919050565b600061163561163061162b84610cef565b611610565b610cef565b9050919050565b6000819050919050565b61164f8361161a565b61166361165b8261163c565b8484546115be565b825550505050565b600090565b61167861166b565b611683818484611646565b505050565b5b818110156116a75761169c600082611670565b600181019050611689565b5050565b601f8211156116ec576116bd8161158c565b6116c6846115a1565b810160208510156116d5578190505b6116e96116e1856115a1565b830182611688565b50505b505050565b600082821c905092915050565b600061170f600019846008026116f1565b1980831691505092915050565b600061172883836116fe565b9150826002028217905092915050565b61174182610c29565b67ffffffffffffffff81111561175a57611759610ea1565b5b6117648254611044565b61176f8282856116ab565b600060209050601f8311600181146117a25760008415611790578287015190505b61179a858261171c565b865550611802565b601f1984166117b08661158c565b60005b828110156117d8578489015182556001820191506020850194506020810190506117b3565b868310156117f557848901516117f1601f8916826116fe565b8355505b6001600288020188555050505b50505050505056fea264697066735822122029a536d35a7273243991fbdc3288acdc8a91f8f76d0313e8e1f1cebf3318534b64736f6c63430008130033a2646970667358221220c2d58d75f7f04bbd61b87a0cec6ae881758d3421d81dc2355659c0528f9f4b3264736f6c63430008130033",
  "immutableReferences": {},
  "source": "// SPDX-License-Identifier: MIT\npragma solidity 0.8.19;\n\nimport \"./Project.sol\";\n\ncontract ProjectManager {\n    mapping(uint256 => address) public projects;\n    uint256 public projectNumber = 1;\n    uint256 minGoal = 1000000 * 1 gwei;\n    uint256 day = 86400;\n\n    function createProject(\n        address receiverAddress,\n        string memory projectName,\n        string memory projectDescription,\n        uint256 projectGoal,\n        uint256 fundingDeadline,\n        uint256 refundDeadline\n    ) external {\n        require(\n            projectGoal * 1 gwei >= minGoal,\n            \"Project goal should be atleast 0.001 Eth\"\n        );\n        require(\n            fundingDeadline - block.timestamp >= 432000,\n            \"Funding duration must be atleast 5 Days.\"\n        );\n        require(\n            refundDeadline - fundingDeadline >= 86400,\n            \"Refund Duration must be atleast 1 Day.\"\n        );\n\n        Project newProject = new Project(\n            msg.sender,\n            receiverAddress,\n            projectName,\n            projectDescription,\n            projectGoal * 1 gwei,\n            fundingDeadline,\n            refundDeadline\n        );\n        projects[projectNumber] = address(newProject);\n        projectNumber++;\n    }\n}\n",
  "sourcePath": "/home/armaan/Blockchain/CrowdFundingDapp-2/truffle/contracts/ProjectManager.sol",
  "compiler": {
    "name": "solc",
    "version": "0.8.19+commit.7dd6d404.Emscripten.clang"
  },
  "schemaVersion": "3.4.16",
  "updatedAt": "2024-07-17T20:38:57.573Z",
  "devdoc": {
    "kind": "dev",
    "methods": {},
    "version": 1
  },
  "userdoc": {
    "kind": "user",
    "methods": {},
    "version": 1
  }
}