{
  "contractName": "ProjectManager",
  "abi": [
    {
      "inputs": [],
      "name": "projectNumber",
      "outputs": [
        {
          "internalType": "uint256",
          "name": "",
          "type": "uint256"
        }
      ],
      "stateMutability": "view",
      "type": "function",
      "constant": true
    },
    {
      "inputs": [
        {
          "internalType": "uint256",
          "name": "",
          "type": "uint256"
        }
      ],
      "name": "projects",
      "outputs": [
        {
          "internalType": "address",
          "name": "",
          "type": "address"
        }
      ],
      "stateMutability": "view",
      "type": "function",
      "constant": true
    },
    {
      "inputs": [
        {
          "internalType": "address",
          "name": "receiverAddress",
          "type": "address"
        },
        {
          "internalType": "string",
          "name": "projectName",
          "type": "string"
        },
        {
          "internalType": "string",
          "name": "projectDescription",
          "type": "string"
        },
        {
          "internalType": "uint256",
          "name": "projectGoal",
          "type": "uint256"
        },
        {
          "internalType": "uint256",
          "name": "fundingDuration",
          "type": "uint256"
        },
        {
          "internalType": "uint256",
          "name": "refundDuration",
          "type": "uint256"
        }
      ],
      "name": "createProject",
      "outputs": [],
      "stateMutability": "nonpayable",
      "type": "function"
    }
  ],
  "bytecode": "0x60806040526001805566038d7ea4c680006002556201518060035534801561002657600080fd5b50613056806100366000396000f3fe60806040523480156200001157600080fd5b5060043610620000465760003560e01c8063107046bd146200004b578063c56e5b9b1462000081578063dd0eb71214620000a3575b600080fd5b62000069600480360381019062000063919062000314565b620000c3565b6040516200007891906200038b565b60405180910390f35b6200008b620000f6565b6040516200009a9190620003b9565b60405180910390f35b620000c16004803603810190620000bb919062000569565b620000fc565b005b60006020528060005260406000206000915054906101000a900473ffffffffffffffffffffffffffffffffffffffff1681565b60015481565b600254633b9aca008462000111919062000672565b101562000155576040517f08c379a00000000000000000000000000000000000000000000000000000000081526004016200014c9062000744565b60405180910390fd5b620697808210156200019e576040517f08c379a00000000000000000000000000000000000000000000000000000000081526004016200019590620007dc565b60405180910390fd5b62015180811015620001e7576040517f08c379a0000000000000000000000000000000000000000000000000000000008152600401620001de9062000874565b60405180910390fd5b600033878787633b9aca0088620001ff919062000672565b87876040516200020f90620002b7565b6200022197969594939291906200090e565b604051809103906000f0801580156200023e573d6000803e3d6000fd5b50905080600080600154815260200190815260200160002060006101000a81548173ffffffffffffffffffffffffffffffffffffffff021916908373ffffffffffffffffffffffffffffffffffffffff16021790555060016000815480929190620002a99062000999565b919050555050505050505050565b61263a80620009e783390190565b6000604051905090565b600080fd5b600080fd5b6000819050919050565b620002ee81620002d9565b8114620002fa57600080fd5b50565b6000813590506200030e81620002e3565b92915050565b6000602082840312156200032d576200032c620002cf565b5b60006200033d84828501620002fd565b91505092915050565b600073ffffffffffffffffffffffffffffffffffffffff82169050919050565b6000620003738262000346565b9050919050565b620003858162000366565b82525050565b6000602082019050620003a260008301846200037a565b92915050565b620003b381620002d9565b82525050565b6000602082019050620003d06000830184620003a8565b92915050565b620003e18162000366565b8114620003ed57600080fd5b50565b6000813590506200040181620003d6565b92915050565b600080fd5b600080fd5b6000601f19601f8301169050919050565b7f4e487b7100000000000000000000000000000000000000000000000000000000600052604160045260246000fd5b6200045c8262000411565b810181811067ffffffffffffffff821117156200047e576200047d62000422565b5b80604052505050565b600062000493620002c5565b9050620004a1828262000451565b919050565b600067ffffffffffffffff821115620004c457620004c362000422565b5b620004cf8262000411565b9050602081019050919050565b82818337600083830152505050565b600062000502620004fc84620004a6565b62000487565b9050828152602081018484840111156200052157620005206200040c565b5b6200052e848285620004dc565b509392505050565b600082601f8301126200054e576200054d62000407565b5b813562000560848260208601620004eb565b91505092915050565b60008060008060008060c08789031215620005895762000588620002cf565b5b60006200059989828a01620003f0565b965050602087013567ffffffffffffffff811115620005bd57620005bc620002d4565b5b620005cb89828a0162000536565b955050604087013567ffffffffffffffff811115620005ef57620005ee620002d4565b5b620005fd89828a0162000536565b94505060606200061089828a01620002fd565b93505060806200062389828a01620002fd565b92505060a06200063689828a01620002fd565b9150509295509295509295565b7f4e487b7100000000000000000000000000000000000000000000000000000000600052601160045260246000fd5b60006200067f82620002d9565b91506200068c83620002d9565b92508282026200069c81620002d9565b91508282048414831517620006b657620006b562000643565b5b5092915050565b600082825260208201905092915050565b7f50726f6a65637420676f616c2073686f756c642062652061746c65617374203060008201527f2e30303120457468000000000000000000000000000000000000000000000000602082015250565b60006200072c602883620006bd565b91506200073982620006ce565b604082019050919050565b600060208201905081810360008301526200075f816200071d565b9050919050565b7f46756e64696e67206475726174696f6e206d7573742062652061746c6561737460008201527f203520446179732e000000000000000000000000000000000000000000000000602082015250565b6000620007c4602883620006bd565b9150620007d18262000766565b604082019050919050565b60006020820190508181036000830152620007f781620007b5565b9050919050565b7f526566756e64204475726174696f6e206d7573742062652061746c656173742060008201527f31204461792e0000000000000000000000000000000000000000000000000000602082015250565b60006200085c602683620006bd565b91506200086982620007fe565b604082019050919050565b600060208201905081810360008301526200088f816200084d565b9050919050565b600081519050919050565b60005b83811015620008c1578082015181840152602081019050620008a4565b60008484015250505050565b6000620008da8262000896565b620008e68185620006bd565b9350620008f8818560208601620008a1565b620009038162000411565b840191505092915050565b600060e08201905062000925600083018a6200037a565b6200093460208301896200037a565b8181036040830152620009488188620008cd565b905081810360608301526200095e8187620008cd565b90506200096f6080830186620003a8565b6200097e60a0830185620003a8565b6200098d60c0830184620003a8565b98975050505050505050565b6000620009a682620002d9565b91507fffffffffffffffffffffffffffffffffffffffffffffffffffffffffffffffff8203620009db57620009da62000643565b5b60018201905091905056fe608060405266038d7ea4c68000600b5562989680600c553480156200002357600080fd5b506040516200263a3803806200263a83398181016040528101906200004991906200038d565b866000806101000a81548173ffffffffffffffffffffffffffffffffffffffff021916908373ffffffffffffffffffffffffffffffffffffffff16021790555085600160006101000a81548173ffffffffffffffffffffffffffffffffffffffff021916908373ffffffffffffffffffffffffffffffffffffffff1602179055508460029081620000db9190620006bf565b508360039081620000ed9190620006bf565b50826004819055506000600581905550816006819055508142620001129190620007d5565b600881905550806007819055506000600a60006101000a81548160ff0219169083600381111562000148576200014762000810565b5b0217905550505050505050506200083f565b6000604051905090565b600080fd5b600080fd5b600073ffffffffffffffffffffffffffffffffffffffff82169050919050565b60006200019b826200016e565b9050919050565b620001ad816200018e565b8114620001b957600080fd5b50565b600081519050620001cd81620001a2565b92915050565b600080fd5b600080fd5b6000601f19601f8301169050919050565b7f4e487b7100000000000000000000000000000000000000000000000000000000600052604160045260246000fd5b6200022882620001dd565b810181811067ffffffffffffffff821117156200024a5762000249620001ee565b5b80604052505050565b60006200025f6200015a565b90506200026d82826200021d565b919050565b600067ffffffffffffffff82111562000290576200028f620001ee565b5b6200029b82620001dd565b9050602081019050919050565b60005b83811015620002c8578082015181840152602081019050620002ab565b60008484015250505050565b6000620002eb620002e58462000272565b62000253565b9050828152602081018484840111156200030a5762000309620001d8565b5b62000317848285620002a8565b509392505050565b600082601f830112620003375762000336620001d3565b5b815162000349848260208601620002d4565b91505092915050565b6000819050919050565b620003678162000352565b81146200037357600080fd5b50565b60008151905062000387816200035c565b92915050565b600080600080600080600060e0888a031215620003af57620003ae62000164565b5b6000620003bf8a828b01620001bc565b9750506020620003d28a828b01620001bc565b965050604088015167ffffffffffffffff811115620003f657620003f562000169565b5b620004048a828b016200031f565b955050606088015167ffffffffffffffff81111562000428576200042762000169565b5b620004368a828b016200031f565b9450506080620004498a828b0162000376565b93505060a06200045c8a828b0162000376565b92505060c06200046f8a828b0162000376565b91505092959891949750929550565b600081519050919050565b7f4e487b7100000000000000000000000000000000000000000000000000000000600052602260045260246000fd5b60006002820490506001821680620004d157607f821691505b602082108103620004e757620004e662000489565b5b50919050565b60008190508160005260206000209050919050565b60006020601f8301049050919050565b600082821b905092915050565b600060088302620005517fffffffffffffffffffffffffffffffffffffffffffffffffffffffffffffffff8262000512565b6200055d868362000512565b95508019841693508086168417925050509392505050565b6000819050919050565b6000620005a06200059a620005948462000352565b62000575565b62000352565b9050919050565b6000819050919050565b620005bc836200057f565b620005d4620005cb82620005a7565b8484546200051f565b825550505050565b600090565b620005eb620005dc565b620005f8818484620005b1565b505050565b5b81811015620006205762000614600082620005e1565b600181019050620005fe565b5050565b601f8211156200066f576200063981620004ed565b620006448462000502565b8101602085101562000654578190505b6200066c620006638562000502565b830182620005fd565b50505b505050565b600082821c905092915050565b6000620006946000198460080262000674565b1980831691505092915050565b6000620006af838362000681565b9150826002028217905092915050565b620006ca826200047e565b67ffffffffffffffff811115620006e657620006e5620001ee565b5b620006f28254620004b8565b620006ff82828562000624565b600060209050601f83116001811462000737576000841562000722578287015190505b6200072e8582620006a1565b8655506200079e565b601f1984166200074786620004ed565b60005b8281101562000771578489015182556001820191506020850194506020810190506200074a565b868310156200079157848901516200078d601f89168262000681565b8355505b6001600288020188555050505b505050505050565b7f4e487b7100000000000000000000000000000000000000000000000000000000600052601160045260246000fd5b6000620007e28262000352565b9150620007ef8362000352565b92508282019050808211156200080a5762000809620007a6565b5b92915050565b7f4e487b7100000000000000000000000000000000000000000000000000000000600052602160045260246000fd5b611deb806200084f6000396000f3fe6080604052600436106100e85760003560e01c8063c19d93fb1161008a578063e1aa1bcc11610059578063e1aa1bcc14610281578063f0ea4bfc146102ac578063f6b58310146102d7578063f7260d3e146102f3576100e8565b8063c19d93fb146101f7578063cc6cb19a14610222578063d886cab914610260578063d8d7970014610277576100e8565b806340193883116100c6578063401938831461015f5780637284e4161461018a578063796b23bb146101b5578063ad3bf1f1146101e0576100e8565b806302d05d3f146100ed57806306fdde0314610118578063278ecde114610143575b600080fd5b3480156100f957600080fd5b5061010261031e565b60405161010f9190610ebf565b60405180910390f35b34801561012457600080fd5b5061012d610342565b60405161013a9190610f6a565b60405180910390f35b61015d60048036038101906101589190610fd6565b6103d0565b005b34801561016b57600080fd5b506101746105b6565b6040516101819190611012565b60405180910390f35b34801561019657600080fd5b5061019f6105bc565b6040516101ac9190610f6a565b60405180910390f35b3480156101c157600080fd5b506101ca61064a565b6040516101d79190611012565b60405180910390f35b3480156101ec57600080fd5b506101f5610650565b005b34801561020357600080fd5b5061020c6107c6565b60405161021991906110a4565b60405180910390f35b34801561022e57600080fd5b50610249600480360381019061024491906110eb565b6107d9565b604051610257929190611118565b60405180910390f35b34801561026c57600080fd5b50610275610885565b005b61027f610a56565b005b34801561028d57600080fd5b50610296610bf0565b6040516102a39190611012565b60405180910390f35b3480156102b857600080fd5b506102c1610bf6565b6040516102ce9190611012565b60405180910390f35b6102f160048036038101906102ec919061127d565b610bfc565b005b3480156102ff57600080fd5b50610308610e58565b6040516103159190610ebf565b60405180910390f35b60008054906101000a900473ffffffffffffffffffffffffffffffffffffffff1681565b6002805461034f906112f5565b80601f016020809104026020016040519081016040528092919081815260200182805461037b906112f5565b80156103c85780601f1061039d576101008083540402835291602001916103c8565b820191906000526020600020905b8154815290600101906020018083116103ab57829003601f168201915b505050505081565b6000633b9aca00826103e29190611355565b90506000600d60003373ffffffffffffffffffffffffffffffffffffffff1673ffffffffffffffffffffffffffffffffffffffff16815260200190815260200160002090506001600381111561043b5761043a61102d565b5b600a60009054906101000a900460ff16600381111561045d5761045c61102d565b5b1461049d576040517f08c379a0000000000000000000000000000000000000000000000000000000008152600401610494906113e3565b60405180910390fd5b4260095410156104e2576040517f08c379a00000000000000000000000000000000000000000000000000000000081526004016104d99061144f565b60405180910390fd5b8181600001541015610529576040517f08c379a0000000000000000000000000000000000000000000000000000000008152600401610520906114e1565b60405180910390fd5b3373ffffffffffffffffffffffffffffffffffffffff166108fc600c54846105519190611501565b9081150290604051600060405180830381858888f1935050505015801561057c573d6000803e3d6000fd5b50818160000160008282546105919190611501565b9250508190555081600560008282546105aa9190611501565b92505081905550505050565b60045481565b600380546105c9906112f5565b80601f01602080910402602001604051908101604052809291908181526020018280546105f5906112f5565b80156106425780601f1061061757610100808354040283529160200191610642565b820191906000526020600020905b81548152906001019060200180831161062557829003601f168201915b505050505081565b60085481565b60008054906101000a900473ffffffffffffffffffffffffffffffffffffffff1673ffffffffffffffffffffffffffffffffffffffff163373ffffffffffffffffffffffffffffffffffffffff16146106de576040517f08c379a00000000000000000000000000000000000000000000000000000000081526004016106d5906115a7565b60405180910390fd5b600160038111156106f2576106f161102d565b5b600a60009054906101000a900460ff1660038111156107145761071361102d565b5b14610754576040517f08c379a000000000000000000000000000000000000000000000000000000000815260040161074b90611613565b60405180910390fd5b426009541115610799576040517f08c379a00000000000000000000000000000000000000000000000000000000081526004016107909061167f565b60405180910390fd5b6002600a60006101000a81548160ff021916908360038111156107bf576107be61102d565b5b0217905550565b600a60009054906101000a900460ff1681565b600d602052806000526040600020600091509050806000015490806001018054610802906112f5565b80601f016020809104026020016040519081016040528092919081815260200182805461082e906112f5565b801561087b5780601f106108505761010080835404028352916020019161087b565b820191906000526020600020905b81548152906001019060200180831161085e57829003601f168201915b5050505050905082565b60008054906101000a900473ffffffffffffffffffffffffffffffffffffffff1673ffffffffffffffffffffffffffffffffffffffff163373ffffffffffffffffffffffffffffffffffffffff1614610913576040517f08c379a000000000000000000000000000000000000000000000000000000000815260040161090a90611711565b60405180910390fd5b600060038111156109275761092661102d565b5b600a60009054906101000a900460ff1660038111156109495761094861102d565b5b14610989576040517f08c379a0000000000000000000000000000000000000000000000000000000008152600401610980906117a3565b60405180910390fd5b60045460055411156109d0576040517f08c379a00000000000000000000000000000000000000000000000000000000081526004016109c79061180f565b60405180910390fd5b600854421015610a15576040517f08c379a0000000000000000000000000000000000000000000000000000000008152600401610a0c9061187b565b60405180910390fd5b6001600a60006101000a81548160ff02191690836003811115610a3b57610a3a61102d565b5b021790555060075442610a4e919061189b565b600981905550565b60026003811115610a6a57610a6961102d565b5b600a60009054906101000a900460ff166003811115610a8c57610a8b61102d565b5b14610acc576040517f08c379a0000000000000000000000000000000000000000000000000000000008152600401610ac39061191b565b60405180910390fd5b60008054906101000a900473ffffffffffffffffffffffffffffffffffffffff1673ffffffffffffffffffffffffffffffffffffffff163373ffffffffffffffffffffffffffffffffffffffff1614610b5a576040517f08c379a0000000000000000000000000000000000000000000000000000000008152600401610b51906119ad565b60405180910390fd5b600160009054906101000a900473ffffffffffffffffffffffffffffffffffffffff1673ffffffffffffffffffffffffffffffffffffffff166108fc479081150290604051600060405180830381858888f19350505050158015610bc2573d6000803e3d6000fd5b506003600a60006101000a81548160ff02191690836003811115610be957610be861102d565b5b0217905550565b60095481565b60055481565b60006003811115610c1057610c0f61102d565b5b600a60009054906101000a900460ff166003811115610c3257610c3161102d565b5b14610c72576040517f08c379a0000000000000000000000000000000000000000000000000000000008152600401610c6990611a19565b60405180910390fd5b600854421115610cb7576040517f08c379a0000000000000000000000000000000000000000000000000000000008152600401610cae90611a85565b60405180910390fd5b600b54341015610cfc576040517f08c379a0000000000000000000000000000000000000000000000000000000008152600401610cf390611b17565b60405180910390fd5b6000600d60003373ffffffffffffffffffffffffffffffffffffffff1673ffffffffffffffffffffffffffffffffffffffff168152602001908152602001600020905034816000016000828254610d53919061189b565b9250508190555081816001019081610d6b9190611ce3565b503460056000828254610d7e919061189b565b9250508190555060045460055410610e54576000600454600554610da29190611501565b9050600c54811115610e1e573373ffffffffffffffffffffffffffffffffffffffff166108fc600c5483610dd69190611501565b9081150290604051600060405180830381858888f19350505050158015610e01573d6000803e3d6000fd5b5080826000016000828254610e169190611501565b925050819055505b6004546005819055506002600a60006101000a81548160ff02191690836003811115610e4d57610e4c61102d565b5b0217905550505b5050565b600160009054906101000a900473ffffffffffffffffffffffffffffffffffffffff1681565b600073ffffffffffffffffffffffffffffffffffffffff82169050919050565b6000610ea982610e7e565b9050919050565b610eb981610e9e565b82525050565b6000602082019050610ed46000830184610eb0565b92915050565b600081519050919050565b600082825260208201905092915050565b60005b83811015610f14578082015181840152602081019050610ef9565b60008484015250505050565b6000601f19601f8301169050919050565b6000610f3c82610eda565b610f468185610ee5565b9350610f56818560208601610ef6565b610f5f81610f20565b840191505092915050565b60006020820190508181036000830152610f848184610f31565b905092915050565b6000604051905090565b600080fd5b600080fd5b6000819050919050565b610fb381610fa0565b8114610fbe57600080fd5b50565b600081359050610fd081610faa565b92915050565b600060208284031215610fec57610feb610f96565b5b6000610ffa84828501610fc1565b91505092915050565b61100c81610fa0565b82525050565b60006020820190506110276000830184611003565b92915050565b7f4e487b7100000000000000000000000000000000000000000000000000000000600052602160045260246000fd5b6004811061106d5761106c61102d565b5b50565b600081905061107e8261105c565b919050565b600061108e82611070565b9050919050565b61109e81611083565b82525050565b60006020820190506110b96000830184611095565b92915050565b6110c881610e9e565b81146110d357600080fd5b50565b6000813590506110e5816110bf565b92915050565b60006020828403121561110157611100610f96565b5b600061110f848285016110d6565b91505092915050565b600060408201905061112d6000830185611003565b818103602083015261113f8184610f31565b90509392505050565b600080fd5b600080fd5b7f4e487b7100000000000000000000000000000000000000000000000000000000600052604160045260246000fd5b61118a82610f20565b810181811067ffffffffffffffff821117156111a9576111a8611152565b5b80604052505050565b60006111bc610f8c565b90506111c88282611181565b919050565b600067ffffffffffffffff8211156111e8576111e7611152565b5b6111f182610f20565b9050602081019050919050565b82818337600083830152505050565b600061122061121b846111cd565b6111b2565b90508281526020810184848401111561123c5761123b61114d565b5b6112478482856111fe565b509392505050565b600082601f83011261126457611263611148565b5b813561127484826020860161120d565b91505092915050565b60006020828403121561129357611292610f96565b5b600082013567ffffffffffffffff8111156112b1576112b0610f9b565b5b6112bd8482850161124f565b91505092915050565b7f4e487b7100000000000000000000000000000000000000000000000000000000600052602260045260246000fd5b6000600282049050600182168061130d57607f821691505b6020821081036113205761131f6112c6565b5b50919050565b7f4e487b7100000000000000000000000000000000000000000000000000000000600052601160045260246000fd5b600061136082610fa0565b915061136b83610fa0565b925082820261137981610fa0565b915082820484148315176113905761138f611326565b5b5092915050565b7f50726f6a656374206973206e6f7420696e20726566756e6420706572696f642e600082015250565b60006113cd602083610ee5565b91506113d882611397565b602082019050919050565b600060208201905081810360008301526113fc816113c0565b9050919050565b7f526566756e6420706572696f64206f7665722e00000000000000000000000000600082015250565b6000611439601383610ee5565b915061144482611403565b602082019050919050565b600060208201905081810360008301526114688161142c565b9050919050565b7f41736b696e6720616d6f756e742069732067726561746572207468616e20646f60008201527f6e617465642e0000000000000000000000000000000000000000000000000000602082015250565b60006114cb602683610ee5565b91506114d68261146f565b604082019050919050565b600060208201905081810360008301526114fa816114be565b9050919050565b600061150c82610fa0565b915061151783610fa0565b925082820390508181111561152f5761152e611326565b5b92915050565b7f596f7520646f206e6f7420686176652074686520617574686f7269747920746f60008201527f2066696e69736820726566756e6420706572696f642e00000000000000000000602082015250565b6000611591603683610ee5565b915061159c82611535565b604082019050919050565b600060208201905081810360008301526115c081611584565b9050919050565b7f526566756e6420706572696f64206973206e6f7420676f696e67206f6e2e0000600082015250565b60006115fd601e83610ee5565b9150611608826115c7565b602082019050919050565b6000602082019050818103600083015261162c816115f0565b9050919050565b7f526566756e6420706572696f64206973206e6f74206f7665722e000000000000600082015250565b6000611669601a83610ee5565b915061167482611633565b602082019050919050565b600060208201905081810360008301526116988161165c565b9050919050565b7f596f7520646f206e6f74206861766520617574686f7269747920746f20636c6f60008201527f73652066756e64696e672e000000000000000000000000000000000000000000602082015250565b60006116fb602b83610ee5565b91506117068261169f565b604082019050919050565b6000602082019050818103600083015261172a816116ee565b9050919050565b7f50726f6a6563742068617320636f6d706c657465642066756e64696e6720706560008201527f72696f642e000000000000000000000000000000000000000000000000000000602082015250565b600061178d602583610ee5565b915061179882611731565b604082019050919050565b600060208201905081810360008301526117bc81611780565b9050919050565b7f54617267657420686173206265656e206869742e000000000000000000000000600082015250565b60006117f9601483610ee5565b9150611804826117c3565b602082019050919050565b60006020820190508181036000830152611828816117ec565b9050919050565b7f46756e64696e6720446561646c696e65206e6f7420526561636865642e000000600082015250565b6000611865601d83610ee5565b91506118708261182f565b602082019050919050565b6000602082019050818103600083015261189481611858565b9050919050565b60006118a682610fa0565b91506118b183610fa0565b92508282019050808211156118c9576118c8611326565b5b92915050565b7f50726f6a656374206973207374696c6c2072756e6e696e672e00000000000000600082015250565b6000611905601983610ee5565b9150611910826118cf565b602082019050919050565b60006020820190508181036000830152611934816118f8565b9050919050565b7f596f7520646f206e6f7420686176652074686520617574686f7269747920746f60008201527f206d616b65207061796d656e742e000000000000000000000000000000000000602082015250565b6000611997602e83610ee5565b91506119a28261193b565b604082019050919050565b600060208201905081810360008301526119c68161198a565b9050919050565b7f46756e64696e6720506572696f64206973206f7665722e000000000000000000600082015250565b6000611a03601783610ee5565b9150611a0e826119cd565b602082019050919050565b60006020820190508181036000830152611a32816119f6565b9050919050565b7f46756e646e6720506572696f64206973206f7665722e00000000000000000000600082015250565b6000611a6f601683610ee5565b9150611a7a82611a39565b602082019050919050565b60006020820190508181036000830152611a9e81611a62565b9050919050565b7f416d6f756e74206c657373207468616e206d696e696d756d20646f6e6174696f60008201527f6e2e000000000000000000000000000000000000000000000000000000000000602082015250565b6000611b01602283610ee5565b9150611b0c82611aa5565b604082019050919050565b60006020820190508181036000830152611b3081611af4565b9050919050565b60008190508160005260206000209050919050565b60006020601f8301049050919050565b600082821b905092915050565b600060088302611b997fffffffffffffffffffffffffffffffffffffffffffffffffffffffffffffffff82611b5c565b611ba38683611b5c565b95508019841693508086168417925050509392505050565b6000819050919050565b6000611be0611bdb611bd684610fa0565b611bbb565b610fa0565b9050919050565b6000819050919050565b611bfa83611bc5565b611c0e611c0682611be7565b848454611b69565b825550505050565b600090565b611c23611c16565b611c2e818484611bf1565b505050565b5b81811015611c5257611c47600082611c1b565b600181019050611c34565b5050565b601f821115611c9757611c6881611b37565b611c7184611b4c565b81016020851015611c80578190505b611c94611c8c85611b4c565b830182611c33565b50505b505050565b600082821c905092915050565b6000611cba60001984600802611c9c565b1980831691505092915050565b6000611cd38383611ca9565b9150826002028217905092915050565b611cec82610eda565b67ffffffffffffffff811115611d0557611d04611152565b5b611d0f82546112f5565b611d1a828285611c56565b600060209050601f831160018114611d4d5760008415611d3b578287015190505b611d458582611cc7565b865550611dad565b601f198416611d5b86611b37565b60005b82811015611d8357848901518255600182019150602085019450602081019050611d5e565b86831015611da05784890151611d9c601f891682611ca9565b8355505b6001600288020188555050505b50505050505056fea264697066735822122057f2dbf514a521964fea4b38276b98040c602393bf86bdd4955646a96505803864736f6c63430008130033a26469706673582212206acc5c4d3615c92a67581a053560911e0719e255b5b6034207945f9bcc227acc64736f6c63430008130033",
  "immutableReferences": {},
  "source": "// SPDX-License-Identifier: MIT\npragma solidity 0.8.19;\n\nimport \"./Project.sol\";\n\ncontract ProjectManager {\n    mapping(uint256 => address) public projects;\n    uint256 public projectNumber = 1;\n    uint minGoal = 1000000 * 1 gwei;\n    uint day = 86400;\n\n    function createProject(\n        address receiverAddress,\n        string memory projectName,\n        string memory projectDescription,\n        uint256 projectGoal,\n        uint256 fundingDuration,\n        uint refundDuration\n    ) external {\n        require(projectGoal * 1 gwei  >= minGoal, \"Project goal should be atleast 0.001 Eth\");\n        require(fundingDuration >= 432000 , \"Funding duration must be atleast 5 Days.\");\n        require(refundDuration >= 86400, \"Refund Duration must be atleast 1 Day.\");\n\n        Project newProject = new Project(\n            msg.sender,\n            receiverAddress,\n            projectName,\n            projectDescription,\n            projectGoal * 1 gwei,\n            fundingDuration,\n            refundDuration\n        );\n        projects[projectNumber] = address(newProject);\n        projectNumber++;\n    }\n}\n",
  "sourcePath": "/home/armaan/Blockchain/CF/truffle/contracts/ProjectManager.sol",
  "compiler": {
    "name": "solc",
    "version": "0.8.19+commit.7dd6d404.Emscripten.clang"
  },
  "schemaVersion": "3.4.16",
  "updatedAt": "2024-07-14T16:48:21.508Z",
  "networkType": "ethereum",
  "devdoc": {
    "kind": "dev",
    "methods": {},
    "version": 1
  },
  "userdoc": {
    "kind": "user",
    "methods": {},
    "version": 1
  }
}